:020000040800F2
:1000000068060020650100081D050008E9040008D5
:1000100000000000000000000000000000000000E0
:10002000000000000000000000000000890500083A
:100030000000000000000000350500080906000867
:10004000DD06000829050008650500083D040008D4
:1000500059050008AD030008B9030008C5030008EE
:10006000000000008903000895030008A1030008B0
:100070004502000895060008A1060008AD06000824
:10008000B90600080000000000000000710600082A
:10009000000000007D06000889060008F50400083D
:1000A00000000000710500087D050008C506000875
:1000B000D1060008510200085D0200089501000801
:1000C00000F002F800F03EF80CA030C80838241800
:1000D0002D18A246671EAB4654465D46AC4201D180
:1000E00000F030F87E460F3E0FCCB6460126334274
:1000F00000D0FB1AA246AB46334318471008000055
:1001000030080000103A02D378C878C1FAD85207F4
:1001100001D330C830C101D504680C6070470000BD
:100120000023002400250026103A01D378C1FBD813
:10013000520700D330C100D50B6070471FB51FBDFB
:1001400010B510BD00F04BF81146FFF7F7FF00F0B7
:10015000CBFA00F063F803B4FFF7F2FF03BC00F042
:1001600069F800000F4880F308880F480168090EFD
:100170000E4A914205D10E480E4901600E480F49C2
:1001800001600F4880470F480047FEE7FEE7FEE7A3
:10019000FEE7FEE7FEE700000B480C490C4A0D4B5A
:1001A0007047000068060020040000001F000000E7
:1001B0001810024001000000000001400000000093
:1001C00015060008C100000868000020680600202D
:1001D000680200206802002070477047704775462B
:1001E00000F024F8AE46050069465346C008C0003A
:1001F000854618B020B5FFF7CFFF60BC002749083F
:10020000B6460026C0C5C0C5C0C5C0C5C0C5C0C5AE
:10021000C0C5C0C5403D49008D46704710B5044675
:10022000C046C0462046FFF796FF10BD0048704705
:100230000800002001491820ABBEFEE7260002009E
:100240007047000001480068004700008010000867
:100250000148406800470000C0100008014880685D
:1002600000470000C010000870B503460020084C8D
:1002700009E01D78160A75406D00655B1202554055
:10028000401CAAB25B1C8842F3DB104670BD000024
:100290000A07000810B500220D4C012800D10D4CB2
:1002A00060782178000201430B48814200D9014661
:1002B00020461030FFF7D8FFA278C1B2914203D197
:1002C000E178000A884201D0002010BD012010BD55
:1002D0000010000800000108F0EF000070B50F4C9E
:1002E0000028254601D10E4C254600200F21090388
:1002F0002278641CFF2A0CD000F0D2F80024A0025F
:10030000401900F065F8641C3C2CF8DB00F09CF808
:1003100070BD401C8842EBDB70BD0000000001088E
:1003200000100008F8B5174C154E607821780002CF
:1003300001438D080F2080022D1D854200D90546FE
:100340000020FFF7CBFF00F0ABF8002710E0E078CB
:100350000102A07808430102607808432178000276
:100360000143304600F078F87F1C241DBFB2361DD3
:10037000AF42ECD300F068F80020FFF78BFFF8BD28
:1003800000100008000001080148406B0047000011
:10039000401000080148806B004700004010000832
:1003A0000148C06B00470000401000080148406A47
:1003B00000470000401000080148806A0047000024
:1003C000401000080148C06A0047000040100008C3
:1003D00070B50D4E0546304600F06EF8042812D177
:1003E0000A4C20690221084320616561206940218F
:1003F00008432061304600F05FF8012803D02169EE
:10040000034A1140216170BDFF0F0000002002402F
:10041000FD1F000008490420CA68D20701D001204E
:100420007047CA68520701D502207047C968C906DB
:10043000FBD5032070470000002002400148C0693E
:100440000047000040100008024801698022114363
:100450000161704700200240F0B506460D460F20AE
:1004600000F02AF8042815D10B4C2069012108431B
:10047000206135800F2000F01FF8084F042804D1B8
:10048000280C70800F2000F017F8012802D0216995
:1004900039402161F0BD000000200240FE1F000035
:1004A00003480249416003494160704723016745A1
:1004B00000200240AB89EFCD18B50346FFF7AAFF35
:1004C000FF2407E020460094401E0090FCD1FFF777
:1004D000A1FF5B1E012803D0002B00D1052018BD11
:1004E000002BEFD1FAE700000148C0690047000087
:1004F000001000080148C06A004700008010000892
:1005000004494869044A50601060096981F3088809
:10051000004700000010000800000020014880692A
:100520000047000000100008014840690047000033
:100530004010000801488068004700004010000893
:10054000044A0029916901D0014300E0814391618F
:1005500070470000001002400148006A0047000098
:100560004010000801488069004700004010000862
:100570000148406B00470000801000080148806B74
:1005800000470000801000080148C06B00470000D1
:10059000001000081A480168012211430160016837
:1005A0008907FCD5012149024160416801221204FA
:1005B000914341600268012109068A430260026892
:1005C0001F239B069A430260026803239B061A437B
:1005D00002600C4B11221A6002680A430260016833
:1005E0008901FCD54168890889004160416802227F
:1005F0001143416041680907890F0229FAD1704708
:1006000000100240002002400148C068004700007E
:100610004010000810B51148016801221143016023
:1006200041680F4A1140416001680E4A1140016063
:10063000016801229204914301604168C3221204BF
:10064000914341600168084A114001608168074A8E
:1006500011408160FFF79EFF10BD000000100240B6
:100660000CC0FFF8FFFFF6FEFFFF8F0062E262FFA3
:100670000148C06900470000801000080148406A36
:1006800000470000801000080148806A0047000011
:1006900080100008014840680047000080100008F2
:1006A0000148806800470000801000080148C068C9
:1006B0000047000080100008014800690047000062
:1006C000801000080148C06B00470000801000083F
:1006D0000148006800470000C01000080148006998
:1006E000004700004010000801210846FFF728FFDE
:1006F0000120FFF7CFFD002801D0FFF713FE0120F6
:10070000FFF7ECFDFFF7FCFEFEE7000021104220A2
:1007100063308440A550C660E770088129914AA1E2
:100720006BB18CC1ADD1CEE1EFF131121002733259
:100730005222B5529442F772D662399318837BB332
:100740005AA3BDD39CC3FFF3DEE3622443342004E9
:100750000114E664C774A44485546AA54BB5288582
:100760000995EEE5CFF5ACC58DD553367226111639
:100770003006D776F6669556B4465BB77AA71997D2
:100780003887DFF7FEE79DD7BCC7C448E5588668C1
:10079000A7784008611802282338CCC9EDD98EE922
:1007A000AFF9488969990AA92BB9F55AD44AB77A99
:1007B000966A711A500A333A122AFDDBDCCBBFFB72
:1007C0009EEB799B588B3BBB1AABA66C877CE44CA9
:1007D000C55C222C033C600C411CAEED8FFDECCDC2
:1007E000CDDD2AAD0BBD688D499D977EB66ED55E79
:1007F000F44E133E322E511E700E9FFFBEEFDDDF12
:10080000FCCF1BBF3AAF599F788F8891A981CAB19D
:10081000EBA10CD12DC14EF16FE18010A100C230CF
:10082000E3200450254046706760B9839893FBA38A
:10083000DAB33DC31CD37FE35EF3B1029012F3221F
:10084000D2323542145277625672EAB5CBA5A895DA
:1008500089856EF54FE52CD50DC5E234C324A0146F
:1008600081046674476424540544DBA7FAB799876A
:10087000B8975FE77EF71DC73CD7D326F2369106BF
:10088000B01657667676154634564CD96DC90EF9B2
:100890002FE9C899E9898AB9ABA94458654806780F
:1008A0002768C018E1088238A3287DCB5CDB3FEBCA
:1008B0001EFBF98BD89BBBAB9ABB754A545A376A5F
:1008C000167AF10AD01AB32A923A2EFD0FED6CDD9A
:1008D0004DCDAABD8BADE89DC98D267C076C645CAF
:1008E000454CA23C832CE01CC10C1FEF3EFF5DCFAA
:1008F0007CDF9BAFBABFD98FF89F176E367E554EFF
:10090000745E932EB23ED10EF01E00002C0900083A
:10091000000000200800000004010008340900085D
:100920000800002060060000200100080000000010
:0409300000000000C3
:04000005080000C12E
:00000001FF
