:020000040800F2
:10000000C8180020BD1B0008C51B0008C71B00083E
:10001000C91B0008CB1B0008CD1B00080000000016
:10002000000000000000000000000000CF1B0008DE
:10003000D11B000800000000D31B0008D51B0008DE
:10004000D71B0008D71B0008D71B0008D71B0008C8
:10005000D71B0008D71B0008D71B0008D71B0008B8
:10006000D71B0008D71B0008D71B0008D71B0008A8
:10007000D71B0008D71B0008D71B0008D71B000898
:10008000D71B0008D71B0008D71B00080000000082
:1000900000000000D71B000800000000D71B00086C
:1000A000D71B0008D71B0008D71B0008D71B000868
:1000B000D71B0008D71B0008D71B0008D71B000858
:1000C00000000000D71B000800000000D71B00083C
:1000D000D71B0008D71B0008D71B0008D71B000838
:1000E000D71B0008D71B0008D71B0008D71B000828
:1000F000D71B0008D71B0008D71B00080000000012
:1001000000000000D71B0008D71B0008D71B000801
:10011000D71B0008D71B0008D71B0008D71B0008F7
:10012000D71B0008D71B0008D71B0008D71B0008E7
:10013000D71B0008D71B00080000000000000000CB
:10014000D71B00080000000000000000D71B0008BB
:10015000000000000000000000000000D71B0008A5
:10016000000000000000000000000000000000008F
:10017000000000000000000000000000D71B000885
:10018000D71B000800000000D71B0008D71B000881
:10019000000000000000000000000000000000005F
:1001A000000000000000000000000000000000004F
:1001B0000000000000F002F800F03AF80AA090E811
:1001C000000C82448344AAF10107DA4501D100F012
:1001D0002FF8AFF2090EBAE80F0013F0010F18BFA5
:1001E000FB1A43F001031847882D0000A82D0000DA
:1001F000103A24BF78C878C1FAD8520724BF30C853
:1002000030C144BF04680C60704700000023002424
:1002100000250026103A28BF78C1FBD8520728BF16
:1002200030C148BF0B6070471FB51FBD10B510BD72
:1002300002F02EFE1146FFF7F7FF00F055F802F02E
:100240004CFE03B4FFF7F2FF03BC02F053FE0000C4
:1002500008B50121084602F068FB4FF40070ADF8C4
:10026000000003208DF8020018208DF80300694675
:100270004FF0904001F09AFF07220921C80602F0D2
:1002800056F84FF48060ADF8000004208DF80300AC
:1002900069464FF0904001F089FF07220A214FF094
:1002A000904002F044F808BD1FB50121102002F073
:1002B00049FB4FF4964000903020ADF80400002038
:1002C000ADF80600ADF80800ADF80C001820ADF848
:1002D0000A0069462D4802F04EFCFFF7B9FF0121E4
:1002E0002A4802F08CFC1FBD00214FF0006002F094
:1002F00081F801F0AFFCFFF7D7FF2548007810B96F
:1003000000F00AFA28E02348006823490840B0F1C9
:10031000005F1CD121A000F023F927A000F020F9F4
:100320001C4840682A490860084600682949086056
:1003300072B600220221154802F06DFC15490868CA
:1003400080F3088800BF23480068804704E022A0AB
:1003500000F006F900F0E0F900BFFEE701B502E0A9
:100360000098401E009000980028F9D108BD70B593
:1003700004460D462946204602F05FFC00BF0121DD
:10038000204602F061FC0028F9D070BD0038014021
:10039000FCFF0108003000080000FE2F457865636F
:1003A00075746520757365722050726F6772616D28
:1003B00031313131310D0A0045786563757465203E
:1003C000757365722050726F6772616D0D0A00005F
:1003D00004000020000000206E6F207573657220FD
:1003E00050726F6772616D0D0A000000F0B5F94A36
:1003F00000250024002320E0B1FBF2F6303606F0A1
:10040000FF0C2E466D1C00F806C0B1FBF2F602FB95
:1004100016110A26B2FBF6F26E1E865D302E01D151
:10042000012600E000260CB9012700E000273E402D
:100430000EB1002500E0641C5B1C0A2BDCD3F0BD70
:1004400070B502460C4600210025002310783028A4
:1004500043D15078782802D0507858283DD19078F0
:1004600008B9002070BD022130E0505C10B9236053
:1004700001252DE0505C412802DB505C46280BDD55
:10048000505C612802DB505C662805DD505C30283A
:1004900019DB505C392816DC505C302805DB505CD9
:1004A000392802DC505C30380AE0505C412805DB1A
:1004B000505C462802DC505C373801E0505C57380D
:1004C00000EB031301E0002502E0491C0B29CCD30B
:1004D00000BF0B2934D3002532E000212AE0505C14
:1004E00010B92360012527E0505C6B2802D0505CD6
:1004F0004B2804D119B19B02236001251CE0505CFC
:100500006D2802D0505C4D2804D119B11B05236021
:10051000012511E0505C302809DB505C392806DCED
:10052000505C303803EB830600EB460301E0002506
:1005300002E0491C0B29D2D300BF0B2900D30025B0
:1005400028468FE710B504462146A34802F075FB04
:1005500000BF0821A04802F077FB0028F9D010BDA9
:1005600010B5044603E02078FFF7ECFF641C207808
:100570000028F8D110BD10B504460221964802F0BB
:1005800063FB28B19448001D00682070012010BD55
:100590000020FCE708B50020009004E06846FFF763
:1005A000EAFF00B100E0F9E700BF9DF8000008BDD8
:1005B00070B506460025002400BFFFF7EBFF044698
:1005C0000D2C00D11AE0082C05D11DB183A0FFF736
:1005D000C7FF6D1E11E0802D04D381A0FFF7C0FF7F
:1005E00000250AE0202C07DB7E2C05DC28466D1C4C
:1005F00034542046FFF7A6FF00BFDEE700BF80A00F
:10060000FFF7AEFF0020705570BD1FB5044623E014
:100610006846FFF7CDFF9DF8000000B91CE09DF88B
:100620000000612803D09DF80000412808D19DF802
:10063000010028B973A0FFF793FF002004B010BD9C
:1006400021466846FFF7FCFE18B973A0FFF788FF44
:1006500001E00120F2E700BFDAE701B500200099D0
:10066000C1F309021AB1012202EB912000E0880ACD
:1006700008BD2DE9F04700240025012602274FF090
:1006800004084FF0010901F011FD054668480068B3
:10069000284067490968884239D001F003FD0446C3
:1006A0006348006828436249086001F05AFB8146AC
:1006B0005F480068401C28B15D480068C04301F0F5
:1006C0000FFC814604F00700072811D004F0010058
:1006D00000B9002604F0020000B9002704F004006D
:1006E00008B94FF0000842463946304601F0ABFCED
:1006F000B9F1040F07D14FA0FFF732FF5548FFF7BC
:100700002FFF00F070F954A0FFF72AFF02E05DA070
:10071000FFF726FFBDE8F087002463480068A0F1DA
:100720000060000B61490860084600683E2808D256
:100730000846017801208840401EC0433C490860BB
:1007400003E04FF000603A49086001F0AFFC38491F
:100750000968084036490968884203D00120544995
:10076000086002E00020524908603BE151A0FFF719
:10077000F7FE5AA0FFF7F4FE61A0FFF7F1FE4C4828
:10078000006810B167A0FFF7EBFE6FA0FFF7E8FE6F
:10079000FFF700FF0446312C02D100F02FFD21E1CC
:1007A000322C16D171A0FFF7DBFE76A0FFF7D8FE42
:1007B0007A4840687A4908600846006879490860C4
:1007C0007649086880F3088800BF7648006880474B
:1007D00008E1E9E000CA9A3B00380140082008001F
:1007E000436F6D6D616E6420737472696E67207300
:1007F000697A65206F766572666C6F770D0A000006
:100800000A0D0000557365722043616E63656C6C60
:100810006564200D0A0000004572726F722C204939
:100820006E70757420616761696E3A200D0A000070
:100830000C00002057726974652050726F746563F4
:1008400074696F6E2064697361626C65642E2E2E0C
:100850000D0A0000242F00084572726F723A20467C
:100860006C61736820777269746520756E70726F41
:1008700074656374696F6E206661696C65642E2EA1
:100880002E0D0A00466C617368206D656D6F72797C
:10089000206E6F742077726974652070726F746552
:1008A000637465640D0A0000140000200800002035
:1008B000100000200D0A3D3D3D3D3D3D3D3D3D3D8F
:1008C0003D204D61696E204D656E75203D3D3D3D7D
:1008D0003D3D3D3D3D3D0D0A000000003D20446F83
:1008E000776E6C6F616420496D61676520546F207D
:1008F000466C617368202D2D2031203D0D0A0000CB
:100900003D204578656375746520546865204E65A3
:10091000772050726F6772616D202D2D2032203D3F
:100920000D0A000044697361626C6520746865207B
:1009300077726974652070726F74656374696F6E25
:10094000202D2D20330D0A003D3D3D3D3D3D3D3DDB
:100950003D3D3D3D3D3D3D3D3D3D3D3D3D3D3D3DC7
:100960003D3D3D3D3D3D3D3D0D0A00004578656303
:1009700075746520757365722031313131310D0A1E
:1009800000000000457865637574652075736572B5
:100990002050726F6772616D0D0A00000030000810
:1009A0000400002000000020332C06D11548006808
:1009B000012802D1FFF75DFE14E0722C08D112A0CD
:1009C000FFF7CEFD012080F3138800BF00F00BF885
:1009D0000C48006818B912A0FFF7C2FD02E01AA087
:1009E000FFF7BEFDC2E6BFF34F8F2148006800F459
:1009F000E06020490843001D1D490860BFF34F8F88
:100A000000BFFEE7100000200D0A53797374656D76
:100A1000205265626F6F742E2E2E0D0A00000000AA
:100A2000546865206E756D6265722073686F756CB1
:100A300064206265206569746865722031206F7278
:100A400020320D0A00000000546865206E756D624A
:100A500065722073686F756C6420626520656974C7
:100A600068657220312C2032206F7220330D0A000D
:100A70000CED00E00000FA0570B505460C4606E0F6
:100A80002846FFF778FD012801D1002070BD201E07
:100A9000A4F10104F4D1401EF8E710B50446204645
:100AA000FFF750FD002010BD2DE9F84304460D4628
:100AB00090460020286041466846FFF7DDFF18B1E8
:100AC0004FF0FF30BDE8F8839DF80000182813D0E0
:100AD00006DC012809D0022809D0042820D109E029
:100AE00041281AD061281BD118E080271BE04FF461
:100AF000806718E00020E5E741466846FFF7BCFF45
:100B000040B99DF80000182804D14FF0FF3028604C
:100B10000020D7E74FF0FF30D4E700BF0120D1E736
:100B20004FF0FF30CEE700BF9DF800002070012697
:100B300009E0A0194146FFF79FFF10B14FF0FF30C9
:100B4000C0E7701C86B2781D8642F2DB6178A0781F
:100B500080F0FF00814202D04FF0FF30B2E72F60FB
:100B60000020AFE72DE9F04FADF23C4D06460020E6
:100B7000CDF82C04CDF83004CDF83404CDF8380489
:100B8000009000F0DAFDF948F94908600020039070
:100B90008346019000BF4FF0000800200290B2464B
:100BA00000BF4FF4801204A909A8FFF77DFF10B120
:100BB00001287DD1E0E04FF0000B0498B0F1FF3F39
:100BC00001D070B907E00620FFF767FF00200DF2A3
:100BD0003C4DBDE8F08F0620FFF75FFF012002903B
:100BE000C8E09DF8250008F0FF01884203D01520D9
:100BF000FFF753FFBEE0B8F1000F6FD19DF827005B
:100C0000002863D000250DF1270405E014F8012B1E
:100C100028466D1CD7490A54207808B1FF2DF5DD10
:100C2000002228466D1CD3490A540025641C05E0A7
:100C300014F8012B28466D1C05A90A542078202899
:100C400001D0102DF4DB002228466D1C05A90A54A2
:100C5000694605A8FFF7F4FB0098B0F5003F08DBF4
:100C60001820FFF71AFF1820FFF717FF4FF0FF308B
:100C7000ADE70098FFF7F1FCBF4908600020BF49CD
:100C8000086010E0BA490968BD4A1288BB4B1B686E
:100C900002FB031001F018F8BA490870B748006861
:100CA000401CB6490860B5480068B349096800E0CF
:100CB0006BE0884203D2B34800780428E2D00620D3
:100CC000FFF7EBFE4320FFF7E8FE4FE00620FFF7BB
:100CD000E4FE0120029003904CE0FFE70DF12701B4
:100CE0005046049A02F05AF8B146002707E00DF288
:100CF0002C41484600F046FD09F1100910370498D0
:100D00008742F4DBA0480660002722E09E48006886
:100D100001689748006801F06DF895480068006820
:100D2000994909680968884208D01820FFF7B5FE7C
:100D30001820FFF7B2FE6FF0010048E78C4800680A
:100D4000001D8B49086090480068001D8E490860AE
:100D50003F1D0498874206DA844900980844844974
:100D600009688842D2D80620FFF797FE08F10108EB
:100D70000120019000BF1CE01820FFF78EFE182014
:100D8000FFF78BFE6FF0020021E70198002801DDDC
:100D90000BF1010BBBF1050F07DD1820FFF77DFEFE
:100DA0001820FFF77AFE002011E74320FFF775FEB9
:100DB00000BF00BF029800283FF4F3AE00BF00BFA1
:100DC000039800283FF4E7AE00BF00BF0098FEE69E
:100DD0000146002070472DE9FE4305460F46904628
:100DE0000120287000206870FF20A870002404E013
:100DF000395DE01C2954601C84B2385D08B1FF2CB9
:100E0000F6DD0021E01C29546846D8F80010FFF7F1
:100E1000EDFA0026201D84B208E03046711C8EB227
:100E20001DF800202046611C8CB22A541DF80600D3
:100E30000028F2D1264603E00020A855701C86B297
:100E4000832EF9DBBDE8FE83F0B5074614461D4648
:100E5000B5F5806F02D34FF4806C01E04FF0800C49
:100E600063469D4201D2AC4600E09C461FFA8CF2DC
:100E7000B3F5806F04D14FF0020C81F800C003E09D
:100E80004FF0010C81F800C04C706FEA040C81F83F
:100E900002C03E46032007E016F801CB01F800C06F
:100EA00000F1010C1FFA8CF002F1030C6045F3DB3A
:100EB0009A420EDC1FFA8CF007E04FF01A0C01F892
:100EC00000C000F1010C1FFA8CF003F1030C604527
:100ED000F3DBF0BD10B503460C46194644F48072AE
:100EE00000BF4900520002F4807000B1491C01F4B7
:100EF000803010B141F22100414002F480300028DE
:100F0000EFD088B210BDF0B505460E460024AF19EB
:100F100005E015F8011BA0B2FFF7DCFF0446BD4257
:100F2000F7D3A0B20021FFF7D5FF044620460021E9
:100F3000FFF7D0FF04462046F0BD30B5024600233F
:100F4000541802E012F8015B2B44A242FAD3D8B243
:100F500030BD70B505460E46002404E0285DFFF75D
:100F60009CFD601C84B2B442F8DB70BD0030000808
:100F70001400002068050020200000201C00002034
:100F80001800002024000020280000202DE9F74F41
:100F9000ADF5A36D00200190814600248046002617
:100FA00006E0DDF81C05805D04A98855701CC6B2FA
:100FB000FF2EF6DB012001900DF5A46204A944A8E0
:100FC000FFF709FF00BF832144A8FFF7C2FF019884
:100FD00060B180210DF21310FFF795FF054628122E
:100FE000FFF75BFDE8B2FFF758FD08E080210DF246
:100FF0001310FFF7A2FF03900398FFF74EFD42F294
:10100000107102A8FFF738FD30B99DF808000628D6
:1010100003D14FF0010800E0641CB8F1000F01D1CA
:101020000A2CD0D30A2C04D3E0B20DF2245DBDE823
:10103000F08FDDF818A5DDF820954FF0010B59E091
:101040000BF0FF024B4644A95046FFF7FDFE4FF060
:10105000000800208DF80800002400BFB9F5806F5B
:1010600002D34FF4806700E08027F81C81B244A8C7
:10107000FFF76FFF019860B139460DF21310FFF7CB
:1010800042FF05462812FFF708FDE8B2FFF705FD0D
:1010900008E039460DF21310FFF74FFF0390039855
:1010A000FFF7FBFC544902A8FFF7E6FCC0B99DF826
:1010B0000800062814D14FF00108B9450CD9BA44EC
:1010C000A9EB0709BBF1740F01D1FF20ADE70BF1CC
:1010D00001001FFA80FB04E0BA444FF0000900E071
:1010E000641CB8F1000F01D10A2CB7D30A2C01D32C
:1010F000E0B29AE7B9F1000FA2D14FF0000800204A
:101100008DF80800002400BF0420FFF7C6FC42F25F
:10111000107102A8FFF7B0FC30B99DF8080006284E
:1011200002D14FF0010800E0641CB8F1000F01D1BA
:101130000A2CE9D30A2C01D3E0B276E74FF000087D
:1011400000208DF80800002401208DF810010020F7
:101150008DF81101FF208DF81201032604E0002014
:1011600044A98855701CC6B2832EF8DB00BF8321CA
:1011700044A8FFF7EEFE80210DF21310FFF7C3FE27
:1011800005462812FFF789FCE8B2FFF786FC42F219
:10119000107102A8FFF770FC30B99DF8080006280E
:1011A00003D14FF0010800E0641CB8F1000F01D139
:1011B0000A2CDCD30A2C01D3E0B236E700BF0420AE
:1011C000FFF76BFC42F2107102A8FFF755FC30B933
:1011D0009DF80800062802D14FF0010800E0641CC9
:1011E000B8F1000F01D10A2CE9D30A2C01D3E0B2E7
:1011F0001BE7002019E70000A08601003EB51CA2F5
:1012000007CA8DE8070000241CA0FFF7A9F92648AB
:10121000FFF7A8FC0446002C13DD24A0FFF7A0F97B
:101220002B48FFF79DF921466846FFF7DFF829A014
:10123000FFF796F96846FFF793F929A0FFF790F9B1
:1012400014E0601C18B928A0FFF78AF90EE0A01C72
:1012500018B934A0FFF784F908E0E01C18B938A0E9
:10126000FFF77EF902E03CA0FFF77AF93EBD0000EF
:101270002020202020202020202000005761697499
:10128000696E6720666F72207468652066696C6598
:101290002870726573732027612720746F20616244
:1012A0006F7274290D0A0000680B00200D0A50723D
:1012B0006F6772616D6D696E6720537563636573E7
:1012C0007366756C6C79210D0A4E616D653A20006C
:1012D000680500200D0A53697A653A200000000075
:1012E00042797465730D0A000D0A54686520696DB2
:1012F0006167652073697A6520697320686967682A
:101300006572207468616E2074686520616C6C6F12
:10131000776564207370616365206D656D6F7279A8
:10132000210D0A000D0A0D566572696669636174C4
:10133000696F6E206661696C6564210D0A000000AA
:101340000D0A41626F72746564206279207573655D
:10135000722E0D0A000000000D0A4661696C65647A
:1013600020746F20726563656976652074686520F6
:1013700066696C65210D0A0010B502460B46002116
:10138000012000BF505419544C1CE1B200F08004FD
:101390000CB11B2400E0002484EA40044440E0B285
:1013A0000128EFD1147882F8FF4010BD70B50246D5
:1013B000002000BF002808DDFE4D2D682D5CC5F122
:1013C000FF05FD4E3668715D00E0002181F0630489
:1013D000042306E04D0045EAE115E9B24C405D1EEC
:1013E000EBB2002BF6DC1454451CEDB2281EE1D103
:1013F00070BD10B502460B460020002100BF00BFA3
:10140000545C844201D11954FF214C1CE4B2211ECA
:10141000F6D1441CE4B2201EF1D110BD017842780F
:10142000027082784270C2788270C1707047042165
:101430000DE0027802F080020AB11B2200E00022D7
:10144000037882EA43020270401C4A1ED1B200298E
:10145000EFDC704718B504466078A1784840E17821
:1014600048408DF800002078A1784840E178484055
:101470008DF80100207861784840E17848408DF887
:101480000200207861784840A17848408DF8030038
:101490002046FFF7CCFF2078617848409DF8001087
:1014A00048408DF800006078A17848409DF8011010
:1014B00048408DF80100A078E17848409DF802107E
:1014C00048408DF802002078E17848409DF80310EC
:1014D00048408DF803002046FFF7A9FF2078A17847
:1014E00048409DF8001048408DF800006078E17891
:1014F00048409DF8011048408DF801002078A178FF
:1015000048409DF8021048408DF802006078E1786C
:1015100048409DF8031048408DF803002046FFF72F
:1015200086FF6078A1784840E178484021784840BB
:1015300020709DF80000217848408DF800009DF84B
:101540000100217848408DF801009DF802002178C3
:1015500048408DF802009DF80300217848408DF83E
:1015600003009DF8000020709DF8010060709DF858
:101570000200A0709DF80300E07018BD00BF027863
:101580008E4B1B689A5C0270401C4A1ED2B2111E20
:10159000F5D1704710B500BF0378894CE35C0C7837
:1015A00063400370401C491C531EDBB21A1EF3D16A
:1015B00010BD417B427A4273427942724278427155
:1015C00041708178827A827081728179827B8271A6
:1015D0008173C178C279C270C27AC271C27BC27291
:1015E000C173704710B500BF03780C786340037077
:1015F000401C491C531EDBB21A1EF5D110BD00BFA2
:101600000B780370401C491C531EDBB21A1EF7D125
:1016100070477CB504466BA0006800906A4E202598
:1016200000BF30782070641C761C681EC0B2051E96
:10163000F7D1211F042201A8FFF7E1FF202546E092
:10164000E91705EBD1614911A5EB4111D9B901A801
:10165000FFF7E4FE042101A8FFF790FF042269468A
:1016600001A8FFF7BFFF9DF8000000F0800008B15F
:101670001B2000E000209DF8001080EA4100C0B26D
:101680008DF800000BE0E91705EBD1614911A5EBDE
:101690004111102903D1042101A8FFF76FFFA4F124
:1016A0002001042201A8FFF79DFF9DF8040004F823
:1016B000010B9DF8050004F8010B9DF8060004F8E5
:1016C000010B9DF8070004F8010B281DC5B2F02D91
:1016D000B6DB7CBD2DE9F04105460C464FF00D0808
:1016E000E034102221462846FFF77CFF103C00BF63
:1016F0002846FFF75EFF102221462846FFF74AFFE3
:10170000103C0426002706E0E819FFF7A3FE701E30
:10171000C6B2381DC7B2002EF6DCA8F10100C0B277
:10172000B0F10008E4D12846FFF743FF102221461C
:101730002846FFF72FFFBDE8F08100B523481E497A
:1017400008601F481B490860084601681A4800687D
:10175000FFF712FE1E481949086008460068FFF7A7
:1017600025FE1A481B49086008460068FFF751FF2C
:101770001348194908600846016810480068FFF7D7
:1017800038FE00BD30B504460D46102221461048F3
:10179000FFF735FF0F4801682046FFF79BFF102237
:1017A00029462046FFF71EFF102209492846FFF769
:1017B00026FF30BD300000202C0000203400002027
:1017C0006810002001000000022F0008680F0020B0
:1017D000681100203C0000203800002010B50246AF
:1017E0000B46012100200EE001EA030404B1504041
:1017F0004C06210E02F080040CB11B2400E00024F2
:1018000084EA4204E2B20029EED110BDF0B50446EC
:101810000D460026042708E015F8011B14F8010BFB
:10182000FFF7DCFF4640781EC7B2002FF4DC3046DD
:10183000F0BD1EB5044653A103C9CDE901012146FF
:1018400001A8FFF7E3FF8DF8000021460DF1070026
:10185000FFF7DCFF8DF8010021460DF10600FFF7D0
:10186000D5FF8DF8020021460DF10500FFF7CEFFF0
:101870008DF80300042269462046FFF7C0FE1EBD16
:10188000417842794270427A4271427B427241739E
:101890008178827A827081728179827B8271817390
:1018A000C17BC27AC273C279C272C278C271C1707E
:1018B00070472DE9F04105460C464FF00D08102207
:1018C00021462846FFF78EFE103400BF102128461F
:1018D000FFF754FE2846FFF7D3FF0426002706E053
:1018E000E819FFF7A6FF701EC6B2381DC7B2002E5A
:1018F000F6DC102221462846FFF774FE1034A8F1CA
:101900000100C0B2B0F10008E0D110212846FFF775
:1019100035FE2846FFF7B4FF102221462846FFF780
:1019200061FEBDE8F08100B5184819490860194802
:10193000194908600846016815480068FFF71CFD52
:1019400014481649086008460068FFF72FFD0F4845
:101950001349086008460068FFF75BFE00BD30B51C
:1019600004460D46102229462046FFF73BFE0C4850
:1019700001682046FFF79DFF102221462846FFF709
:101980003EFE30BD0203010102030101680F002089
:101990002C000020681000203000002034000020BF
:1019A0003C0000202DE9F043054616461F46084638
:1019B0004FF0000C002423E0002319E003F101089C
:1019C00005FB08F804F10109B8FBF9F28A4202D9D3
:1019D000A2EB010801E0A1EB02084246904202D9C5
:1019E000104633703C7010B94FF0010C02E05B1CE4
:1019F000402BE3D300BFBCF1000F00D002E0641C19
:101A0000042CD9D300BFBDE8F0833FB5002003907C
:101A1000012002905F4860490860029801287CD14B
:101A20005E48006840F010005C49086008460068A5
:101A300020F00700086058480068401E5849B0FB75
:101A4000F1F4072C00D90724544800682043534977
:101A500008605448406853494860084640684860F8
:101A60000846406848600846406820F440304860B6
:101A70004D4C0846406820F4803048606B4601AA0F
:101A8000454801682046FFF78DFF46480068C0F3CF
:101A90001300444908609DF8040080069DF800107A
:101AA00040EA01503F49096808433E49086008463A
:101AB000006B40F0805008633C48006840F4803080
:101AC0003A4908600846006840F44040086000BF9A
:101AD0003648406800F480300028F9D0314800686A
:101AE00040F080702F49086000BF2E48006800F069
:101AF00000700028F9D000BF2C48006840F4003086
:101B00002A4908600846406800F400300028F3D0F5
:101B10004FF47A7500BF281E00E014E0A5F101051E
:101B2000F9D12048406820F003001E49486008466B
:101B3000406840F00200486000BF1A48406800F06A
:101B40000C000828F9D13FBD00B516484068184977
:101B50000840144948600846006816490840114981
:101B600008600846006820F4802008600846406845
:101B700020F4FE00486008460068C0F313000860C7
:101B80004FF41F008860FFF740FF4FF000600A49E4
:101B9000086000BD006CDC02500000200020024004
:101BA00000366E0100100240001BB70000700040BC
:101BB0000C00FFF8FFFFF6FE08ED00E00948804743
:101BC00009480047FEE7FEE7FEE7FEE7FEE7FEE71F
:101BD000FEE7FEE7FEE7FEE704480549054A064B37
:101BE00070470000491B0008B5010008C81200201A
:101BF000C8180020C8140020C814002008B5002010
:101C00000090FF20009002E00098401E0090009895
:101C10000028F9D108BD01460020F84A106800F0FC
:101C20003800084310607047F449096821F0080142
:101C3000F24A116011460968014311607047EF498B
:101C4000096821F01001ED4A11601146096801434D
:101C500011607047EA48E9494860EA4848607047BF
:101C6000E648006940F08000E449086170470420BC
:101C7000E249C96801F0010109B101200EE0DF4924
:101C8000C96801F0040109B1022007E0DB49C96815
:101C900001F0100109B1032000E00420704770B585
:101CA00004460425FFF7E3FF054605E0FFF7A6FF1E
:101CB000FFF7DDFF0546641E012D01D1002CF5D193
:101CC00004B90525284670BD70B50546042440F6C4
:101CD000FF70FFF7E4FF0446042C19D1C7480069E0
:101CE00040F00200C549086108464561006940F0BE
:101CF0004000086140F6FF70FFF7D1FF0446012C59
:101D000006D0BE48006943F6FD710840BB49086132
:101D1000204670BD10B504246006B849486140F6FD
:101D2000FF70FFF7BCFF0446042C18D1B3480069CC
:101D300040F00400B14908610846006940F04000E5
:101D4000086140F6FF70FFF7AAFF0446012C06D099
:101D5000AA48006943F6FB710840A849086120467B
:101D600010BD10B50424A848A44948614014FFF7E9
:101D700096FF0446042C3BD1A148A0498860A148A5
:101D800088600846006940F0200008610846006944
:101D900040F04000086140F6FF70FFF780FF044606
:101DA000042C1CD19548006943F6DF710840934923
:101DB00008610846006940F010000861A5209249BA
:101DC00008800F20FFF76BFF0446012C10D08B48D2
:101DD000006943F6EF7108408849086108E0012C6A
:101DE00006D08648006943F6EF71084083490861D0
:101DF000204610BD70B505460E4604240F20FFF79F
:101E00004EFF0446042C25D17C48006940F00100B7
:101E10007A4908612E800F20FFF741FF0446042C09
:101E20000FD1300C68800F20FFF739FF0446012CDA
:101E300010D07248006943F6FE7108406F4908618E
:101E400008E0012C06D06D48006943F6FE71084099
:101E50006A490861204670BD70B505460E460424E7
:101E60000F20FFF71CFF0446042C13D163480069C0
:101E700040F00100614908612E800F20FFF70FFF3D
:101E80000446012C06D05D48006943F6FE71084007
:101E90005A490861204670BD70B505460E460424B7
:101EA0000F20FFF7FCFE0446042C17D15448534979
:101EB0008860544888600846006940F01000086156
:101EC0002E800F20FFF7EBFE0446012C06D04B4876
:101ED000006943F6EF71084048490861204670BD2B
:101EE0002DE9F04704464FF6FF763746B046B14637
:101EF0000425E443E6B2C4F30727C4F307484FEAD6
:101F000014690F20FFF7CBFE0546042D40D13C4855
:101F10003A4988603B4888600846006940F01000F4
:101F20000861FF2E06D03848083006800F20FFF7E2
:101F3000B6FE0546042D08D1FF2F06D032480A30E0
:101F400007800F20FFF7ABFE0546042D0AD1B8F13C
:101F5000FF0F07D02C480C30A0F800800F20FFF7AF
:101F60009EFE0546042D0AD1B9F1FF0F07D0264881
:101F70000E30A0F800900F20FFF791FE0546012DCE
:101F800006D01E48006943F6EF7108401B490861FE
:101F90002846BDE8F08770B5054604241A4817495D
:101FA00048614014FFF77BFE0446042C49D11448D5
:101FB00012498860134888600846006940F0200094
:101FC00008610846006940F04000086140F6FF7073
:101FD000FFF765FE0446042C2AD10848006943F641
:101FE000DF710840054908610846006940F01000AB
:101FF00008615DB10020044908800AE00020024029
:1020000023016745AB89EFCD00F8FF1FA5204049AC
:10201000088040F6FF70FFF742FE0446012C10D006
:102020003C48006943F6EF7108403A49086108E00E
:10203000012C06D03748006943F6DF710840354966
:102040000861204670BD2DE9F04107460D46164651
:10205000042431482F498860304888600F20FFF7FA
:102060001EFE0446042C1AD12A48006940F01000D4
:102070002849086147EA0500304340F0F800244948
:10208000891C08800F20FFF70AFE0446012C06D0A9
:102090002048006943F6EF7108401E490861204658
:1020A000BDE8F0811B48C069800870471948006A84
:1020B000704700201749096801F0200109B101208B
:1020C00000E00020704729B1124A12690243114B07
:1020D0001A6104E00F4A126982430E4B1A6170477D
:1020E00001460020012908D10A4AD26902F0010202
:1020F0000AB1012008E0002006E0064AD2680A4042
:102100000AB1012000E0002070470249C860704712
:1021100000F8FF1F0020024023016745AB89EFCD87
:1021200010B504469249601A8C4220D006DCB4F106
:10213000904F0AD08F482044A0BB0FE0B0F5806FCD
:102140001ED0B0F5006F2ED123E00121084600F02B
:10215000ECFB0021012000F0E8FB25E0012102203A
:1021600000F0E3FB0021022000F0DFFB1CE0012176
:10217000042000F0DAFB0021042000F0D6FB13E07D
:102180000121082000F0D1FB0021082000F0CDFB48
:102190000AE00121102000F0C8FB0021102000F00F
:1021A000C4FB01E0FFE700BF00BF10BD2DE9F04117
:1021B000024600250026002000230024002791F875
:1021C00003C00CF00F0591F803C00CF0100CBCF12B
:1021D000000F03D091F802C04CEA050591F800C049
:1021E000BCF1000F31D0146800202BE04FF0010C3F
:1021F0000CFA00F3B1F800C00CEA03069E4220D1AD
:1022000083004FF00F0C0CFA03F7BC4305FA03FCF4
:102210004CEA040491F803C0BCF1280F06D14FF03A
:10222000010C0CFA00FCC2F814C00AE091F803C0DB
:10223000BCF1480F05D14FF0010C0CFA00FCC2F8BC
:1022400010C0401C0828D1D31460B1F800C0BCF104
:10225000FF0F34DD546800202EE000F1080C4FF031
:10226000010808FA0CF3B1F800C00CEA03069E421C
:1022700021D183004FF00F0C0CFA03F7BC4305FA91
:1022800003FC4CEA040491F803C0BCF1280F05D10B
:1022900000F1080C08FA0CF8C2F8148091F803C099
:1022A000BCF1480F07D100F1080C4FF0010808FA03
:1022B0000CF8C2F81080401C0828CED35460BDE84A
:1022C000F0814FF6FF710180022181700421C170FD
:1022D00070470246002093680B400BB1012000E0DC
:1022E000002070470146886880B27047024600208F
:1022F000D3680B400BB1012000E00020704701467D
:10230000C86880B2704701617047416170470AB187
:10231000016100E041617047C16070474FF4803255
:102320000A43826181618261826982697047F0B586
:10233000002300244D07ED0E02FA05F3CD105DB920
:10234000056A4E07F70E0F26BE40B5430562056AC3
:1023500045EA030404620AE0456A4E07F70E0F26B9
:10236000BE40B5434562456A45EA03044462F0BD98
:102370000008004800FCFFB734490143344A1160AB
:10238000704770B5002100230F22C47804B3304C8D
:10239000246804F4E064C4F5E064210AC1F1040394
:1023A000CA40447804FA03F18478144021430901B7
:1023B000284C0678A155047804F01F050124AC4090
:1023C00005786D11AD0005F1E025C5F8004109E083
:1023D000047804F01F050124AC401F4D06787611E7
:1023E00045F8264004786411A40004F1E024D4F8F0
:1023F000003170BD194A0A400243154B1B1F1A6079
:10240000704739B1124A121D12680243104B1B1D4E
:102410001A6006E00E4A121D126882430C4B1B1D07
:102420001A607047042808D14FF0E021096941F093
:1024300004014FF0E022116107E04FF0E02109694B
:1024400021F004014FF0E022116170470000FA050D
:102450000CED00E000E400E080E100E080FFFF1F01
:10246000FE48006840F00100FC49086008464068EA
:10247000FB490840F949486008460068F9490840A6
:10248000F64908600846006820F480200860084685
:10249000406820F4FE004860002088607047EF49E3
:1024A000096821F48031ED4A11601146096821F470
:1024B00080211160B0F5803F03D0B0F5802F0ED1A0
:1024C00006E0E649096841F48031E44A116007E01A
:1024D000E249096841F4A021E04A116000E000BF30
:1024E00000BF704710B501460022002300204A11AA
:1024F000012A02D1D94C236806E0022A02D1D74C26
:10250000636B01E0D54CA36B01F01F0201249440E2
:102510001C400CB1012000E0002010BD38B50020A7
:1025200000900024002500BF3120FFF7DBFF0546A7
:102530000098401C00901DB90098B0F5A06FF3D131
:102540003120FFF7CFFF08B1012400E0002420462E
:1025500038BD01460020C14A106820F0F80040EA6A
:10256000C10010607047012806D1BC49096841F0DC
:102570000101BA4A116005E0B849096821F001017A
:10258000B64A1160704710B503460020B34C20686E
:10259000B54C20408C0644EA02542043AF4C2060E6
:1025A00010BD70B506460C460025AC48456825F4BC
:1025B0007C153543456024B9032207213046FFF7D7
:1025C000E2FFB4F5802F04D1012205213046FFF748
:1025D000DAFFB4F5002F04D1012207213046FFF7BE
:1025E000D2FFB4F5402F04D1012209213046FFF774
:1025F000CAFFB4F5801F04D101220B213046FFF73A
:10260000C2FFB4F5A01F04D101220D213046FFF70F
:10261000BAFFB4F5C01F04D101220F213046FFF7E5
:10262000B2FFB4F5E01F04D1012211213046FFF7BB
:10263000AAFFB4F5001F04D1012213213046FFF791
:10264000A2FFB4F5101F04D1012215213046FFF777
:102650009AFFB4F5201F04D1012217213046FFF75D
:1026600092FFB4F5301F04D1012219213046FFF743
:102670008AFFB4F5401F04D101221B213046FFF729
:1026800082FFB4F5501F04D101221D213046FFF70F
:102690007AFFB4F5601F04D101221F213046FFF7F5
:1026A00072FFB4F5681F04D1012208213046FFF7FC
:1026B0006AFFB4F5741F04D1022203213046FFF7EC
:1026C00062FF70BD30B16549096841F08071634AAD
:1026D000116005E06149096821F080715F4A11606D
:1026E0007047014600205D4A506820F0030008430F
:1026F000506070475948406800F00C007047014630
:102700000020564A506820F0F0000843506070479F
:1027100001460020514A506820F4E06008435060B0
:102720007047014600204D4A506820F4605040EA4E
:10273000C1005060704731B1484A926842EA0022B5
:10274000464B9A6005E0454A926822EA0022434BD4
:102750009A607047414949680143404A5160704757
:102760003E49C96B01433D4AD16370470146002091
:102770003A4A506820F44040084350607047374957
:10278000496B21F00101354A51631146496B21F033
:1027900001015163012802D004280ED106E02F491F
:1027A000496B41F001012D4A516307E02B49496B08
:1027B00041F00501294A516300E000BF00BF7047A6
:1027C00030B12649896B41F00101244A916305E04B
:1027D0002249896B21F00101204A916370471F490A
:1027E000496B01431D4A5163704730B11B49496B26
:1027F00041F40041194A516305E01849496B21F43D
:102800000041164A51637047F0B5002100240023AF
:1028100000250022114E766806F00C0121B1042932
:1028200005D0082939D105E0104E066038E00F4E7A
:10283000066035E0094E3668012707EB9664074EBF
:102840003668C6F30256731C044E766806F480356B
:1028500095B9074E6643B6FBF3F60BE00010024055
:102860000000FFF8FFFFF6FEFFFF8F0300127A0063
:10287000001BB70006600FE0824E766806F4003653
:102880002EB1814E6643B6FBF3F6066004E07F4E40
:102890006643B6FBF3F6066002E07C4E066000BFBE
:1028A00000BF784E766806F0F0010909784E725C38
:1028B0000668D6404660734E766806F4E061090A01
:1028C000734E725C4668D64086606E4E766806F43B
:1028D0006051C90A6E4E725C4668D640C660694E49
:1028E000766806F44041890B6A4E725CC668B6FB96
:1028F000F2F60661F0BD29B1624A126A0243614BE9
:102900001A6204E05F4A126A82435E4B1A627047A1
:1029100029B15C4A526A02435A4B5A6204E0594A4E
:10292000526A8243574B5A62704729B1554A926A9C
:102930000243544B9A6204E0524A926A8243514BDA
:102940009A62704729B14F4AD26A02434D4BDA620C
:1029500004E04C4AD26A82434A4BDA62704729B19A
:10296000484A126B0243474B1A6304E0454A126B14
:102970008243444B1A63704729B1424AD2680243EA
:10298000404BDA6004E03F4AD26882433D4BDA6054
:10299000704729B13B4A126902433A4B1A6104E07D
:1029A000384A12698243374B1A61704729B1354A58
:1029B00052690243334B5A6104E0324A52698243FE
:1029C000304B5A61704729B12E4A926902432D4B10
:1029D0009A6104E02B4A926982432A4B9A617047BC
:1029E00029B1284AD2690243264BDA6104E0254A1C
:1029F000D2698243234BDA617047012806D121490D
:102A0000496B41F480311F4A516305E01D49496B10
:102A100021F480311B4A51637047012806D11949BE
:102A2000096841F40021174A116005E01549096859
:102A300021F40021134A116070471249496821F0BE
:102A4000E061104A51601146496841EA00615160F5
:102A500070470C48806B40F080700A49886370476B
:102A600001460020074A92680A400AB1012000E0AE
:102A7000002070470349896841EA0041014A91609A
:102A8000704700000010024000093D0000127A006B
:102A9000540000206400002010B50446BC49601AB0
:102AA0008C4251D00CDCBB482044E0B1B0F5806FC3
:102AB00023D0B0F5006F2AD0B0F5406F58D130E088
:102AC000B0F5806F4AD0B0F5404F03D0B0F5444F19
:102AD0004ED130E001211020FFF775FF00211020BA
:102AE000FFF771FF45E001214804FFF779FF00215E
:102AF0004FF40030FFF774FF3BE001218804FFF73B
:102B00006FFF00214FF48020FFF76AFF31E00121C1
:102B1000C804FFF765FF00214FF40020FFF760FFB6
:102B200027E001210805FFF75BFF00214FF480102B
:102B3000FFF756FF1DE001212020FFF744FF002191
:102B40002020FFF740FF14E001218807FFF748FF2E
:102B500000214FF08040FFF743FF0AE00121C80742
:102B6000FFF73EFF00214FF00040FFF739FF00E084
:102B700000BF00BF10BD2DE9F04385B004460D46EF
:102B80000026B046B14600272746E66940F2CF103E
:102B90008643A888E9880843298908430643E661F3
:102BA000A66926F01F06A889698908430643A6611D
:102BB0006846FFF729FE7848874202D1DDF80C808D
:102BC00001E0DDF808802868B8FBF0F00609286805
:102BD000B8FBF0F000F00F092662C4F8249005B0AD
:102BE000BDE8F0834FF4165101603021818000214F
:102BF000C18001811821418100218181704721B16B
:102C0000826942F00102826104E082694FF6FE733C
:102C10001A40826170471AB103690B43036102E0F5
:102C200003698B43036170471AB183690B43836166
:102C300002E083698B4383617047CAB202607047C8
:102C400001464868C0B270470246002093680B40B6
:102C50000BB1012000E0002070478268CB439BB29B
:102C60001A408260704702460020D3680B400BB1C7
:102C7000012000E00020704741617047C2694DF6B5
:102C8000FF731A40C261C2690A43C261704721B131
:102C9000C26942F48052C26104E0C2694EF6FF7319
:102CA0001A40C2617047826A02F47F428262826A7D
:102CB0000A4382627047C26A02F47F42C262C26AF9
:102CC0000A43C262704721B1C26942F40062C26124
:102CD00004E0C2694FF2FF731A40C261704721B12C
:102CE000C26942F48072C26104E0C2694FF6FF63B8
:102CF0001A40C2617047B1F5007F04D1C26942F445
:102D00000072C26104E0C2694FF6FF531A40C2610B
:102D1000704721B1C26942F48062C26104E0C269B5
:102D20004FF6FF331A40C261704721B1026B42F483
:102D30008052026304E0026B4EF6FF731A40026396
:102D40007047026B4FF20F031A400263026B42EAB4
:102D500001120263704721B1026B42F0010202636B
:102D600004E0026B4FF6FE731A400263704721B114
:102D7000026B42F00202026304E0026B4FF6FD7345
:102D80001A4002637047C16941F00801C161704790
:102D90000078004000BCFFBF00380140032A40F229
:102DA000308010F0030C00F0158011F8013BBCF1ED
:102DB000020F624498BF11F801CB00F8013B38BF05
:102DC00011F8013BA2F1040298BF00F801CB38BF13
:102DD00000F8013B11F0030300F02880083AC0F02E
:102DE000088051F8043B083A51F804CBA0E80810D9
:102DF000F5E7121D5CBF51F8043B40F8043BAFF30C
:102E00000080D20724BF11F8013B11F801CB48BF65
:102E100011F8012B24BF00F8013B00F801CB48BF9B
:102E200000F8012B704770477047704710B5203A83
:102E3000C0F00B80B1E81850203AA0E81850B1E873
:102E40001850A0E81850BFF4F5AF5FEA027C24BF29
:102E5000B1E81850A0E8185044BF18C918C0BDE820
:102E600010405FEA827C24BF51F8043B40F8043BE9
:102E700008BF7047D20728BF31F8023B48BF11F89E
:102E8000012B28BF20F8023B48BF00F8012B7047F8
:102E9000754600F02BF8AE4605006946534620F013
:102EA0000700854618B020B5FEF796FEBDE8204025
:102EB0004FF000064FF000074FF000084FF0000BF6
:102EC00021F00701AC46ACE8C009ACE8C009ACE8A9
:102ED000C009ACE8C0098D46704710B50446AFF391
:102EE00000802046BDE81040FDF7ABB900487047B0
:102EF0006812002001491820ABBEFEE72600020040
:102F000070479DD2002484602EDA0CDD527B05C10F
:102F10006B01FF17CD6F8C1E3E09CF1F0C7887EF1A
:102F20008AEC00002E2E2E616E642061205379738E
:102F300074656D2052657365742077696C6C2062CE
:102F4000652067656E65726174656420746F2072B8
:102F5000652D6C6F616420746865206E6577206FE5
:102F60007074696F6E2062797465730D0A000000D9
:102F7000902F00080000002068000000F001000809
:102F8000F82F000868000020601800000C020008FC
:102F90000000000000000000000000000000000031
:102FA00000000000003000080004000000000000E5
:102FB000000000000400000000000000000000000D
:102FC0000000000000000000000000000000000001
:102FD00000000000000000000102030406070809C9
:102FE000006CDC0200000000010203040102030483
:082FF0000607080902040608A7
:04000005080001B539
:00000001FF
