:020000040800F2
:10101000E80B0020F1110008151700081717000849
:1010200000000000000000000000000000000000C0
:101030000000000000000000000000001917000878
:1010400000000000000000001B1700082317000824
:1010500021120008211200082112000821120008A4
:101060002112000833170008211200083D1700085C
:1010700000000000211200082112000821120008BF
:101080002112000821120008211200082112000874
:1010900021120008000000000000000021120008DA
:1010A000000000002112000821120008211200088F
:1010B000000000002112000821120008211200087F
:1010C0002112000821120008211200082112000834
:1010D0000348854601F01EFC00480047AB27000886
:1010E000E80B002070B53B4CA0690C252843A0619B
:1010F000206801210843206060683749084060602B
:10110000206836490840206020680121890488430E
:10111000206060687F2109048843606020680003C4
:10112000000B20609F200004A06000F01AF8092046
:10113000C006416AFF22120591434162026A2849B2
:101140000A430262426A274B1A4342622648026AF5
:101150000A430262426A0A434262A069A843A0614C
:1011600070BD10B51B480021026801231A430260BC
:1011700002689207FCD501225202426042680123B4
:101180001B049A43426003680122120693430360E2
:1011900003681F24A406A343036003680324A40672
:1011A00023430360114C112323600368134303603E
:1011B00002689201FCD5426892089200426042683F
:1011C00002231A43426002E041680907890F02299D
:1011D000FAD110BD001002400000FFF0FFFFF6FE44
:1011E0007777777777770770000400480020024010
:1011F0000C4880F308880C480168090E0B4A91429C
:1012000005D10B480B4901600B480C4901600C48A3
:1012100080470C480047FEE7FEE7FEE7FEE7FEE7F3
:10122000FEE70000E80B0020040000001F000000A3
:101230001810024001000000000001400000000002
:10124000E5100008D1100008F74910B5401E88428B
:1012500001D9012010BDF5494861F5480722C3694D
:101260001B021B0A4C042343C361002088610A61EE
:1012700010BD10B5082101F011F910BD10B5ED49F0
:1012800001F00CF910BD10B5102101F007F910BDE7
:10129000E84910B5083901F001F910BDF3B585B082
:1012A000E549059888424FD105140121284600F0F0
:1012B000C8FFE14A20321189E0480143118103202F
:1012C0000121400400F0ABFFDD4F04220C21384621
:1012D00000F054FD04220D21384600F04FFD03229A
:1012E0000E21384600F04AFD01220F21384600F059
:1012F00045FD6E0068460680032484701021C1708D
:101300006946384600F0C0FC3146384600F021FD01
:101310006846058084701825C5706946384600F017
:10132000B3FCB110684601808470C57069463846C8
:1013300000F0AAFCF1106846018084704821C17059
:101340006946384600F0A0FC04206A4690800020E0
:10135000D08008211181508101219181D08106998D
:101360001182508201A9059800F0E5FF012105983E
:1013700001F018F80598FFF77CFF0598FFF783FF49
:1013800007B0F0BD30B5AF4900220B6801242343FC
:101390000B600B689B07FCD501235B024B604B681D
:1013A00001242404A3434B600C6801231B069C43C7
:1013B0000C600C681F25AD06AC430C600C683F2523
:1013C0008006AD06401904430C609F4C112020603C
:1013D00008681843086008688001FCD548688008E0
:1013E00080004860486802231843486002E048686B
:1013F0000007820F022AFAD130BD10B50420FFF792
:10140000C1FF022000F05BFE00F060FE0828FBD167
:1014100010BD10B5FFF7F1FF8C48FFF715FF10BDA9
:1014200010B5002000F04BFE00F050FE0028FBD16C
:101430008448016801221206914301607D208001E9
:10144000FFF702FF10BD8148FEE6FF2209210132AD
:10145000C906002801D04A6170470A61704701221D
:1014600052027749002801D04A6170470A617047EB
:1014700002227349002801D04A6170470A6170470F
:10148000734A10B50020530481008C182469C918D0
:10149000401C0C603028F7D36A488169012211434F
:1014A00081616C48016803221143016010BDF0B5F1
:1014B00085B0FFF7E5FFFFF7A0FF6448FFF7C4FE24
:1014C00008215D48FFF7EAFE03200121400400F0F7
:1014D000A6FEFF2501356846058002248470482653
:1014E000C6706946564800F0CFFB370605220A2130
:1014F000384600F043FC584968460180C67069468A
:10150000384600F0C1FB05220821384600F036FCC1
:101510006846058084701026C6706946384600F01B
:10152000B3FB4E49684601808470C67069464448E2
:1015300000F0AAFB0120FFF788FF0121084600F018
:1015400077FE0121080700F07CFE0021084601F02B
:1015500020F80B21002001F01CF80821012001F0E7
:1015600018F802950021684601730C21417301258A
:10157000857302A800F0FBF805216846017103217C
:101580004171857101A800F031FC072168460171A5
:101590004471857101A800F029FC31480168254A91
:1015A000921D114001602F4821490078091F012830
:1015B00007D0022803D1086904221043086105B04E
:1015C000F0BD0869FB221040F8E71B490860088954
:1015D000C007FCD008898007FCD54868C0B27047B6
:1015E00010B50121C903164800F0B5FB10BD10B5B8
:1015F0000121C903124800F0ACFB10BD704710B5C3
:1016000072B6002000F05BFD00F060FD0028FBD109
:101610000C48016801221206914301607D2080017F
:10162000FFF712FE62B610BDFFFFFF0000E000E012
:1016300004ED00E0F7FF0000003800400100FFFF6C
:1016400000040048001002400020024080BB00005F
:101650000010000800000140010C00000202000020
:1016600000700040C000002010B502F01DFCDAE759
:1016700072B622484178491C417070471F4948782A
:10168000401E0006000E487001D1487062B67047D7
:1016900010B51B4800F050FBC005C017401CC2E746
:1016A0001848704718487047F8B51F0016460D4691
:1016B000044613D000F0D1F810E0E0780102A078E1
:1016C0000843010260780843217800020143304654
:1016D00000F084F92D1F241DADB2361D042DECD26F
:1016E000002F01D000F0BFF8F8BDBFF34F8F0849BD
:1016F0000648C860BFF34F8FFEE77047C000002068
:101700000004004800000108001000080400FA0569
:1017100000ED00E07047FEE7704770470E48006834
:10172000704710B50C480168491C016002F066F969
:1017300010BD10B5012000F070F810BD10B50120EB
:10174000C00200F06AF8FF20013000F066F80020C7
:1017500002F06CF910BD0000C400002030480021E8
:10176000016041608160C1602E494161704710B5E0
:1017700083792B490268002B26D00B6893430B60BA
:101780004A6803689A434A600279521813680468E9
:10179000234313608A6803689A438A60CA680368AF
:1017A0009A43CA604279102A05D051180A68006825
:1017B00002430A6010BD8A6803681A438A60CA68D7
:1017C00000680243CA6010BD007940180168914367
:1017D000016010BD0021016001710C224271817114
:1017E00070470F490A6902430A6170470C4A014673
:1017F000526900200A4200D0012070470849486120
:101800007047074B0246196800205B69114013427C
:1018100002D0002900D0012070470149486170477B
:1018200000040140FFFF1F00FA4A116838231940E5
:10183000014311607047F7490A6808239A430A6018
:101840000A6802430A607047F2490A6810239A4303
:101850000A600A6802430A607047EE48EE49416038
:10186000EE4941607047EB480169802211430161F4
:101870007047E8490420CA68D20701D001207047A8
:10188000CA68520701D502207047C968C906FBD54E
:101890000320704718B50346FFF7EBFFFF2407E06E
:1018A00020460094401E0090FCD1FFF7E2FF5B1E33
:1018B000012803D0002B00D1052018BD002BEFD14B
:1018C000FAE770B5D64E05463046FFF7E3FF042829
:1018D00012D1D04C20690221084320616561206942
:1018E0004021084320613046FFF7D4FF012803D090
:1018F0002169CC4A1140216170BD30B5C84D2846E0
:10190000FFF7C8FF042812D1C24C20690421084304
:10191000206120694021084320612846FFF7BAFF73
:10192000012804D02169BF4A921E1140216130BDB7
:1019300070B5B84CBC4D65616E143046FFF7AAFF18
:10194000042825D1B448A060B448A06020692021B3
:101950000843206120694021084320613046FFF799
:1019600099FFB04E0E3E04280DD12069AD491E39B5
:10197000084020612069102108432061A5202880AB
:101980000F20FFF787FF012802D021693140216134
:1019900070BD30B59F4CA54860612069A4490843DB
:1019A00020619F4D2846FFF775FF042815D19A48FE
:1019B000A0609A48A0602069202108432061206926
:1019C0004021084320612846FFF764FF012804D026
:1019D0002169944A0E3A1140216130BDF0B50646A6
:1019E0000D460F20FFF756FF042816D1894C2069B9
:1019F00001210843206135800F20FFF74BFF894FFD
:101A00007F1C042804D1280C70800F20FFF742FFB0
:101A1000012802D0216939402161F0BD70B5064628
:101A20000D460F20FFF736FF04280FD1794C2069AF
:101A300001210843206135800F20FFF72BFF01288B
:101A400004D02169774A521C1140216170BD70B5E4
:101A500006460D460F20FFF71DFF042813D16D4CDD
:101A60006D48A0606D48A060206910210843206186
:101A700035800F20FFF70EFF012804D02169694A45
:101A80000E3A1140216170BDF0B5C04301040E0E45
:101A90000102C7B2040E0D0E0F20FFF7FBFE042853
:101AA00032D15C495C4A8A605C4A8A600A691023C8
:101AB0001A430A61FF2F06D05B4807810F20FFF70A
:101AC000E9FE042818D1FF2E06D0574846810F2082
:101AD000FFF7E0FE04280FD1FF2D06D05248858184
:101AE0000F20FFF7D7FE042806D1FF2C06D04E4862
:101AF000C4810F20FFF7CEFE012805D0454A1169A9
:101B0000484B0E3B19401161F0BD70B5444D06467F
:101B10002846FFF7BFFE042818D13E4C3E48A0607F
:101B20003E48A060206920210843206120694021AF
:101B3000084320612846FFF7ADFE3A491E390428C4
:101B400005D0012802D022690A40226170BD2069B7
:101B50000840206120691021084320613248002E8E
:101B600001D0002100E0A52101802846FFF792FE68
:101B70000128EBD021692B4A0E3A1140216170BD3A
:101B8000F0B50546234C244816460F46A06023486E
:101B9000A0600F20FFF77EFE042813D120691021DA
:101BA000084320613D433543F82005431E484580E6
:101BB0000F20FFF76FFE012804D02169194A0E3A61
:101BC00011402161F0BD1348C06980087047114879
:101BD000006A70470F490020C969890700D50120B4
:101BE00070470C4900200968890600D5012070471C
:101BF000084A0029116901D0014300E081431161C5
:101C0000704701460020034A012913D0D2680A42D6
:101C100013D170470020024023016745AB89EFCD07
:101C2000FF0F0000FD1F000000F8FF1F00F4FF1F62
:101C30000000BAA5D169C907EBD00120E9E7014945
:101C4000C860E6E700200240172110B5C906401819
:101C500011D001218902401A10D0401A11D08842B7
:101C600008D101218402204600F0D9FA0021204643
:101C700000F0D5FA10BD01214C04F4E701218C04D9
:101C8000F1E70121CC04EEE7F0B5CC780022230780
:101C90001B0FE40601D58C7823430C782406240E10
:101CA0001AD0046801250E8895402E40AE420FD10F
:101CB00097000F26BE40B4431E46BE403443CE7844
:101CC000282E02D0482E02D002E0456100E00561D6
:101CD000521C082AE6D304600A88FF2A1CD94468EB
:101CE0000022164608360125B5400E882E40AE4229
:101CF0000ED197000F26BE40B4431E46BE4034436B
:101D0000CE78282E00D14561CE78482E00D10561CD
:101D1000521C082AE5D34460F0BD0021C94301806C
:101D2000022181700421C170704702469268002030
:101D30000A4200D001207047806880B27047024696
:101D4000D26800200A4200D001207047C06880B2EB
:101D500070470161704741617047002A01D00161FD
:101D6000704741617047C1607047012212040A4305
:101D70008261816182618169806970474B0710B51A
:101D8000DB0E9A40CC080F219940002C06D0436A04
:101D90008B434362416A1143416210BD036A8B4326
:101DA0000362016A1143016210BD00000C49086022
:101DB00070470B4948607047094988607047084977
:101DC0000848086070470649074808607047044A99
:101DD0000146D26800200A4200D00120704700006E
:101DE00000300040AAAA0000CCCC000030B58278B8
:101DF00001240178002A15D08B08184A9B009A18F4
:101E000013688907C90EFF258D40AB434578AD07A0
:101E10002D0E8D401D4315600078C006C00E844015
:101E20000F4804E0C806C00E84400D4880300460AE
:101E300030BD70470B4A0029116901D0014300E011
:101E4000814311617047042207490428086902D0C0
:101E50009043086170471043FBE7000000E400E096
:101E600000E100E000ED00E000E000E0F84801687B
:101E70000122114301604168F64A11404160016846
:101E8000F54A11400160016801229204914301600A
:101E900041687F22120491434160002181607047B4
:101EA00010B5EB490B680122120493430B600B68D9
:101EB0009400A3430B60801A09D0032212049042BD
:101EC00004D10868052212041043086010BD086898
:101ED000FAE7034600205909DD4A01290AD0022900
:101EE0000AD0516ADA06D20E012393400B4200D089
:101EF000012070471168F5E7116AF3E718B5002073
:101F00000524240200903120FFF7E3FF0099491CCB
:101F10000091002801D1A142F5D13120FFF7D9FF6E
:101F2000002800D0012018BDC94A1168F823994340
:101F3000C000084310607047C5490128086803D0F5
:101F4000400840000860704701221043FAE710B5CE
:101F5000BF4B1868C14C890612052040114301434C
:101F6000196010BD30B50546B9480C4641683F229E
:101F70001204914329434160002C7CD0012080044D
:101F8000844204D1012205212846FFF7E0FF012009
:101F9000C004844204D1012207212846FFF7D7FF5D
:101FA00003208004844204D1012209212846FFF73E
:101FB000CEFF01200005844204D101220B212846D6
:101FC000FFF7C5FF05208004844204D101220D21C2
:101FD0002846FFF7BCFF0320C004844204D101223D
:101FE0000F212846FFF7B3FF07208004844204D165
:101FF000012211212846FFF7AAFF01204005844253
:1020000004D1012213212846FFF7A1FF09208004F3
:10201000844204D1012215212846FFF798FF0520AC
:10202000C004844204D1012217212846FFF78FFF04
:102030000B208004844204D1012219212846FFF795
:1020400086FF03200005844204D101221B2128467B
:10205000FFF77DFF0D208004844204D101221D2161
:102060002846FFF774FF0720C004844206D10122EE
:102070001F21284600E014E0FFF769FF1D204004FF
:10208000844204D1012208212846FFF760FF3D2049
:102090000004844204D1022203212846FFF757FF9F
:1020A00030BD03220721F8E7012269491206002802
:1020B000086801D0104300E0904308607047644A0C
:1020C0005168890889000143516070476048406841
:1020D0000C21084070475E4A5168F0239943014340
:1020E000516070475A4A516807231B0299430143C4
:1020F00051607047564A51680723DB029943C0007C
:10210000084350607047524A00020029916801D08C
:10211000014300E08143916070474D494A680243A2
:102120004A6070474A4A516803239B03994301431D
:102130005160704746490A6A520852000A620A6AA8
:10214000520852000A62012806D0042803D1086A06
:102150000522104308627047086A0122F9E73C49EA
:102160000028486A02D00122104301E040084000E4
:102170004862704736490A6A02430A627047012280
:102180003349D2030028086A01D0104300E090438D
:102190000862704770B52E4D044668680C210840EF
:1021A0002F4903D0042801D0082801D0216017E06E
:1021B00028682968800E49026A68490F01231B04B8
:1021C000401C491C1A4201D1264A05E06A68920364
:1021D00001D5254A00E0224A504300F04DFB206023
:1021E000686822490006000F0A5C2068D0406060E1
:1021F0006A685205520F8A5C0346D340A3606A683E
:102200009204520F895CC840E0606968174A09046B
:10221000890F121F515C00F02FFB206170BD0C4A2A
:102220000029516901D0014300E0814351617047A9
:10223000074A0029916901D0014300E0814391617F
:102240007047034A0029D16912D0014311E0000010
:10225000001002400000FFF8FFFFF6FEFFFF8F03B3
:1022600000127A00001BB70000093D00CC000020DE
:102270008143D1617047244A0029D16801D00143CC
:1022800000E08143D16070471F4A0029116901D0E5
:10229000014300E081431161704701221A49120491
:1022A0000128086A02D09043086270471043FBE798
:1022B00001221549D2040128086802D09043086021
:1022C00070471043FBE710494A6807231B069A43EF
:1022D0004A604A68000602434A6070470A48416AF9
:1022E00001221206114341627047074A0146926873
:1022F00000200A4200D00120704703498A68000488
:1023000002438A607047000000100240904910B5F7
:10231000401806D01F21C90288420BD101210C03AD
:1023200001E001218C032046FFF7A5FF0021204694
:10233000FFF7A1FF10BD10B5028B0F231B031A403E
:102340004B884C8923430C88144323430383838B9A
:102350003F22D2431340CA89CC8822430C891C43B4
:10236000224318231A438283028C8A8902848A8832
:10237000082A07D0828B04231A438283828B082386
:102380001A4382838988818510BD002101804180A4
:1023900008228280C1800122028141810222828141
:1023A000C18170470029018B02D00122114301E055
:1023B00049084900018370470223002A06D0028B96
:1023C0001A430283028A0A4302827047028A8A43BE
:1023D0000282018B994301837047002A028B01D04E
:1023E0000A4300E08A4302837047002A028B01D02F
:1023F0000A4300E08A4302837047828D0160D2B2B3
:10240000082A01D8002A01D10B0A0360102A01D83A
:10241000002A01D10B0C0360182A01D8002A01D12F
:10242000090E0160704741681143828D082A02D865
:10243000828D002A02D1426812021143828D102A35
:1024400002D8828D002A02D1426812041143828D83
:10245000182A02D8828D002A02D140680006014362
:1024600008467047002A028D01D00A4001E0C943A6
:102470000A4302857047374A9142018B02D00122FC
:10248000114301E04908490001837047028B324B38
:102490001A400283028B0A430283704710B5082258
:1024A000082911D01024102911D02A4BDB1F994282
:1024B00002D1038B93430383264A0F3A914202D100
:1024C000018BA143018310BD018B1143FAE7018BFE
:1024D0002143F7E7838D0022082B07D0828D002A45
:1024E0000AD0828D082A07D8012116E00089084207
:1024F00000D0012210467047828D102A01D8022197
:102500000BE0828D182A01D8032106E0828D1F2A54
:1025100002D9828D002A00D1042100890005000F14
:10252000884201D3012070470020704702469289FB
:1025300000200A4200D001207047828A0A4382822A
:10254000704781847047828B0A4382837047000002
:1025500000C8FFBFFEFF0000FFFC00001548016837
:102560008907890F016000218160C16001614161BB
:102570007047104A1168890889000143116070474B
:102580000C4A0029116801D0014300E08143116029
:1025900070478A0710B5120F0F2393408C08054926
:1025A000A40061188C689C438C608B689040034346
:1025B0008B6010BD0000014010B50446504800F08B
:1025C00095F920704E4810BD70B50C460A46054678
:1025D00001464B4800F066F92146284601F0C4FC4C
:1025E00070BD072070471CB50524049BE402A3427C
:1025F00001D1012A0BD0A34212D1122A10D81021E6
:102600000091404B1522122101F016F81CBD3EA18D
:102610000968019102211122009101AB0721F3E722
:1026200000F060FF1CBD10B50C460299142A03D0BF
:10263000214600F057FF10BD184600F065FA10BDA6
:10264000704770473EB514460F2917D004DC09299E
:102650000CD00B2904D10DE0112913D0152919D064
:102660000A460146204600F03DFF3EBD092227A351
:10267000009212E00A2228A300920EE0042229A36D
:1026800000920AE029A20CCA01920293082201AB2F
:10269000009202E0062227A300920A460146204645
:1026A00000F0A2FF3EBD0020704770471DA070479C
:1026B0001348001F0078704770B5114C0025241F87
:1026C0002078002810D06088401C80B26080962856
:1026D0000BD102F063FE142806D97D23DB00002213
:1026E0001021062000F0BEFA658070BD0449091F64
:1026F0000A78904200D008707047704700207047F9
:10270000E00000207E5F00080A1800004D6163723F
:102710006F47696761000000465720202E322E3136
:102720002E31000056312E3000000000123456FFCA
:10273000FE9CBBDE4D67204F5441000048480068B6
:10274000704710B50120FFF742FB0028FAD110BDF9
:1027500010B50220FFF73BFB0028FAD110BD70B581
:1027600004460D460120FFF7FAFC6120FFF7B1FB9C
:102770000028FAD0FFF7E5FF3A4E3046FFF716FB88
:10278000E0B2FFF716FBFFF7E3FF3046FFF70EFB63
:102790002805000DFFF710FBFFF711FBFFF713FBF8
:1027A00070BD10B5FFF70BFB10BD0324E404641EDD
:1027B000FDD2FEF77CFE2C492C4A00200B5C401C0D
:1027C0001C199042FADBFF252D35002C2CD000245B
:1027D0000020FEF744FE284600F036F80120FEF700
:1027E0003EFE284600F030F8641C062CF0DB00F0BA
:1027F0008BFA1B49432001F08BFE1B480721C01FA9
:1028000001F078FB16480B21001D01F089FB1848E8
:102810000021016001680529FCD3FF20413001F04F
:1028200055FBFEF721FFFCE70020FEF718FE2846C7
:1028300000F00AF80120FEF712FE284600F004F826
:10284000641C052CF0DBD2E700220A4B05E00021D6
:1028500000BF491C9942FBD3521C8242F7D37047F8
:10286000F800002055550000C55F0008D859000049
:10287000C40000201027000030B50B4601460020A0
:102880002022012409E00D46D5409D4205D31D4676
:102890009540491B2546954040191546521E002D6E
:1028A000F1DC30BD03460B439B0703D009E008C9A8
:1028B000121F08C0042AFAD203E00B780370401CF0
:1028C000491C521EF9D27047D2B201E00270401C7E
:1028D000491EFBD270470022F6E710B513460A46A0
:1028E00004461946FFF7F0FF204610BD421C017850
:1028F000401C0029FBD1801A704730B504460020E7
:10290000034600E05B1C934203D2E05CCD5C401BBD
:10291000F8D030BD064C0125064E05E0E36807CC33
:102920002B430C3C98471034B442F7D3FEF7D4FB4A
:10293000B8CE0008D8CE000830B58C180278401CFC
:1029400013071B0F01D10378401C120906D102782E
:10295000401C03E005780D70401C491C5B1EF9D13A
:1029600001E00B70491C521EFBD1A142E6D30020AE
:1029700030BD000010B5FEF7D1FE084A116A88424A
:1029800007D2081A518B884203D9054800780028DD
:1029900001D0002010BD012010BD00002401002046
:1029A0008C01002010B50A4C607900280CD0FEF78D
:1029B000B5FEA16A884208D3401A012189028842E3
:1029C00003D200206071012010BD002010BD000066
:1029D0005002002070B5114C0025216A4A78002A67
:1029E00007D04989A289914203D100F0E3FC206A13
:1029F0004570E169487900280ED0C888A2899042C4
:102A00000AD10648A67905223430FFF74BFF02F0C1
:102A1000CFFCE0694571A67170BD000090010020F7
:102A200030B500210F24621A435C855C4554491C73
:102A300083540829F7DB30BD10B503490A6B496B95
:102A40005043FFF719FF10BD5002002010B5044697
:102A500008480849C06A496B002804DB6043FFF757
:102A60000BFF001910BD40426043FFF705FF201A1D
:102A700010BD00005002002013B5684600781322F4
:102A8000104C10402070684642786270002A02D0D4
:102A9000A01CFFF707FF0C480078002807D020781B
:102AA00000A98207920F0748013103F09FF9684699
:102AB00040780449801CC2B20846083801F0BAFBCD
:102AC0001CBD00002C020020E80100200148807895
:102AD00070470000500200200148C0797047000094
:102AE0005002002010B5074CA07A002808D0FEF74D
:102AF00015FE616A884203D30020A072012010BD38
:102B0000002010BD24010020F8B50C46054604291C
:102B10001CD30021084604E02A5C5118401CC9B2AD
:102B2000C0B2A042F8D3FF2901D00220F8BD6878D6
:102B3000214E01022878271F0843002804D0F1887D
:102B400088421BD00120F8BD082C01D20320F8BD1B
:102B50000120F08068792979000201433181FEF774
:102B60009FFDF060B9B2024671810123281DFEF776
:102B70009BFDF0680019001FF0601AE0491CF1800D
:102B8000B9B20123281DF268FEF78EFDF068001926
:102B9000001FF06070890019001F80B270813189B8
:102BA0001031884205D30020F08001F045FEFEF789
:102BB0009CFD0020F8BD00000801002010B5184958
:102BC00018480A68184C824203D1184A1278D20772
:102BD0000DD00860A08A0A21484300F0A3F81248EB
:102BE000183001F090FD10482C3001F061FD206B91
:102BF00001F013FEE08A01F0E7FD607901F07BFD52
:102C0000512001F07DFA7821002001F0E2FA7A21CA
:102C1000002001F0DEFA562001F072FA10BD00002B
:102C20009002002028CD00089001002024010020FF
:102C30001FB502246B461C730A21597306211970B3
:102C40000021597005229A70D97001221A715A71A7
:102C50009C71D9711872000A587219460398FFF7CF
:102C60000BFF1FBDF0B585B002246D462C701024FB
:102C70006C700C242C7100266E710524AC71EE7101
:102C800012242C720F4D2C78002C01D101242C70B1
:102C9000E4B26F467C72641C2C700824BC72FE7215
:102CA0003873000A7873B973080AF8733A74100A13
:102CB0007874BB74180AF87401A90098FFF7DCFE59
:102CC00005B0F0BD8A01002001494870704700003E
:102CD0001002002010B5014606220248FFF7E2FD6F
:102CE00010BD0000FC01002010B50C46282906D2BA
:102CF0000A4601460248FFF7D5FD0248047110BD9F
:102D00005E060020A402002001490120C87170471E
:102D10002401002002490A6A101808627047000066
:102D20002401002070B50446034D0120A872FEF76F
:102D3000F5FC0019686270BD2401002010B5FEF793
:102D40006FFBFEF7EBFC03491E30886201204871DF
:102D500010BD0000500200200521C00109024018EA
:102D600001494860704700009C02002030B474465E
:102D7000641E2578641CAB4200D21D46635D5B0077
:102D8000E31830BC184702E008C8121F08C1002A27
:102D9000FAD170477047002001E001C1121F002ADC
:102DA000FBD17047090710B5090FC00705D00329EB
:102DB00002D1022001F0C0FC10BD054800790028B6
:102DC00002D0FFF7BBFF10BD01F036FD10BD0000C3
:102DD00050020020F8B50746204C002020710878EA
:102DE00016460007000F0D46032802D0052821D102
:102DF00013E0812000013818E06101F0D8FC20695F
:102E000001F066FC6178E06B01F06EFC60780121F6
:102E1000C001C9024018A06114E0E079032809D07C
:102E2000002E07D0284606220D490830FFF765FD21
:102E3000002802D001F000FD04E032462946384661
:102E400000F092FD532001F05BF90649042001F0E7
:102E500093F9562001F054F9F8BD0000500200200B
:102E6000840100209301002070B5394C0646E079BA
:102E7000002823D0A078401CA070A079002801D0A1
:102E80002820A07020790025002808D0606A091A3F
:102E9000206A301A00F0F6FCE5702571A581FF204C
:102EA000193001F091FCA078272815D801F023FCF7
:102EB0000020FFF72FFF01F0CCFC70BD512001F086
:102EC0001FF97821202001F084F9562001F018F92B
:102ED0006420FFF71FFF70BD2520A0706069FFF719
:102EE000B5FD861960698009FFF714FFA089401CB1
:102EF000A0816089301A01F090FCA07801F0FBFB02
:102F0000512001F0FDF87821002001F062F97A21CA
:102F1000002001F05EF9562001F0F2F80D4805227C
:102F20000078D201410041188901891862699142F3
:102F3000D1D2217A491CC9B221721729CBD325726B
:102F4000002802D001F0E8F970BD01F08AF970BDE7
:102F5000500200208D01002010B5094925208870FD
:102F600001F0C9FBFF20193001F02EFC002001F018
:102F7000D8FB01F06EFC002002F016FA10BD000034
:102F80005002002010B50C480078000702D001F074
:102F900053FC10BD782001F017FC012001F0CCFBA0
:102FA00005480E38C1698069081891210901401847
:102FB00001F0FDFB10BD00005E020020F8B50646E2
:102FC0000D46022001F0B8FB2320C001194C28183F
:102FD000E061A17825290AD16289FA2151430818B4
:102FE000E0611001801AFF30193001F0EDFBE0695B
:102FF00001F0DDFB0F486946C0890880009801F0A8
:1030000067FB2178A06B01F06FFB20780121C001E4
:10301000C9024018A061A07825280AD126626562FD
:10302000A089112802D2E078002802D00120E070A7
:103030002071F8BD50020020F0B58BB00F46044659
:10304000002630012278395CC0194A40D8498A5C90
:103050002270237905796B40CB5C2371237A057A42
:103060006B40CB5C2372237B057B6B40CB5C237373
:10307000637845786B409C46637945796B40CB5CBF
:1030800063700193637A457A6B40CB5C6371637BB9
:10309000457B6B40CB5C63726346CB5C6373A57806
:1030A00083785D40AC46A37985796B409E46A57ACE
:1030B000837A5D404B5DA3700093A57B837B5D406D
:1030C0004D5DA57165464B5DA3727346CB5CA373E2
:1030D000E37BC57B6B409C46E37AC57A6B40CB5C57
:1030E000E373E379C5796B40CB5CE372E378C07836
:1030F0004340C85CE0716346C95CE170019B1046C7
:103100005840009B05464B405D40009200F0DEFFBA
:1031100021786840414021706078A178484000F0F3
:10312000D5FF6178684041406170A078E1784840FF
:1031300000F0CCFFA17868404140A170E078009A8F
:10314000504000F0C3FFE17868404140E1702079D1
:103150006279A379E57942406B40154600905D4065
:10316000104600F0B3FF2179684041402171607939
:10317000A179484000F0AAFF61796840414061713F
:10318000A079E179484000F0A1FFA1796840414071
:10319000A171E27900994A40104600F097FFE17969
:1031A00068404140E171207A627AA37AE57A424030
:1031B0006B40154600905D40104600F087FF217A75
:1031C000684041402172607AA17A484000F07EFF59
:1031D000617A684041406172A07AE17A484000F02B
:1031E00075FFA17A68404140A172E27A00994A4095
:1031F000104600F06BFFE17A68404140E172207BAD
:10320000627B0146A37BE57B504002466B40584001
:1032100005461046009100F059FF0146207B6940A9
:1032200048402073607BA17B484000F04FFF01467F
:10323000607B694048406073A07BE17B484000F0C0
:1032400045FF0146A07B69404840A073E27B00999E
:103250004A40104600F03AFF0146E07B6940484092
:10326000761CF6B2E073092E00D2EAE6320120782D
:10327000B95C48404E49085C20700A90D019237907
:1032800002795340CE5C26710996227A037A5A401D
:103290008E5C26720896227B037B5A408A5C2273DE
:1032A00007926278437845795A4063796B40CE5CE7
:1032B0006670637A457AB4466B40CE5C667106965A
:1032C000637B457B6B40CE5C667205968A5C62735D
:1032D0009646A378827853400093A2798379857AC1
:1032E0005A40A37A6B40CE5CA6700496A37B857B84
:1032F0006B40CE5CA671009B0396CD5CA5728A5C88
:10330000A2730292E67BC27BA03756400096E27A17
:10331000C37A5A408B5CE373E279C67972408A5C67
:10332000E272E678C0784640885DE071009E0190C8
:10333000895DE1703E780A98704020707878664622
:1033400046406670B878049E4640A670F8784140C2
:10335000E1703879099E464026717879069E46408C
:103360006671B879039E4640A671F9790198484084
:10337000E071387A089E46402672787A059E46406B
:103380006672B87A4540A572F87A4240E272387B9C
:10339000079A424022737246787B42406273B87B40
:1033A000029A4240A273F87B4340E3730BB0F0BD36
:1033B0008CCD000870B50D4C0546206A0178E1718E
:1033C0004088E08150214843FFF740FB40192063CB
:1033D000206A81882182C18861820089A082E07987
:1033E000034948434018E08270BD0000900100206E
:1033F000E204000070B50446801CFFF76BFC2078E7
:10340000C1094006C00F02F0AFFA20781C4D4006FB
:10341000C00F287128460622A11C3930FFF742FA56
:103420000E342846042221462C30FFF73BFA28466A
:103430000322211D1830FFF735FAE079E871617A2F
:10344000207A09024018E881E17AA07A090240183E
:103450002882617B207B090240186882E17BA07B87
:1034600009024018A882214628460522103134302E
:10347000FFF718FA607DC006C00E287270BD00000C
:10348000900100207FB50AA470CC80070194800FC2
:10349000039602956C462070092060706172A272DA
:1034A000100AE072237301A9009800F020F87FBD94
:1034B0000500040001000000000000000EB507A197
:1034C00006C980070091800F0192694608720720A3
:1034D0004872029800F00BF80EBD000003000400D3
:1034E0000317000010B50A23FFF7CCFF10BD10B57D
:1034F000FFF7C2FA10BDFFB587B01E466F46109B9E
:10350000119A054638710920787105200C463872E9
:10351000002179720420B872F972601C387301209E
:103520007873B973F8730520C0023974834213D1DC
:1035300005A8009006AB31460998FFF7B4F80028BB
:103540000AD06946088B4873888AC87302A9019813
:10355000FFF7CDFF0BB0F0BD21462846099AFFF7D3
:10356000C1FFF7E7FFB587B0079817468007800FC0
:103570006A4610700A2050700020507106211171A7
:10358000D0710421917105211172012151721E46E1
:10359000D0720446134D1AE020460A2148434119CF
:1035A0004988B94211D3B1420FD80A214C4361195D
:1035B00089786A469172285A1073000A507301A9DB
:1035C0000098FFF794FF0BB0F0BD641CE4B2FFF766
:1035D00008F8A042E0D83A4608990798FFF782FF1A
:1035E000F1E70000385F0008F0B589B00E460746E5
:1035F0001D461C2101A80E9CFFF76DF9B807800F2E
:1036000069460870601D4870601C0871000A4871A6
:10361000042088710020C871761C0E7201A904E094
:103620002A5C0B18401C5A71C0B2A042F8D3009813
:10363000FFF75DFF09B0F0BDF0B589B08446002406
:1036400068460E9D0471447104268671C47111266A
:1036500006722E1D46728172C472027344730A2070
:1036600001AF002105E05A5C3A54401C491CC0B22D
:10367000C9B2A942F7D3011F6A4611716146890791
:10368000890F1170507039460098FFF730FF09B06C
:10369000F0BD0000FFB589B0099815218507129E7D
:1036A0004902AD0F1F468E4221D16846FEF784FFC6
:1036B000014668460571002343710078801CC2B240
:1036C000122A00D91222941C6D462C72200A6872AC
:1036D0000426AE72EB72092028736A73AE73EB7323
:1036E00004A8921EFFF7DEF8241D6C713FE06148CC
:1036F00086423ED10B9807283BD15F4800780028CE
:1037000037D06B461D71172119720021597204219F
:1037100099720021D9720921072019735873082062
:1037200098730020D873022018745974002199747A
:103730002921D9742A2119750A225A7500249C75E9
:10374000D8750B251D7600255D7626259D760E22E3
:10375000D9761A7700225A7798770F24DC7708AB4E
:103760001A702820587099701B206B46587102A956
:103770006FE0FF2F00D9FF27002471E020460A21C7
:1037800048433E490A5AB24268D1411848880B9AC8
:10379000904263D3B84261D8364A521E964223D132
:1037A0000A226E463272002373720422B272F372DE
:1037B00009223273082272730A2254432F4AA21834
:1037C0009278B273000AF073002002AA0B18141842
:1037D000401C1B79C0B223720528F7D3487A707554
:1037E00035710E20707133E009266F463E7200235A
:1037F0007B720422BA72FB723E7307227A730A222A
:1038000054431E4AA2189278BA73000AF8731846F5
:1038100002AA0B181418401C1B79C0B22372052889
:10382000F7D33D710D207871497AFF2910D0144BE0
:1038300000200901C9180B5C1418401CC0B2E372C7
:103840001028F8D31B207871172038721520787350
:1038500011460198FFF74BFE0DB0F0BD641CE4B2B9
:10386000FEF7BFFEA04289D809AB07CBFFF73AFEAF
:10387000F2E700000328000008010020385F00087C
:103880007E5F00084B22D200084B821A9A420CD26B
:103890007D22D200064B8A1A9A4206D2FA2242436D
:1038A000531A044AD362516310637047A81D000085
:1038B000196618005002002010B5FDF7AAFD00F0AF
:1038C000BBFF10BD7FB52821484308490A9D099CCC
:1038D00048616E460846B688C6818A630B706E469C
:1038E000308C0882CC634D707FBD000050020020F8
:1038F00003490248086040680047000054CD0008B2
:103900009002002006490878002806D0022804D03A
:1039100001D9401E08700120704700207047000048
:103920009C0200201FB509490A9C099B08700848A1
:103930004243CA806A46908908810846128C4281B7
:103940000B614C700020C8701FBD0000A402002055
:103950007102000003490248086040680047000007
:1039600070CD00089002002070B508461C4B1B4922
:1039700019601146FFF73EFD1A4C1B49208A801F33
:10398000884208D2A08A091F0A38884203D2207AC6
:10399000401F0C2802D300F04FFF70BD012000F043
:1039A00027F8124D012128780843E32108402870A8
:1039B000208A4100A08A814200D288B20A2148436D
:1039C000FFF7B0F928789F210840287000F06AFFBF
:1039D00000F032FF0020607070BD000028CD0008AC
:1039E00090020020900100207B0C000024010020A8
:1039F00001490870704700009C02002010B509487A
:103A0000C07900280CD0084800680078002807D149
:103A1000FEF7C8FF002801D0FFF74EFF00F090FC32
:103A200010BD00002401002090020020FEB5F74EDA
:103A3000F74FF2793146497AF64DF74C032A04D014
:103A4000012A7DD0022A03D004E001291AD0D2E055
:103A50000322F271F081012902D000290AD00BE083
:103A6000EA48401C0078800706D4B18B002002F0A1
:103A7000EBF901E002F0D4F9717AF0790143E6D074
:103A800000285DD10020B071FDF702FE002872D041
:103A9000DE48083000F002FE307A00F0DCFB307ABD
:103AA000C1070BD0694601A800F098FCDB480099DB
:103AB0000160019838602A68926863E0810708D540
:103AC000694601A800F08AFC28680099826901987B
:103AD00058E0C10603D528684069804774E00106B4
:103AE00039D52868CC490078002816D0012000F08C
:103AF000A5FC617820780902401881B22868C26864
:103B000001209047307A41061ED5684600F082FCBD
:103B1000286862780369C0494EE0002000F08EFCFE
:103B2000617820780902401881B22868C2680120B3
:103B30009047307A410604D5684600F06BFC13E0EC
:103B400070E080063ED43FE080063DD5694601A87E
:103B500000F044FC2CE041060ED5684600F05AFC0B
:103B6000286800780028D3D1A84AAB490B3200203E
:103B700000F082FCCCE759E0410705D52868002118
:103B8000C268084690471FE0010703D50020FFF7F1
:103B90002FFF17E0800615D5694601A800F01EFC2E
:103BA0002868017800290AD09B49012000F046FCD2
:103BB00028686278036900210098984704E0002291
:103BC0000369A8E700F038FE28680078002807D0CD
:103BD0008E48401C007880071DD5707A00281AD1C5
:103BE000307A800717D5707A002807D102F018F9CB
:103BF000F079032802D0002030722AE0FEF772FF2D
:103C0000002803D0707A01280DD004E0B079002894
:103C100001D100F01EFEF079002800D134E7307A9F
:103C20008028FBD0FEBD0020B071F2E7F0790028BB
:103C3000F4D0307A0028F1D1FEBD307A022808D1C4
:103C4000FEF798FE002804D0F079002801D1FDF796
:103C5000D5FC2868007800280ED1F079002805D11D
:103C6000FEF7A0FE002801D0FFF726FEFEF734FF86
:103C7000002801D1FEF720FDFDF70AFD00286ED0D7
:103C80006248083000F00AFD307A00F0E4FA307A39
:103C9000C10710D0694601A800F0A0FB5F48009959
:103CA0000160019838602A6892689047FDF736FDF8
:103CB000306200209EE0810719D5694601A800F016
:103CC0008DFB00F0B9FD2868009982690198904742
:103CD000FEF7FCFE252803D14C480078800703D569
:103CE00028680078012801D1FEF7E6FCB5E0C1069E
:103CF00003D5286840698047AFE0010639D52868B8
:103D000045490078002813D0012000F097FB617826
:103D100020780902401881B22868C26801209047C3
:103D2000307A41061ED5694601A800F057FB40E0F5
:103D3000002000F083FB617820780902401881B2EE
:103D40002868C26801209047307A410604D5684649
:103D500000F060FB286879E080067CD47DE098E084
:103D60002D496FE0800678D5694601A800F036FB42
:103D700064E0410640D5684600F04CFB28680178B5
:103D800000290BD003696278234900989847F0789E
:103D9000002862D0B078002815D10EE02078000706
:103DA000000F052805D1194A1B490B32002000F0ED
:103DB00063FB286862780369D2E7617800294CD0F8
:103DC0002178C90649D54201101A134A2178BA3A16
:103DD000115481180D4A63784B700B32012000F0AA
:103DE0004BFBB078401CC0B2B0702178C90634D407
:103DF00080210843B07030E0410701D401070FD59E
:103E000028680021C2680846904726E02401002067
:103E100098020020900200209203002094020020CB
:103E2000810616D5694601A800F0D8FA28680178FD
:103E300000290BD01A49012000F000FB28686278A5
:103E4000036900210098984707E004E00022036915
:103E500086E7002814D000F0EFFC307A80070FD5F9
:103E6000707A01280CD10F480078800708D4B18BF4
:103E7000002001F0E9FFF079032800D002E603E01A
:103E8000F079002800D1D8E6307A802800D0D3E637
:103E9000D3E6F0790028F6D0307A0028F3D1FEBDC1
:103EA000920300202501002010B5074C207A02283B
:103EB00006D1FEF75FFD002802D0E079032801D08B
:103EC000002010BD012010BD2401002070B5054662
:103ED000FDF724FC04460A34FDF720FCA042FBD386
:103EE00003490220C8712846FFF7A0FD70BD0000FD
:103EF0002401002010B50C461F2900D91F240146BB
:103F000022460548FEF7CEFC044804710C30A41D7F
:103F1000447001F0CFFF10BD5403002024010020A5
:103F200010B50C461F2900D91F240146224605481A
:103F3000FEF7B8FC044844711030A41D447001F031
:103F4000B9FF10BD730300202401002010B50549FE
:103F5000087000090001091D001D087001F0AAFF8A
:103F600010BD00003001002030B5182900D91821FB
:103F70000A4B4A1C1A70002204E0845C9D18521CF3
:103F8000AC70D2B28A42F8D3002003E05A18491C20
:103F90009070C9B21929F9D330BD00005301002037
:103FA00070B50D46124A01461078002809D0401E0F
:103FB0001070002656705068092806D0401C5060CA
:103FC00005E001205070002070BD304656600C2284
:103FD000084B4243D41842018018074A80182A46E9
:103FE0002060FEF75FFC25712046A66070BD0000D2
:103FF000D8010020580500200C04002010B500F066
:10400000FEFB0020FEF7A8FE10BD0000FFB5002259
:104010008B5C8354521CD2B2102AF9D301231D01A8
:104020002A18114620390E7F274CB6464E7F0F7C4A
:10403000A65D7E40E71DF937FF5C7E4046558E7FCA
:104040000396A75D4E7C77405770CE7FBC460296A4
:10405000A75D8E7C7740977076460197A65DCC7CF5
:1040600067466640D6700C7D455D6C4014710094C7
:104070004D7D7D4055718C7D019F7C409471CF7D3D
:10408000A6467740D7710E7E009C664016724C7E25
:104090006C405472A4468D7E744665409572CC7E09
:1040A0007C40D4720F7F77401773497F664671401A
:1040B0005173039E5B1C6E409673029EDBB266409A
:1040C000D6730B2BABD3FFBD8CCD0008C1094000CC
:1040D000002903D0C0B21B2148407047C0B27047CE
:1040E0000148807970470000900100200348007863
:1040F0000A2801D00020704701207047D801002015
:1041000010B50446FDF76CFA01215020FDF75DFA69
:1041100001212046FDF759FAFDF769FA10BD0000AC
:1041200070B50C460546FEF7E9FA002807D121468E
:104130000348FFF76BFF02492846FEF77DFF70BD7D
:1041400085060020F8B515460E460446FDF748FAE8
:1041500001212046FDF739FA0746002406E0002138
:10416000FF20FDF732FA3055641CE4B2AC42F6D3BE
:10417000FDF73DFA3846F8BD70B50C460546FDF72B
:104180002FFA01212846FDF720FA0021FF20FDF734
:104190001CFA2070FDF72BFA70BDF8B516460D46D7
:1041A00004460027FDF71CFA202020430121FDF7DB
:1041B0000CFA002407E0287801216D1CFDF705FAB0
:1041C000641C0746E4B2B442F5D3FDF710FA384652
:1041D000F8BD70B50D460446FDF702FA20202043D5
:1041E0000121FDF7F2F901212846FDF7EEF9FDF76F
:1041F000FEF970BD0168002902D14068002801D095
:104200000020704701207047002101604160024991
:104210000A20087070470000D80100200268136867
:1042200012790A70016889680160002900D1416033
:104230001846704710B50B46044611461846FFF75E
:10424000AFFE002806D06168002901D0886000E038
:104250002060606010BD10B501460E20FFF7B9FF69
:1042600010BD1CB55320FFF74BFF03211F20FFF7A4
:10427000B0FF01A91F20FFF77FFF684600790028E3
:10428000F7D103211F20FFF7A4FF01A91F20FFF78B
:1042900073FF684600790028F7D101211520FFF748
:1042A00098FFA0211220FFF794FF04210A20FFF7B6
:1042B00090FF00210A20FFF78CFF88211220FFF7D2
:1042C00088FF012469460C702120487002221320C7
:1042D000FFF763FF69460C7020204870022213200C
:1042E000FFF75BFF00211520FFF773FF5620FFF754
:1042F00007FF1CBD08B50020694608705120FFF774
:10430000FFFE5320FFF7FCFE69461F20FFF734FF36
:104310006946087808BD000010B55120FFF7F0FE8F
:104320005320FFF7EDFE03211F20FFF752FF562019
:10433000FFF7E6FE01490120487010BD8B01002007
:1043400038B5254CA078012838D16078002835D0C0
:10435000012834D0022831D1FFF7CCFF00282DD11D
:1043600001211520FFF735FFA0211220FFF731FFB3
:1043700004210A20FFF72DFF00210A20FFF729FF63
:1043800088211220FFF725FF012569460D702120A5
:10439000487002221320FFF700FF69460D702020AD
:1043A000487002221320FFF7F8FE00211520FFF7C6
:1043B00010FF5620FFF7A4FE0020607038BDFFF705
:1043C00099FF0028FAD103211F20FFF702FF562092
:1043D000FFF796FE0220F0E78B0100207CB50D462A
:1043E0000446062269461020FFF7ACFE694648796C
:1043F0000B7902041802C978101840186946206029
:1044000088784978000409024018694609784018FC
:1044100028607CBD38B50446032269461020FFF7AA
:1044200091FE6846807801046846427810020918B7
:10443000684600780818206038BD00007CB50D4D36
:104440000C46002811D0022269460620FFF77AFEAA
:10445000684600782070684640786070684600784A
:1044600028706846407868707CBD02226946042046
:10447000ECE700008E01002070B513460C460028C2
:1044800009D06278901C1870002A03D0A11C61200A
:10449000FFF758FE70BD1D48254641780835891C38
:1044A00011700178217041786170017840780907B6
:1044B000090F0B00FEF75AFC0706090614051A0639
:1044C0000500E7E70622A11C08E00C28E2D106223D
:1044D000A11C0A20FFF736FE062229460B20D7E74B
:1044E0000C28D7D1062229460A20D1E72228D1D18B
:1044F0000622A11C0B20FFF725FE062229460A20D2
:10450000FFF720FE162221460E31C0E78E01002063
:10451000FEB505460026684606715E4C51200C60CB
:10452000FFF7EEFD01A91F20FFF726FE684601797F
:104530008029F7D158491E20FFF71EFE7821002060
:10454000FFF747FE06210846FFF743FE7A210020C9
:10455000FFF73FFE5320FFF7D3FD88211720FFF719
:1045600038FE88211820FFF734FE88211920FFF734
:1045700030FE00211520FFF72CFE02210120FFF75D
:1045800028FE1E211D20FFF724FE284600F0F0F82B
:1045900000A908200131FFF7EFFD684640783E4F43
:1045A000002807D112206946487038781B2801D2AC
:1045B00015204870C021684601702D2181700322AA
:1045C00069460420FFF7E9FD8025684605704670BE
:1045D000022269460C20FFF7E0FD1C2168460170AD
:1045E00045703878192802D1CC206946087002221B
:1045F00069461420FFF7D1FD102069460870022794
:104600004F703A460A20FFF7C8FD69460F70122026
:10461000487002220D20FFF7C0FD01206946087096
:104620000720487002220E20FFF7B7FD38206946A8
:1046300008700F2048708E7003220220FFF7ADFD36
:1046400071210920FFF7C5FD69460D707020487083
:10465000212088704020C87004220B20FFF79DFDA8
:104660005620FFF74DFDFF210E20FFF7B2FD062279
:1046700008490820FFF766FD60796D2806D1ED2016
:104680006071062203490820FFF787FD00F0D4F887
:10469000FEBD0000840100208B01002038B50446D7
:1046A00069460E20FFF768FD68460178217038BD25
:1046B0001CB501786A46117041785170817891700B
:1046C000C078D070042269460C20FFF766FD1CBD3F
:1046D00001B582B06946087A0870487A48700222AB
:1046E0000320FFF75AFD0EBD0A4610B50146A02073
:1046F000FFF753FD10BD10B5282803D20146012055
:10470000FFF767FD10BD1CB501786A46117041784E
:10471000517080789070032269460D20FFF73DFDAF
:104720001CBD1CB5FF216A461170507002226946FB
:104730000E20FFF732FD1CBD10B504280BD0012858
:104740000BD002280ED003280ED005280ED0062844
:1047500007D1042102E0022100E009210220FFF735
:1047600038FD10BD0C21F9E70121F7E70321F5E73A
:1047700008B502216A46117050700A4669460F203A
:10478000FFF70BFD08BD1CB501786A461170417832
:10479000517081789170C178D1700179117140792F
:1047A0005071062269460920FFF7F7FC1CBD1CB5B5
:1047B0006A461070010A5170000C9070032269461D
:1047C0000720FFF7EAFC1CBD1CB56A461070010A01
:1047D0005170002191700549884201D901209070E3
:1047E000032269461120FFF7D8FC1CBDFFFF000023
:1047F0000A4610B50146A020FFF7CFFC10BD01B559
:1048000082B06946087A0222C006C00E0870487A53
:1048100048700520FFF7C1FC0EBD1CB500216A469B
:1048200011705070010A9170000CD070042269461A
:104830000F20FFF7B2FC1CBD1CB5022069460870B2
:10484000FF2048708870C87004220F20FFF7A5FC75
:104850001CBD10B501210F20FFF7BBFC10BD0000EF
:1048600038B5054600230C4610460093FFF7C2FCFE
:10487000002802D02B70237038BD69461046FFF720
:10488000CDFC0146684602782846FEF70BF86846DC
:104890000078207002480178491C017038BD000082
:1048A000D8010020024800210170417070470000CB
:1048B000E801002010B505480349816000214170DE
:1048C0001430FFF7A1FC10BD50CD000810020020ED
:1048D0007047000000B587B0182209A16846FDF7AF
:1048E000E1FF0D480321017018214170801FC0882D
:1048F000694608830698FEF7BFF807B000BD0000C0
:10490000101000280001002C011820000300FFFFF8
:10491000FFFFFFFFFFFFFFFFEE010020F0B58BB0B0
:1049200000278D07344E0446009701970297AD0F7C
:10493000039735700D20707004206946087000A838
:1049400008222E490130FDF7ADFF2C4902A80422B0
:10495000091F0130FDF7A6FFB01FC0886946088512
:104960000A98FEF789F8002004A92218527B0A54FD
:10497000224A0B18125C401C1A720828F5DB084604
:10498000FEF74EF8E07A002802D1207B00280CD0F8
:1049900021461B4A0B31E01C01F0DCF91648801C53
:1049A0000770E17A4170217B8170154904A8FFF7F7
:1049B000B7FB124A002008A9121F23185B7D0B5475
:1049C000135C0F18401C3B710428F6DB04A800F0B0
:1049D000D1FF3570012474700520694608700648BF
:1049E000801FC08808850A98FEF746F80248801F95
:1049F00004700BB0F0BD0000EE01002048CD0008AF
:104A0000010600201FB508A007C86B4607C3094868
:104A10000321017009214170801FC0886946888187
:104A20000398FEF729F81FBD0901000000000000EF
:104A300000000000EE0100200020044A0146535C03
:104A4000491C1843C9B21029F9D370473507002013
:104A50007FB500258A07274900950195920F029599
:104A60000A700B2204464A700720694608704D7090
:104A7000207988706079C8701E4E022008711B363C
:104A80003070FFF7D9FF002801D0002000E003209C
:104A90006946487170708D71B5700520C871F070ED
:104AA000102008723071207B4007C00F80004872D0
:104AB0007071207B0F49C007C00F891F487069467D
:104AC0008872B0710B48A17914300170E17941709E
:104AD000217A8170617AC170A17A0171E17A4171A4
:104AE000217B81711A38C088694688810398FDF757
:104AF000C3FF7FBDEE01002070B58AB00E460446AC
:104B0000182103A8FDF7E7FE11251022E11D244816
:104B1000FDF7C8FEB1072348890F017015214170C8
:104B200069460D7300224A73207988736079C873CF
:104B300003201B4D0874104603AC203D21184A7118
:104B40002A54401C1028F9D301206946487414499E
:104B500028702039601DFFF7E3FA002021184979F9
:104B60002954401C1028F9D30E490F4A0E3108462B
:104B70000D306D4607C5C31F2138C2788178601D8E
:104B800001F01CF8601DFDF74BFF06486946801FC9
:104B9000C088088003A90098FDF76EFF0AB070BDB9
:104BA00031060020EE010020840100203EB50023E4
:104BB0008D070D490093AD0F01930D7006254D70C3
:104BC00002246D462C706B700179A9704079E870F1
:104BD0000520287104486A71801FC08828816946B1
:104BE0000298FDF749FF3EBDEE01002030B589B0C7
:104BF0000D460446182103A8FDF76DFEAA072D49AE
:104C0000920F0A7015224A7011206946087300201D
:104C10004873207988736079C87304200874E01D94
:104C2000FDF7FEFE1022E11D2348FDF73BFE214962
:104C3000224A0E3108460D30C31F009002920191A6
:104C40002138C2788178E01D00F0B8FFE01DFDF743
:104C5000E7FE194800221030A118C979835C9942F7
:104C600006D0042229462046FFF7A0FF09B030BD38
:104C7000521C102AF0D310490F4A0846203A103827
:104C800000F0E2FF0C4A002103A8103A535C4418DC
:104C9000491C63711029F9D3401DFDF7C1FE054879
:104CA0006946801FC088088003A90098FDF7E4FECC
:104CB000DCE70000EE010020210600208401002036
:104CC000F0B58FB00C4618216846FDF704FEA0072A
:104CD0002A4D800F287001276F7006266946A81F8D
:104CE0000E70841CC08888860D98FDF7C5FEA81F2D
:104CF0004078002840D0FFF7F3F907AB06AA0BA9CC
:104D000000F0E6FF02202870152068701120694627
:104D10000870002048708E70C8700E716E461022A8
:104D200007A9701DFDF7BEFD701DFDF779FEA81FD8
:104D3000C088694688860D98FDF79EFE0F20687032
:104D40000B206946087007200871087E4871487E6C
:104D5000887108220BA9F01DFDF7A4FDA088694603
:104D600088860D98FDF788FEA81C07706946097EA5
:104D700041706946497E81700FB0F0BDEE010020A0
:104D800008B589070748890F017000214170801F0D
:104D9000C088694608800098FFF730F90020FEF7C8
:104DA00027FE08BDEE0100201CB509A00068009098
:104DB00008480321017002214170801FC0886946A4
:104DC00088800198FDF758FE0420FEF711FE1CBDF7
:104DD000020A0000EE0100201CB509A1096800913B
:104DE000084903220A7002224A7069464870054841
:104DF000801FC08888800198FDF73EFE1CBD000022
:104E000007000000EE0100200EB509A005C80090C3
:104E100089070948890F0192017006214170801F9E
:104E2000C088694608810298FDF726FE0EBD000085
:104E30000C079C0517200000EE010020FEB5164C63
:104E400001A92246083A2046FFF70AFD6846007984
:104E50002646002803D10120307000207070217890
:104E60000D4D132001401C3D68780423C2435208B5
:104E700040071A40C00F1143C0000143684601704B
:104E800067784770A11C009800F0FEFFAF7001200A
:104E9000307000206870FEBD2C020020FEB50C466C
:104EA000002102911D2C00D91D2401462246AF4845
:104EB000FDF7F8FCAE4FAD4D3C7028783C468607B8
:104EC000E070B60F284600F071FF012E14D0032EBB
:104ED00018D0022E0FD16A7929791202A87989187F
:104EE000062957D0042970D0052904D1132802D0EF
:104EF0000020FDF79DFEFEBD38780228FBD3FDF7AC
:104F0000D4FBFEBDAE783300FDF730FF120B0F1E51
:104F1000233A3A280A2D3A0A3A320A3A370A0A3A22
:104F2000EFE7E81C00F0EEF9FEBDE1788F48FFF7EF
:104F3000CFFC697A287A090240186946088102A9DB
:104F4000E81C00F011FAFEBDE1788848FFF718FF71
:104F5000FEBDE1788548FFF7E1FCFEBDE1788348BE
:104F6000FFF7AEFEFEBDE1788048FFF74BFDFEBDCA
:104F7000E1787E48FFF748FFFEBDFFF7ABFCFEBDC2
:104F80003046FFF729FF7B4800780028F7D0152E20
:104F900008D8FEBD012808D003280BD004280ED065
:104FA0000528F6D1FFF700FFFEBDE1786F48FFF757
:104FB0004FFDFEBDE1786D48FFF79EFDFEBDE17837
:104FC0006A48FFF713FEFEBDFFE769490C31102860
:104FD00078D00ADC821E1300FDF7C8FE0B1E1524D4
:104FE000153915581590159A1500604B0933182876
:104FF00067D004DC12287DD0162804D197E01E2843
:10500000E1D0522876D04106DDD4062300220146A5
:10501000E078FEF737FAD6E701460022E078FEF79F
:105020004DFAD0E72B7AEA791B02D21892B20A80A5
:105030006B7AAD7A2D025B199BB24B809A4201D9F3
:105040000123E4E70146E078FEF78CFABBE72B7A10
:10505000EA791B02D21892B20A80AE7A6B7A3602D3
:105060009B199BB24B809A42EAD82E7BE97A360292
:1050700089196E7BAD7B89B22D027519ADB2009195
:1050800001950146E078FEF736FA9CE72B7AEA793B
:105090001B02D21892B20A80AE7A6B7A36029B1942
:1050A0009BB24B80EE7A2D7B2D027519ADB28D80AF
:1050B0009A42C5D801460095E078FEF7EBFA82E700
:1050C00000E03DE02B7AEA791B02D21892B20A8006
:1050D000AE7A6B7A36029B199BB24B80EE7A2D7BAF
:1050E0002D027519ADB28D809A42A9D8014600955E
:1050F000E07800E028E0FDF776FA64E72A7AE979BB
:105100001202891889B2A180E278FDF79BFA5AE76A
:105110002A7AE9791202891889B2A180AB7A6A7A6F
:105120001B02D21893B2E278FDF7E7FA4BE7297A2F
:10513000E87909024018A0800C4800F08AFB42E799
:105140000A4800F075FB3EE7E978AA780902C91E13
:105150005118EA792D7AC9B22D02521992B2A28061
:1051600000910146E078FDF75EFA2CE74106002049
:1051700010020020E801002013B56A4604481278A6
:1051800002706A46527842700248FDF78BFB1CBDE4
:10519000EC010020DC0500200907090FC20710B54B
:1051A0000C480ED00B00FDF7E1FD070808050B0BBE
:1051B0000B050B000078012802D10220FFF7BCFA92
:1051C00010BDC178142901D10021C170FFF734FB53
:1051D00010BD0000A4020020F8B50E461849002AB0
:1051E000486110D0002E0ED0307837468006800EF1
:1051F000941C951F08370300FDF7B8FD0708080C3D
:105200001515150C1500FFF717FBF8BDFDF764FC2D
:10521000032804D0EAB239466120FEF793FFE1B2D9
:105220003046FDF761FDFFF707FB5320FEF768FFEF
:1052300004490420FEF7A0FF5620FEF761FFF8BDE9
:10524000A40200209301002070B5114C0646A078FE
:105250000D46401CC2B2A270282A01D12520A070A0
:10526000A078FFF748FAE07813280DD109480068C4
:10527000291A09480068301AFEF704FB074800782D
:10528000002802D0FFF748F870BDFEF7EAFF70BDB6
:10529000A402002094020020980200208D0100202A
:1052A00010B5074C2520A070FFF725FAE088FFF71E
:1052B0008BFA04480078800701D4FFF7CAFA10BDC2
:1052C000A40200202501002010B5FFF7B5FA10BD9B
:1052D00038B50C460120FFF72FFA09486946408986
:1052E00008800098FFF7F4F905481830FFF74BFAEB
:1052F0001520000202492018C860FFF758FA38BD8F
:10530000A402002030B5164B0122196A4A700278B7
:105310000A7084784278240212194A800479C2788B
:105320002402121992B28A80857944792D02641977
:10533000CC80057AC4792D0264190C81447A807A74
:105340000002201880B200244881062A00D24C7046
:105350009A89801A034A904200DB4C7030BD0000ED
:1053600090010020FF7F000010B50A4C0346E06961
:105370000988C18005221946FDF794FAE0690121E8
:105380004171C188A289891A034A914201DB002137
:10539000417110BD90010020FF7F00000148008A8C
:1053A000704700009001002010B5FDF7BBFC10BD58
:1053B000F0B50C4B00201C46987134340A4A5872E0
:1053C0000125C1084607615C760F2F46B740394278
:1053D00003D0597A5054491C5972401CC0B2252838
:1053E000EFD3F0BD90010020C603002010B5C00728
:1053F00006D10448FB22017811400170FFF71CFA26
:1054000010BD000024010020F8B5064635480C46C2
:10541000808A0A2115464843FDF784FC324F042157
:1054200038780843E72108403870FCF721F9002C50
:1054300003D06078002818D01BE0412040010521EE
:105440003018284CC9014018A062FFF7B0F91B2D95
:1054500000D91B25E801311A05200002081A6062F4
:10546000387810210843387039E03878082108432B
:105470003870812000011B4930188862FFF797F9C6
:105480001A480078002806D1E8010121301A890263
:10549000411A144841622078FDF716FC38782278CA
:1054A00041061207C90FD20F914218D10D4C0121AC
:1054B00021704021484038700D48006800688047DE
:1054C000FCF7DCF8002060705320FEF719FEE11CA9
:1054D0000420FEF751FE5620FEF712FEF8BDFCF741
:1054E000CDF8F8BD90010020240100202601002005
:1054F00018020020F3B581B00746FEF703FA964E76
:105500000028307826D0954DC10737D002210843B6
:105510003070E889502148432830FDF797FAC019C8
:105520002863FFF745FFE86900244471286A447046
:10553000AC812C70FFF7BEF9AC71E879884948431B
:105540004018E8820120FDF7D1F8FDF7C5FA0228DE
:1055500010D0C3E0FD21084030700020FDF7DAFBD9
:10556000FDF7BAFA022802D18020FEF7EFFC00F026
:1055700057FCFEBD8220FEF7E9FCAFE0287800284A
:1055800028D078490878002814D00007000F087048
:1055900000240AE06001011B734808184178891C47
:1055A000C9B2FFF77BFC641CE4B26E480078844209
:1055B000F0D30DE06D490120FEF740FF6A466B49CC
:1055C0000120FEF759FF684601786848FFF766FC3E
:1055D000002028703078400703D462480078002803
:1055E00033D00298696A401A012109064018000266
:1055F000000AFDF721FA3C1A307800071BD5688AAB
:10560000002818D0FEF772FD002814D0288A698A75
:1056100041430818502148435038FDF717FA001944
:105620002863A989688A0918A981297A4143A87938
:105630000818A87107E0288A502148435038FDF720
:1056400005FA00192863688934E0288A082801D2FD
:105650000121A97046493D280C6807D25022014615
:105660005143C20080180009081A02E05021484343
:105670001938FDF7EBF900192863288A092806D2A2
:1056800069784843062148433549FA3107E0112833
:1056900007D269784843062148437D210901401813
:1056A00008E03D2805D2697848430621484331493E
:1056B000F5E73148E882286B0A37B84200D22F63F9
:1056C000A878002804D12D49286B0988401A28633E
:1056D000A889401CA881286BFDF77CF9A879297A54
:1056E0004018C0B22521FDF7C7F81C4BA971CA08A4
:1056F00034339A5C4B0708465B0F012199400A42FC
:1057000005D1697AFDF7B8F818482538405C68710A
:10571000FDF7E2F9022805D13078800702D500F0C4
:105720007FFB01E0FDF74AFA3078C10704D040085A
:105730004000307000200BE0A878002805D0002041
:10574000FDF7E8FA0020A870FEBD288A8108081835
:10575000FDF7E0FAFEBD00002401002090010020CA
:10576000E204000026010020D8020020EB03002004
:1057700098020020C4090000204E00005A020020B8
:1057800010B510480078C00604D500210846FFF780
:105790002DFE10BD0C480078002810D004280ED231
:1057A0000420FEF7C9FF094809490078896AC00149
:1057B0004018372189014018FEF7F9FF10BDFFF7A7
:1057C0003BF810BD24010020260100201202002019
:1057D0009001002070B50D46FDF784F9002809D12D
:1057E000114C6078322805D8218A4143A08AC00034
:1057F000814205D90020FEF7FBF8FFF71DF870BDC8
:105800000420FEF799FFC3204001A1782818002941
:1058100004D10649FA22098851430818FEF7C7FF48
:105820006078401C607070BD900100205A0200201A
:1058300008B502216A46117005215170012181705D
:1058400019218171811C0098FDF751FEFCF7F9FECA
:1058500008BDF8B50446827AC178007AE57900027D
:105860000543A07809020843401F87B2667A1002F8
:105870000643022069460870607848701720A071BE
:10588000A11C0098FDF733FE214633463A460B3102
:105890002846FCF7D5FEF8BDF0B585B014000546E6
:1058A0005CD06A461170080A5070080C9070080E9F
:1058B000D070802010712A4A00206946135C0E18AF
:1058C000401C73710828F9DB264900200F46103769
:1058D0000E4620366A46125C33185A703B185A70CE
:1058E0000B18401C5A700D28F4DB012232703A70FC
:1058F0000A700020B073B8738873C873FA730220FB
:105900001849F07350391748FEF70AFC1549503909
:1059100008466030FEF704FC102C05D911495039B7
:1059200008467030FEF7FCFB2146102C00D91021F0
:10593000002004E02A5C3B5C5A402A54401C884208
:10594000F8DB102C0AD90020103C05E029180A7C4D
:10595000335C5A400A74401CA042F7DB05B0F0BD2E
:10596000D0020020B5070020014A9070D170704726
:10597000E801002070B50C4B0C4C0022002805D02B
:10598000855C9D5485182D7A9E183572002901D0AA
:105990008D5CA554521C082AF0DB044800210C3809
:1059A0004160816070BD000065070020D0020020CA
:1059B000F0B585B01D000C4606467DD069460A70DC
:1059C000100A4870100C8870100EC8700020794FB3
:1059D00008716B46395C1A18401C51710828F9DBB4
:1059E000754B00201A461032734F6946503F095CD0
:1059F0003F187970171879701F1879706E4F103F23
:105A00003F18401C79700D28EEDB6B484921503857
:105A10000170694A002181731032C5730120664B01
:105A2000107017461870203F387091739973B973CE
:105A3000F973D8730220D0730020403B403A103FE6
:105A4000195411543954401C1028F9DB5A480121CB
:105A5000403841700A9981702946102D00D91021D3
:105A6000002004E0544A335C303A1354401C88420E
:105A7000F8DB284610380490102D08D90146002084
:105A800003E03218127C3A54401C8842F9DB4A4940
:105A9000603908461030FEF743FB0020464B403B80
:105AA0001A46103A195C125C51401954401C1028D7
:105AB000F4DB1946203900E079E01846FEF730FBA8
:105AC00000203D4B303B1A46103A195C125C5140A5
:105AD0001954401C1028F4DB194630391846FEF7DB
:105AE0001FFB102D09D834483038017821704178D7
:105AF00061708178A170C07816E02F49002030399C
:105B00003A5C0B5C5A403A54401C1028F8DB2A4996
:105B1000603908464030FEF703FB3878207078780B
:105B20006070B878A070F8782349E0706039084652
:105B30005030FEF7F5FA20491F486039FEF7F0FAB9
:105B4000102D05D91C49603908467030FEF7E8FA77
:105B500019482178103802785140217061784278D4
:105B600051406170A17882785140A170E178C0788D
:105B70004140E1702946102D00D9102100200E4B24
:105B800004E0325C1C5C62403254401C8842F8DB0A
:105B9000102D0CD9084B00201033049A05E0311861
:105BA0000C7C1D5C6C400C74401C9042F7DB05B013
:105BB000F0BD0000D0020020C5070020F8B5044663
:105BC000204D069E089829706A700021775C6A183B
:105BD00057725F5C491C97700729F7DB0021194E4B
:105BE0000A4610367254491C1029FBDB0021425C26
:105BF0007254079A7318525C491C9A710629F6DB95
:105C00001048FCF70DFF0F481030FCF709FF00208B
:105C1000215C2A5C51402154401C1028F8DB0949C2
:105C200020461039FEF77CFA0020215C325C51409E
:105C30002154401C1028F8DB024920461039FEF799
:105C40006FFAF8BD4507002070B50023C418247A08
:105C5000D454CC18D518247A5B1C2C72082BF5DB95
:105C600002491046FEF75CFA70BD000035070020BF
:105C700070B505460C46002001461954401CC0B2C0
:105C80000D28FAD35A73207898736078D873294610
:105C90001846FEF745FA70BDF0B50D4685B01446BE
:105CA00000210A466B465A546E5C5F18491CC9B203
:105CB0003E720829F7D301461846FEF731FA6846C6
:105CC000807B20706846C07B607005B0F0BD00002E
:105CD000FFB50D4689B006461BA10868144608901A
:105CE00004AB002208A91948FFF7C2FF3046184E3E
:105CF0006F463178785404A93846FEF711FA00202F
:105D0000395C2954401CC0B20828F9D322462946E0
:105D100004A8FFF7C1FF69462078497A002248406D
:105D2000207069466078897A48406070074802A907
:105D3000103801310C9BFFF79BFF3078401C0007A7
:105D4000000F30700DB0F0BD00030000A7CE0008BA
:105D5000C402002070B50C4686B0064611A1086842
:105D60001546059001AB002205A90F48FFF780FFFB
:105D70006A46314601A8FFF78FFF69460878217807
:105D80002B464840694608704878617800224840B0
:105D90006946487004481038FFF76AFF012006B0D2
:105DA00070BD000000030000A7CE000870B50446D7
:105DB0000C480078002814D06078002811D0217891
:105DC000001F8B07084DC2B29B0FA01C6968FFF72C
:105DD00063FD6868401C68606078052801D3001F77
:105DE000607070BDE8010020C4020020F8B50B7897
:105DF0000D460446002B0FD0084EA01C0092191827
:105E0000B268FFF7D5FD2878001D28706078001D66
:105E10006070B068401CB060F8BD0000C402002093
:105E200010B500F047F807480078800707D4054808
:105E3000401C0078800702D40020FCF757FCFDF7D7
:105E400057FD10BD2401002010B50E4B86B01A4638
:105E5000162403934A3A0494928A6B461A810023CB
:105E6000084A009301934A3A528A6B469A820A463C
:105E700001214902059BFDF755FDFDF76BFD06B0BD
:105E800010BD00006E01002073B50D460098FEF7AE
:105E9000B6FC68464478002C03D021462846FEF71D
:105EA000A7FC2046FCF758FF29460098FFF764F945
:105EB0007CBD00007FB503A8FCF77EFB6946097B2B
:105EC000182902D918216A46117369460A7B184BB2
:105ED000511C1970002104E0445C5D18491CAC7031
:105EE000C9B29142F8D3002003E09918521C88707F
:105EF000D2B2192AF9D30E4A0723D21FD11D0C465C
:105F00002F3C25791B20002D01D00A4A2B466579AC
:105F1000002D02D0074928461F3101910290208AA6
:105F200069460880E089E168FDF7CCFC7FBD000090
:105F30005301002054030020032803000204000042
:105F40002AFF03280800020900292AFF03280A0063
:105F5000020B00262AFF03280E00020F00282AFF4A
:105F600003281000021100232AFF0328130006143F
:105F700000000003012915000200000000001019B4
:105F80000D0C0B0A0908070605040302010011198C
:105F90000D0C0B0A0908070605040302010012197B
:105FA0000D0C0B0A0908070605040302010013196A
:105FB0000D0C0B0A09080706050403020100020183
:105FC00006030390FE020106030390FE000000009A
:105FD00000000000000000000000000000000000C1
:105FE00000000000000000000000000000000000B1
:105FF00000000000000000000000000000000000A1
:106000000000000000000000000000000000000090
:10CD20000000000000000000010000000000000002
:10CD3000D5570008ED530008095400088157000832
:10CD4000F5540008B1A87710B1A87710F5D4B31046
:10CD50003D4E000800000000592F0008BD2F0008BC
:10CD6000A52D0008D52D0008852F0008692E000884
:10CD700000000000A1520008D1520008995100089B
:10CD8000D9510008C952000849520008637C777BDA
:10CD9000F26B6FC53001672BFED7AB76CA82C97DB7
:10CDA000FA5947F0ADD4A2AF9CA472C0B7FD932648
:10CDB000363FF7CC34A5E5F171D8311504C723C34C
:10CDC0001896059A071280E2EB27B27509832C1A90
:10CDD0001B6E5AA0523BD6B329E32F8453D100EDEA
:10CDE00020FCB15B6ACBBE394A4C58CFD0EFAAFBCE
:10CDF000434D338545F9027F503C9FA851A3408F96
:10CE0000929D38F5BCB6DA2110FFF3D2CD0C13ECAD
:10CE10005F974417C4A77E3D645D197360814FDC42
:10CE2000222A908846EEB814DE5E0BDBE0323A0A26
:10CE30004906245CC2D3AC629195E479E7C8376DAA
:10CE40008DD54EA96C56F4EA657AAE08BA78252ECF
:10CE50001CA6B4C6E8DD741F4BBD8B8A703EB56658
:10CE60004803F60E613557B986C11D9EE1F8981149
:10CE700069D98E949B1E87E9CE5528DF8CA1890D38
:10CE8000BFE6426841992D0FB054BB168D010204D4
:10CE900008102040801B360102030405060708091C
:10CEA0000A0B0C0D0E0F0015161718191A1B1C1D56
:10CEB000D2D3D4D5D6D70000D8CE0008C0000020E9
:10CEC000180200003829000884CF0008D80200208A
:10CED00010090000962D00089155020406085D0116
:10CEE00002030401020304060708090B134D472D32
:10CEF000424C452D4F54413C04094F544205FFCD4F
:10CF0000AB2356C5640101796B465620202E332E83
:10CF1000352E3292012E800DA0008421030C452273
:10CF20002800C8C40400200A1A02010603031218CC
:10CF300000094C4D8BAB6348CDF10406002879C83D
:10CF400000FFFFFFFF1F090210010311DC05092587
:10CF5000D0010020BA03002002140A82010931D056
:10CF6000050020E00100200226FF52255201022088
:10CF70001033813133580A04206FE8094225022E0C
:04CF8000100000009D
:04000005080010D10E
:00000001FF
