:020000040800F2
:1030000070050020CD390008D5390008D7390008EF
:10301000D9390008DB390008DD390008000000005C
:10302000000000000000000000000000DF39000880
:10303000E139000800000000E3390008E539000824
:10304000E7390008E7390008E7390008E7390008E0
:10305000E7390008E7390008E7390008E7390008D0
:10306000E7390008E7390008E7390008E7390008C0
:10307000E7390008E7390008E7390008E7390008B0
:10308000E7390008E7390008E739000800000000C8
:1030900000000000E739000800000000E7390008E0
:1030A000E7390008E7390008E7390008E739000880
:1030B0001B370008E7390008E7390008E73900083E
:1030C00000000000E739000800000000E7390008B0
:1030D000E739000879350008E7390008E7390008C2
:1030E000E7390008E7390008E7390008E739000840
:1030F000E7390008E7390008E73900080000000058
:1031000000000000E7390008E7390008E739000847
:10311000E7390008E7390008E7390008E73900080F
:10312000E7390008E7390008E7390008E7390008FF
:10313000E7390008E739000800000000000000003F
:10314000E73900080000000000000000E73900082F
:10315000000000000000000000000000E739000847
:10316000000000000000000000000000000000005F
:10317000000000000000000000000000E739000827
:10318000E739000800000000E7390008E7390008C7
:10319000000000000000000000000000000000002F
:1031A000000000000000000000000000000000001F
:1031B00000000000DFF80CD002F000FB00480047E0
:1031C000C93400087005002010B50424FE480078BA
:1031D00080B9FEA002F004FB00F036FC342000F0C1
:1031E0008EFEF94800F06AFC044600BF042CFDD1B5
:1031F00000F030FC10BD0424F348007888B100F0E2
:1032000023FC342000F07BFE0021EF4800F0ECFCB2
:10321000044600BF042CFDD100F01CFCF2A002F01B
:10322000DFFAF8A002F0DCFA012080F3138800BF77
:1032300000BFBFF34F8FFA48006800F4E060F9491F
:103240000843001DF6490860BFF34F8F00BF00BF61
:10325000FEE700BFF44A126802F00102002AF9D02A
:10326000C2B2F14B083B1A6070470146EF4A128820
:103270004A434FF0E0235A6100229A611A461269CC
:1032800042F001021A6100BF4FF0E022106900F025
:1032900001021AB100F48032002AF5D04FF0E0228A
:1032A000126922F001024FF0E0231A6100229A61B4
:1032B000704710B504462146DB48083802F0A5F9EE
:1032C00000BF0121D848083802F0A6F90028F8D03C
:1032D00010BD70B504460D4603E014F8010BFFF76E
:1032E000E8FF281EA5F101018DB2F6D170BD7FB5B2
:1032F00004460D460121084601F02BFA0295ADF86F
:1033000004400020ADF80C00ADF806008DF80E006A
:1033100001A94FF0804001F01BFB0121880701F05B
:10332000B7FF01221146900701F09EFF1C208DF887
:10333000000001208DF8030000208DF8010001201D
:103340008DF80200684600F016FF7FBD10B586B00C
:1033500004460121102001F0EFF90121084601F097
:10336000DEF925208DF8000003208DF801008DF88E
:10337000020001208DF80300684600F0FCFE0121E8
:10338000102001F0D9F9A848083802F06DF801942E
:103390003020ADF808000020ADF80A00ADF80C00B0
:1033A000ADF810001820ADF80E0001A99E480838AD
:1033B00002F0C9F8012202219B48083802F013F9F3
:1033C00001219948083802F002F94FF40070ADF875
:1033D000140003208DF8160018208DF8170005A999
:1033E0004FF0904000F0DCFD07220921C80600F0F4
:1033F00098FE4FF48060ADF8140004208DF817009B
:1034000005A94FF0904000F0CBFD07220A214FF0B4
:10341000904000F086FE06B010BD08B501210320E3
:1034200001F07DF94FF40040ADF8000003208DF865
:10343000020010208DF8030069464FF0904000F024
:10344000AFFD3020ADF8000003208DF80200102001
:103450008DF803006946764800F0A2FD4FF4004164
:103460004FF0904000F049FE1021714800F045FEF9
:1034700020216F4800F041FE4FF400414FF0904092
:1034800000F03DFE10216A4800F039FE2021684816
:1034900000F035FE08BD10B56FF0040000F0BCFE72
:1034A000644800686449B0FBF1F06449087008465C
:1034B000007800EB4001C1EBC0104FF6FF7101EA4C
:1034C000C0005A49088010BD4FF440514FF00060D1
:1034D00000F08AFE62B6FFF7DEFFFFF79EFF4FF4B3
:1034E0009640FFF733FF534800685549B0FBF1F0B1
:1034F000401E84B240F2E7312046FFF7F8FEFFF7A6
:1035000063FE50A002F06CF951A1574802F078F91F
:1035100084B221465448FFF7DCFE17E04FF4004127
:103520004FF0904000F0DCFD30B14FF400414FF01F
:10353000904000F0E4FD05E04FF400414FF0904072
:1035400000F0DBFD4FF47A70FFF78FFEE6E710B571
:1035500004460DE021783448083802F056F800BFE0
:1035600001213148083802F057F80028F8D0641CCF
:1035700020780028EED110BD10B502212A48083865
:1035800002F059F8F0B102212748083802F05CF83F
:103590002548083802F03CF8C4B234480088C0F32B
:1035A0000D0033490C5431480088401C2F490880D5
:1035B00008460088C0F30D00088008460088C72828
:1035C0005CDD57E06CE00000FCFF0108D5FDD4DABB
:1035D000C7E5B3FD494150C9FDBCB6B1EAD6BE2E20
:1035E0002E2E0D0A0D0A0000C9FDBCB6B1EAD6BEEA
:1035F000CEBBD0B4C8EBB3C9B9A62E2E2E0D0A0D82
:103600000A000000BCB4BDABBDF8C8EB494150C9CD
:10361000FDBCB6B3CCD0F22E2E2E0D0A0D0A000042
:103620000CED00E00000FA05083801401000002011
:10363000000400482400002000127A000E00002040
:1036400040420F004D4D33325F544553540D0A0034
:103650000D0AC4FAB7A2CBCDB5C4CFFBCFA2CEAA78
:103660003A74650D0A000000080100200C000020DB
:1036700040000020002008803849087000204FF0EA
:10368000804148623548007850B9012033490870BC
:103690000121800701F010FE0121880701F0D6F911
:1036A00010BD10B52E4800782E490978884229D1DE
:1036B0002B4840782B494978884223D12848807884
:1036C0002849897888421DD12548C0782549C9787C
:1036D000884217D12248007922490979884211D1BC
:1036E0001F4840791F49497988420BD11EA002F03A
:1036F00077F864211A4802F040F800202049087049
:10370000FFF779FD1FA002F06BF86421144802F066
:1037100034F800201A49087010BD10B5012188073F
:1037200001F0CAFD1C48008840F400401A49088096
:1037300000200A49087000214FF0804001F086F90E
:1037400016A002F04DF8144800780D4908700020CA
:1037500011490880FFF7A5FF10BD000012000020EE
:1037600040000020010000206D6D33325F69617000
:103770005F7570646174655F7374617274000000DA
:10378000130000204D4D33325F4941505F434D449B
:103790005F6572726F7200000C000020444154415A
:1037A0002072656365697665206F7665720D0A0023
:1037B0002DE9F043054616461F4608464FF0000C1B
:1037C000002423E0002319E003F1010805FB08F8B9
:1037D00004F10109B8FBF9F28A4202D9A2EB01080F
:1037E00001E0A1EB02084246904202D91046337034
:1037F0003C7010B94FF0010C02E05B1C402BE3D38E
:1038000000BFBCF1000F00D002E0641C042CD9D32F
:1038100000BFBDE8F0833FB5002003900120029077
:103820005F4860490860029801287CD15E480068C2
:1038300040F010005C4908600846006820F007006E
:10384000086058480068401E5849B0FBF1F4072C46
:1038500000D907245448006820435349086054485D
:1038600040685349486008464068486008464068D8
:1038700048600846406820F4403048604D4C084697
:10388000406820F4803048606B4601AA45480168D2
:103890002046FFF78DFF46480068C0F313004449F7
:1038A00008609DF8040080069DF8001040EA015071
:1038B0003F49096808433E4908600846006B40F0EC
:1038C000805008633C48006840F480303A49086002
:1038D0000846006840F44040086000BF3648406831
:1038E00000F480300028F9D03148006840F0807042
:1038F0002F49086000BF2E48006800F000700028C3
:10390000F9D000BF2C48006840F400302A49086014
:103910000846406800F400300028F3D04FF47A7570
:1039200000BF281E00E014E0A5F10105F9D12048F0
:10393000406820F003001E4948600846406840F097
:103940000200486000BF1A48406800F00C000828D8
:10395000F9D13FBD00B516484068184908401449E0
:103960004860084600681649084011490860084642
:10397000006820F4802008600846406820F4FE00BB
:10398000486008460068C0F3130008604FF41F0049
:103990008860FFF740FF0B480B49086000BD00003E
:1039A000006CDC02240000200020024000366E0182
:1039B00000100240001BB700007000400C00FFF830
:1039C000FFFFF6FE0030000808ED00E006488047E3
:1039D00006480047FEE7FEE7FEE7FEE7FEE7FEE7F4
:1039E000FEE7FEE7FEE7FEE755390008B5310008BF
:1039F00008B500200090FF20009002E00098401ED3
:103A0000009000980028F9D108BD01460020F84A2E
:103A1000106800F03800084310607047F4490968E6
:103A200021F00801F24A1160114609680143116052
:103A30007047EF49096821F01001ED4A1160114605
:103A40000968014311607047EA48E9494860EA485B
:103A500048607047E648006940F08000E44908612A
:103A600070470420E249C96801F0010109B1012051
:103A70000EE0DF49C96801F0040109B1022007E046
:103A8000DB49C96801F0100109B1032000E00420FE
:103A9000704770B504460425FFF7E3FF054605E0CF
:103AA000FFF7A6FFFFF7DDFF0546641E012D01D1DC
:103AB000002CF5D104B90525284670BD70B5054622
:103AC000042440F6FF70FFF7E4FF0446042C19D1EC
:103AD000C748006940F00200C549086108464561D1
:103AE000006940F04000086140F6FF70FFF7D1FF29
:103AF0000446012C06D0BE48006943F6FD7108401B
:103B0000BB490861204670BD10B504246006B84961
:103B1000486140F6FF70FFF7BCFF0446042C18D143
:103B2000B348006940F00400B149086108460069E3
:103B300040F04000086140F6FF70FFF7AAFF04461E
:103B4000012C06D0AA48006943F6FB710840A84939
:103B50000861204610BD10B50424A848A449486156
:103B60004014FFF796FF0446042C3BD1A148A0491E
:103B70008860A14888600846006940F0200008611C
:103B80000846006940F04000086140F6FF70FFF70A
:103B900080FF0446042C1CD19548006943F6DF7170
:103BA0000840934908610846006940F01000086128
:103BB000A520924908800F20FFF76BFF0446012CD7
:103BC00010D08B48006943F6EF71084088490861BE
:103BD00008E0012C06D08648006943F6EF710840E2
:103BE00083490861204610BD70B505460E46042481
:103BF0000F20FFF74EFF0446042C25D17C480069B6
:103C000040F001007A4908612E800F20FFF741FF44
:103C10000446042C0FD1300C68800F20FFF739FFC9
:103C20000446012C10D07248006943F6FE7108402A
:103C30006F49086108E0012C06D06D48006943F621
:103C4000FE7108406A490861204670BD70B505469E
:103C50000E4604240F20FFF71CFF0446042C13D14A
:103C60006348006940F00100614908612E800F201F
:103C7000FFF70FFF0446012C06D05D48006943F6AC
:103C8000FE7108405A490861204670BD70B505466E
:103C90000E4604240F20FFF7FCFE0446042C17D127
:103CA000544853498860544888600846006940F089
:103CB000100008612E800F20FFF7EBFE0446012C58
:103CC00006D04B48006943F6EF7108404849086147
:103CD000204670BD2DE9F04704464FF6FF76374683
:103CE000B046B1460425E443E6B2C4F30727C4F363
:103CF00007484FEA14690F20FFF7CBFE0546042D55
:103D000040D13C483A4988603B4888600846006991
:103D100040F010000861FF2E06D0384808300680B9
:103D20000F20FFF7B6FE0546042D08D1FF2F06D061
:103D300032480A3007800F20FFF7ABFE0546042DFE
:103D40000AD1B8F1FF0F07D02C480C30A0F8008042
:103D50000F20FFF79EFE0546042D0AD1B9F1FF0F93
:103D600007D026480E30A0F800900F20FFF791FEF4
:103D70000546012D06D01E48006943F6EF71084044
:103D80001B4908612846BDE8F08770B50546042444
:103D90001A48174948614014FFF77BFE0446042C7B
:103DA00049D1144812498860134888600846006960
:103DB00040F0200008610846006940F040000861BA
:103DC00040F6FF70FFF765FE0446042C2AD1084830
:103DD000006943F6DF71084005490861084600693B
:103DE00040F0100008615DB10020044908800AE03D
:103DF0000020024023016745AB89EFCD00F8FF1F8B
:103E0000A5204049088040F6FF70FFF742FE0446B7
:103E1000012C10D03C48006943F6EF7108403A4944
:103E2000086108E0012C06D03748006943F6DF71CD
:103E3000084035490861204670BD2DE9F04107462C
:103E40000D461646042431482F4988603048886062
:103E50000F20FFF71EFE0446042C1AD12A480069E1
:103E600040F010002849086147EA0500304340F05F
:103E7000F8002449891C08800F20FFF70AFE044639
:103E8000012C06D02048006943F6EF7108401E4916
:103E900008612046BDE8F0811B48C0698008704772
:103EA0001948006A704700201749096801F020018D
:103EB00009B1012000E00020704729B1124A1269BF
:103EC0000243114B1A6104E00F4A126982430E4B00
:103ED0001A61704701460020012908D10A4AD269B7
:103EE00002F001020AB1012008E0002006E0064AC3
:103EF000D2680A400AB1012000E000207047024960
:103F0000C860704700F8FF1F00200240230167458A
:103F1000AB89EFCD10B504469249601A8C4220D08F
:103F200006DCB4F1904F0AD08F482044A0BB0FE0CC
:103F3000B0F5806F1ED0B0F5006F2ED123E00121C7
:103F4000084600F0ECFB0021012000F0E8FB25E032
:103F50000121022000F0E3FB0021022000F0DFFB42
:103F60001CE00121042000F0DAFB0021042000F015
:103F7000D6FB13E00121082000F0D1FB002108202E
:103F800000F0CDFB0AE00121102000F0C8FB002169
:103F9000102000F0C4FB01E0FFE700BF00BF10BD30
:103FA0002DE9F041024600250026002000230024D0
:103FB000002791F803C00CF00F0591F803C00CF036
:103FC000100CBCF1000F03D091F802C04CEA0505BB
:103FD00091F800C0BCF1000F31D0146800202BE034
:103FE0004FF0010C0CFA00F3B1F800C00CEA030624
:103FF0009E4220D183004FF00F0C0CFA03F7BC4314
:1040000005FA03FC4CEA040491F803C0BCF1280F44
:1040100006D14FF0010C0CFA00FCC2F814C00AE003
:1040200091F803C0BCF1480F05D14FF0010C0CFA18
:1040300000FCC2F810C0401C0828D1D31460B1F8AD
:1040400000C0BCF1FF0F34DD546800202EE000F109
:10405000080C4FF0010808FA0CF3B1F800C00CEAA4
:1040600003069E4221D183004FF00F0C0CFA03F798
:10407000BC4305FA03FC4CEA040491F803C0BCF10C
:10408000280F05D100F1080C08FA0CF8C2F81480CA
:1040900091F803C0BCF1480F07D100F1080C4FF0B4
:1040A000010808FA0CF8C2F81080401C0828CED38A
:1040B0005460BDE8F0814FF6FF71018002218170EC
:1040C0000421C17070470246002093680B400BB179
:1040D000012000E0002070470146886880B27047E8
:1040E00002460020D3680B400BB1012000E0002005
:1040F00070470146C86880B27047016170474161EE
:1041000070470AB1016100E041617047C1607047CA
:104110004FF480320A4382618161826182698269DF
:104120007047F0B5002300244D07ED0E02FA05F3A9
:10413000CD105DB9056A4E07F70E0F26BE40B54398
:104140000562056A45EA030404620AE0456A4E070F
:10415000F70E0F26BE40B5434562456A45EA0304A3
:104160004462F0BD0008004800FCFFB73449014339
:10417000344A1160704770B5002100230F22C478C3
:1041800004B3304C246804F4E064C4F5E064210A0C
:10419000C1F10403CA40447804FA03F1847814405E
:1041A00021430901284C0678A155047804F01F0525
:1041B0000124AC4005786D11AD0005F1E025C5F88E
:1041C000004109E0047804F01F050124AC401F4DB4
:1041D0000678761145F8264004786411A40004F1AD
:1041E000E024D4F8003170BD194A0A400243154B4F
:1041F0001B1F1A60704739B1124A121D1268024320
:10420000104B1B1D1A6006E00E4A121D12688243F5
:104210000C4B1B1D1A607047042808D14FF0E02199
:10422000096941F004014FF0E022116107E04FF00D
:10423000E021096921F004014FF0E022116170478B
:104240000000FA050CED00E000E400E080E100E091
:1042500080FFFF1FFE48006840F00100FC49086035
:1042600008464068FB490840F9494860084600682C
:10427000F9490840F64908600846006820F48020A3
:1042800008600846406820F4FE004860002088600E
:104290007047EF49096821F48031ED4A11601146F9
:1042A000096821F480211160B0F5803F03D0B0F59A
:1042B000802F0ED106E0E649096841F48031E44AD6
:1042C000116007E0E249096841F4A021E04A116069
:1042D00000E000BF00BF704710B501460022002378
:1042E00000204A11012A02D1D94C236806E0022A93
:1042F00002D1D74C636B01E0D54CA36B01F01F02D8
:10430000012494401C400CB1012000E0002010BDAD
:1043100038B5002000900024002500BF3120FFF7B1
:10432000DBFF05460098401C00901DB90098B0F5D1
:10433000A06FF3D13120FFF7CFFF08B1012400E0D7
:104340000024204638BD01460020C14A106820F0F4
:10435000F80040EAC10010607047012806D1BC494E
:10436000096841F00101BA4A116005E0B8490968DD
:1043700021F00101B64A1160704710B503460020D4
:10438000B34C2068B54C20408C0644EA02542043CC
:10439000AF4C206010BD70B506460C460025AC48F9
:1043A000456825F47C153543456024B9032207216F
:1043B0003046FFF7E2FFB4F5802F04D1012205213A
:1043C0003046FFF7DAFFB4F5002F04D101220721B0
:1043D0003046FFF7D2FFB4F5402F04D10122092166
:1043E0003046FFF7CAFFB4F5801F04D101220B212C
:1043F0003046FFF7C2FFB4F5A01F04D101220D2102
:104400003046FFF7BAFFB4F5C01F04D101220F21D7
:104410003046FFF7B2FFB4F5E01F04D101221121AD
:104420003046FFF7AAFFB4F5001F04D10122132183
:104430003046FFF7A2FFB4F5101F04D10122152169
:104440003046FFF79AFFB4F5201F04D1012217214F
:104450003046FFF792FFB4F5301F04D10122192135
:104460003046FFF78AFFB4F5401F04D101221B211B
:104470003046FFF782FFB4F5501F04D101221D2101
:104480003046FFF77AFFB4F5601F04D101221F21E7
:104490003046FFF772FFB4F5681F04D101220821EE
:1044A0003046FFF76AFFB4F5741F04D102220321DE
:1044B0003046FFF762FF70BD30B16549096841F0D1
:1044C0008071634A116005E06149096821F08071DB
:1044D0005F4A11607047014600205D4A506820F035
:1044E00003000843506070475948406800F00C00D2
:1044F000704701460020564A506820F0F0000843FB
:104500005060704701460020514A506820F4E06036
:10451000084350607047014600204D4A506820F41F
:10452000605040EAC1005060704731B1484A92681B
:1045300042EA0022464B9A6005E0454A926822EA28
:104540000022434B9A607047414949680143404A01
:10455000516070473E49C96B01433D4AD163704782
:10456000014600203A4A506820F440400843506019
:1045700070473749496B21F00101354A51631146B3
:10458000496B21F001015163012802D004280ED1AA
:1045900006E02F49496B41F001012D4A516307E0C4
:1045A0002B49496B41F00501294A516300E000BFE6
:1045B00000BF704730B12649896B41F00101244AA0
:1045C000916305E02249896B21F00101204A916342
:1045D00070471F49496B01431D4A5163704730B111
:1045E0001B49496B41F40041194A516305E01849E0
:1045F000496B21F40041164A51637047F0B5002120
:104600000024002300250022114E766806F00C01DC
:1046100021B1042905D0082939D105E0104E0660E2
:1046200038E00F4E066035E0094E3668012707EB8B
:104630009664074E3668C6F30256731C044E7668BD
:1046400006F4803595B9074E6643B6FBF3F60BE0EA
:10465000001002400000FFF8FFFFF6FEFFFF8F038F
:1046600000127A00001BB70006600FE0824E7668E9
:1046700006F400362EB1814E6643B6FBF3F60660B3
:1046800004E07F4E6643B6FBF3F6066002E07C4E24
:10469000066000BF00BF784E766806F0F001090999
:1046A000784E725C0668D6404660734E766806F4B3
:1046B000E061090A734E725C4668D64086606E4EB1
:1046C000766806F46051C90A6E4E725C4668D64040
:1046D000C660694E766806F44041890B6A4E725C8A
:1046E000C668B6FBF2F60661F0BD29B1624A126AED
:1046F0000243614B1A6204E05F4A126A82435E4BD6
:104700001A62704729B15C4A526A02435A4B5A6294
:1047100004E0594A526A8243574B5A62704729B1A2
:10472000554A926A0243544B9A6204E0524A926A92
:104730008243514B9A62704729B14F4AD26A024371
:104740004D4BDA6204E04C4AD26A82434A4BDA6249
:10475000704729B1484A126B0243474B1A6304E081
:10476000454A126B8243444B1A63704729B1424A4F
:10477000D2680243404BDA6004E03F4AD268824389
:104780003D4BDA60704729B13B4A126902433A4B0C
:104790001A6104E0384A12698243374B1A61704744
:1047A00029B1354A52690243334B5A6104E0324A17
:1047B00052698243304B5A61704729B12E4A92693F
:1047C00002432D4B9A6104E02B4A926982432A4BA3
:1047D0009A61704729B1284AD2690243264BDA61AF
:1047E00004E0254AD2698243234BDA6170470128ED
:1047F00006D12149496B41F480311F4A516305E0DC
:104800001D49496B21F480311B4A516370470128CF
:1048100006D11949096841F40021174A116005E0E1
:104820001549096821F40021134A116070471249A3
:10483000496821F0E061104A51601146496841EA37
:104840000061516070470C48806B40F080700A49ED
:104850008863704701460020074A92680A400AB1FF
:10486000012000E0002070470349896841EA0041C7
:10487000014A9160704700000010024000093D00AD
:1048800000127A00280000203800002010B50446ED
:10489000FE48844208D101210846FFF78EFF00211F
:1048A0000120FFF78AFF52E0B4F1804F08D10121C7
:1048B0000846FFF78FFF00210120FFF78BFF46E03E
:1048C000F348844208D101210220FFF783FF002131
:1048D0000220FFF77FFF3AE0EE48844208D1012131
:1048E0000420FFF777FF00210420FFF773FF2EE07D
:1048F000E948844208D101210820FFF76BFF00211D
:104900000820FFF767FF22E0E448844208D1012134
:104910001020FFF75FFF00211020FFF75BFF16E07C
:10492000DF48844208D101212020FFF753FF0021F6
:104930002020FFF74FFF0AE0DA48844207D1012127
:104940000220FFF73AFF00210220FFF736FF10BDDB
:1049500000220288CD4B98420ED0B0F1804F0BD090
:10496000CB4B984208D0CB4B984205D0CA4B9842CB
:1049700002D0CC4B984204D14FF68F731A404B882B
:104980001A4302804B68C3620B880385BF4B984271
:1049900002D0C44B984201D18B7A038601238382D3
:1049A00070474FF0FF31416000210180018141805B
:1049B000817270470185828270470A460021018812
:1049C0004FF68F7319401143018070474162704761
:1049D000C16270470146486A70470146088D7047BA
:1049E00021B1028842F00202028004E002884FF600
:1049F000FD731A400280704721B1028842F0040220
:104A0000028004E002884FF6FB731A400280704770
:104A100021B1028842F08002028004E002884FF651
:104A20007F731A400280704702884FF6F7731A406E
:104A3000028002880A430280704702884FF6FF43D3
:104A40001A40028002880A430280704721B102881E
:104A500042F00102028004E002884FF6FE731A4021
:104A6000028070470A884B881A438B881A43CB8888
:104A70001A430B891A434B891A438B891A434264A0
:104A800070470021018041808180C1800181418186
:104A90008181704721B1426C42F40042426403E0DC
:104AA000426CC2F30E024264704770B500240022CB
:104AB0000023058C4FF6FE7635400584028C8388F2
:104AC000048B4FF68F752C40B51E2C400D882C435F
:104AD000751E2A408D892A434D882A436B4DA84272
:104AE00002D0704DA84213D14FF6F7752A40CD89F8
:104AF0002A434FF6FB752A408D882A434FF6FF65FF
:104B00002B404FF6FF552B400D8A2B434D8A2B43EC
:104B1000838004838D684563028470BD70B5002472
:104B200000220023058C4FF6EF7635400584028C79
:104B30008388048B48F6FF752C404FF6FF452C40C8
:104B40000D884FF6FF7606EA05252C434FF6DF75F4
:104B50002A408D8906EA05152A434D8806EA05157F
:104B60002A434A4DA84202D04E4DA84225D14FF6C5
:104B7000FF352B400D8A4FF6FF7606EA85052B435D
:104B8000424DA84202D0474DA84216D14FF67F753C
:104B90002A40CD894FF6FF7606EA05152A434FF6DF
:104BA000BF752A408D8806EA05152A434FF2FF7526
:104BB0002B404D8A06EA85052B43838004838D684C
:104BC0008563028470BD70B5002400220023058C2B
:104BD0004FF6FF6635400584028C8388848B4FF640
:104BE0008F752C404FF6FC752C400D882C434FF6EA
:104BF000FF552A408D894FF6FF7606EA05252A43A0
:104C00004D8806EA05252A43204DA84202D0254DAD
:104C1000A8421DD14FF2FF752A40CD894FF6FF768D
:104C200006EA05252A434FF6FF352A408D8806EA15
:104C300005252A434EF6FF752B404DF6FF752B4098
:104C40000D8A06EA05152B434D8A06EA05152B4306
:104C5000838084838D68C563028470BD70B5002233
:104C600000230024058C4EF6FF7635400584038C26
:104C70008488828B48F6FF752A404FF6FF452A400C
:104C80000D884FF6FF7606EA05250DE0002C014061
:104C90000004004000080040000C004000100040EC
:104CA00000140040003401402A434DF6FF752B40AC
:104CB0008D8906EA05352B434D8806EA05352B43D9
:104CC000FB4DA84202D0FB4DA84208D14BF6FF7520
:104CD0002C400D8A4FF6FF7606EA85152C4384801A
:104CE00082838D680564038470BD0021018041804A
:104CF000818081608181C18101824182704770B56C
:104D00000346002000241846183001258D40ACB21F
:104D10001D8CA5431D8409B1082909D100EB610050
:104D2000056825F0700505600568154305600EE00F
:104D30000D1FC5F34E052844056825F4E0450560C0
:104D400005684FF6FF7606EA02263543056070BD1A
:104D50004163704781637047C16370470164704766
:104D60000A460021018B4FF68F73194011430183CE
:104D700070470A460021018B48F6FF7319404FF631
:104D8000FF7303EA02231943018370470A46002197
:104D9000818B4FF68F7319401143818370470A4608
:104DA0000021818B48F6FF7319404FF6FF7303EA29
:104DB000022319438183704721B1828842F00102A6
:104DC000828004E082884FF6FE731A40828070472A
:104DD0000A460021018B4FF6F773194011430183F6
:104DE00070470A460021018B4FF2FF7319404FF6BE
:104DF000FF7303EA02231943018370470A46002127
:104E0000818B4FF6F77319401143818370470A462F
:104E10000021818B4FF2FF7319404FF6FF7303EAB5
:104E200002231943818370470A460021018B4FF604
:104E3000FB7319401143018370470A460021018B1F
:104E40004FF6FF3319404FF6FF7303EA022319436D
:104E5000018370470A460021818B4FF6FB7319408E
:104E60001143818370470A460021818B4FF6FF333F
:104E700019404FF6FF7303EA0223194381837047F9
:104E80000A460021018B4FF67F73194011430183BD
:104E900070470A460021018BC1F30E014FF6FF73E4
:104EA00003EA02231943018370470A460021818BDC
:104EB0004FF67F7319401143818370470A460021E2
:104EC000818BC1F30E014FF6FF7303EA02231943EE
:104ED000818370470A460021018C4FF6FD7319400B
:104EE0001143018470470A460021018C4FF6F77385
:104EF00019401143018470470A460021018C4FF686
:104F0000DF7319404FF6FF7303EA0213194301845C
:104F100070470A460021018C4FF67F7319404FF607
:104F2000FF7303EA02131943018470470A46002104
:104F3000018C4FF6FF5319404FF6FF7303EA02232B
:104F40001943018470470A460021018C4FF2FF7318
:104F500019404FF6FF7303EA022319430184704797
:104F60000A460021018C4DF6FF7319404FF6FF737E
:104F700003EA0233194301847047704730B50023B8
:104F800001248C40A3B2048C9C430484048C02FA58
:104F900001F5ADB22C43048430BD30B500230424A8
:104FA0008C40A3B2048C9C430484048C02FA01F567
:104FB000ADB22C43048430BD21B1828842F004029A
:104FC000828004E082884FF6FB731A40828070472B
:104FD000828B4FF2FF331A408283828B4FF6FF732E
:104FE00003EA01231A4382837047F0B50C46154645
:104FF000002100220026078C4EF6FF7C07EA0C07F2
:105000000784818B028C4FF6FF7707EA043640F65F
:10501000FF4739404FF6FF7707EA052739434FF638
:10502000FF7707EA033739434DF6FF773A4046F4F6
:1050300080573A4381830284F0BD828B4FF6F3732D
:105040001A408283828B0A4382837047F0B50C46F4
:105050001546002100220026078C4FF6FF6C07EA58
:105060000C070784818B028C4FF6FF7707EA042632
:105070004FF60C7739404FF6FF7707EA03172F43B7
:1050800039434FF2FF573A4046F480773A438183E1
:105090000284F0BD028B4FF2FF331A400283028B71
:1050A0004FF6FF7303EA01231A430283704700009F
:1050B000002C014000340140F0B50C46154600219B
:1050C00000220026078C4FF6EF7C07EA0C070784C6
:1050D000018B028C4FF6FF7707EA041640F6FF4774
:1050E00039404FF6FF7707EA033739434FF6FF772A
:1050F00007EA052739434FF65F773A4046F0100735
:105100003A4301830284F0BD028B4FF6F3731A40D9
:105110000283028B0A4302837047F0B50C461546A2
:1051200000210022068C4FF6FE773E400684018B5C
:10513000028C4FF60C7631407E1C06EA03162E4395
:1051400031434FF6F576324044F001063243018395
:105150000284F0BD70B505460C46208850B92389FD
:10516000A28861882846FFF7D8FFE1882846FFF724
:10517000CBFF25E0208804280AD12389A2886188F2
:105180002846FFF799FFE1882846FFF783FF17E0DD
:10519000208808280AD12389A28861882846FFF739
:1051A00055FFE1882846FFF748FF09E02389A288D8
:1051B00061882846FFF719FFE1882846FFF708FFB6
:1051C00070BD002101804180012181800021C180CA
:1051D000018170472DE9F04105460C460026012764
:1051E000608808B9022600E00026A088012801D1C5
:1051F000022700E001272088A0B92389A2886188BE
:105200002846FFF78AFFE1882846FFF77DFF2389BC
:105210003A4631462846FFF74FFFE1882846FFF718
:1052200039FF13E02389A28861882846FFF744FFED
:10523000E1882846FFF72EFF23893A463146284663
:10524000FFF76BFFE1882846FFF75EFFBDE8F081BE
:105250000146486B70470146886B70470146C86B32
:1052600070470146086C70471AB183890B438381EC
:1052700002E083898B4383817047818270470246B5
:105280000020138A0B400BB1012000E00020704782
:10529000CA430282704730B5024600200023002432
:1052A000158A05EA0103958905EA010413B10CB1D9
:1052B000012000E0002030BDCA430282704741EA6D
:1052C0000203A0F8483070471AB183890B438381E9
:1052D00002E083898B438381704721B1828842F049
:1052E0000802828004E082884FF6F7731A408280B9
:1052F000704701894FF6F8721140018170470A46E4
:10530000002101894FF68F731940114301817047C5
:1053100030B504460D4629462046FFF7F0FF2089A8
:1053200040F00700208130BD2DE9F04104460D46D4
:1053300016461F46602D06D13B46012231462046C7
:10534000FFF7BAFE05E03B46012231462046FFF753
:10535000E4FE29462046FFF7D2FF208940F00700EF
:105360002081BDE8F08130B50C4600210189C9B229
:105370004FF6FF7505EA03251543254329430181AF
:1053800030BD2DE9F04105460E46174698460024EB
:1053900043463A4631462846FFF7E5FF2C894FF64B
:1053A000F870044044F007044FF68F70044044F056
:1053B00070042C81BDE8F081F0B504460D46164618
:1053C0001F463B46324629462046FFF7CCFF208940
:1053D00040F480402081F0BD82884FF68F731A40E0
:1053E000828082880A438280704702894FF6F87370
:1053F0001A40028102890A430281704702894FF6EE
:105400007F731A40028102890A4302817047F0B516
:105410000C4615461E460021002200230189028BFE
:10542000038C4FF6F877394021434FF6FC473A405A
:1054300040F201173A434FF655773B404FF6FF775E
:1054400007EA06172F433B43018102830384F0BD23
:1054500021B1828842F08002828004E082884FF687
:105460007F731A408280704710B50446BC49601AA9
:105470008C4251D00CDCBB482044E0B1B0F5806FC9
:1054800023D0B0F5006F2AD0B0F5406F58D130E08E
:10549000B0F5806F4AD0B0F5404F03D0B0F5444F1F
:1054A0004ED130E001211020FFF787F900211020B4
:1054B000FFF783F945E001214804FFF78BF900214C
:1054C0004FF40030FFF786F93BE001218804FFF735
:1054D00081F900214FF48020FFF77CF931E00121B0
:1054E000C804FFF777F900214FF40020FFF772F9A5
:1054F00027E001210805FFF76DF900214FF4801026
:10550000FFF768F91DE001212020FFF756F900217F
:105510002020FFF752F914E001218807FFF75AF91C
:1055200000214FF08040FFF755F90AE00121C8073C
:10553000FFF750F900214FF00040FFF74BF900E072
:1055400000BF00BF10BD2DE9F04385B004460D46F5
:105550000026B046B14600272746E66940F2CF1044
:105560008643A888E9880843298908430643E661F9
:10557000A66926F01F06A889698908430643A66123
:105580006846FFF73BF87848874202D1DDF80C8087
:1055900001E0DDF808802868B8FBF0F0060928680B
:1055A000B8FBF0F000F00F092662C4F8249005B0B3
:1055B000BDE8F0834FF41651016030218180002155
:1055C000C18001811821418100218181704721B171
:1055D000826942F00102826104E082694FF6FE7343
:1055E0001A40826170471AB103690B43036102E0FC
:1055F00003698B43036170471AB183690B4383616D
:1056000002E083698B4383617047CAB202607047CE
:1056100001464868C0B270470246002093680B40BC
:105620000BB1012000E0002070478268CB439BB2A1
:105630001A408260704702460020D3680B400BB1CD
:10564000012000E00020704741617047C2694DF6BB
:10565000FF731A40C261C2690A43C261704721B137
:10566000C26942F48052C26104E0C2694EF6FF731F
:105670001A40C2617047826A02F47F428262826A83
:105680000A4382627047C26A02F47F42C262C26AFF
:105690000A43C262704721B1C26942F40062C2612A
:1056A00004E0C2694FF2FF731A40C261704721B132
:1056B000C26942F48072C26104E0C2694FF6FF63BE
:1056C0001A40C2617047B1F5007F04D1C26942F44B
:1056D0000072C26104E0C2694FF6FF531A40C26112
:1056E000704721B1C26942F48062C26104E0C269BC
:1056F0004FF6FF331A40C261704721B1026B42F48A
:105700008052026304E0026B4EF6FF731A4002639C
:105710007047026B4FF20F031A400263026B42EABA
:1057200001120263704721B1026B42F00102026371
:1057300004E0026B4FF6FE731A400263704721B11A
:10574000026B42F00202026304E0026B4FF6FD734B
:105750001A4002637047C16941F00801C161704796
:105760000078004000BCFFBF00380140D2B201E029
:1057700000F8012B491EFBD270470022F6E710B556
:1057800013460A4604461946FFF7F0FF204610BDAF
:1057900030B50B46014600202022012409E021FA01
:1057A00002F59D4205D303FA02F5491B04FA02F5FE
:1057B0002844151EA2F10102F1DC30BD064C074D54
:1057C00006E0E06840F0010394E8070098471034D1
:1057D000AC42F6D3FDF7F2FC945B0008B45B000822
:1057E0000FB4054B10B503A9044A029800F02CF839
:1057F00010BC5DF814FB0000533200083C00002090
:105800000FB4084B10B504A902AA039800F01CF8C5
:10581000044602A9002000F0B8F9204610BC5DF84B
:1058200014FB00008B5B000802E008C8121F08C1CF
:10583000002AFAD170477047002001E001C1121F11
:10584000002AFBD1704700002DE9FF4F8BB088463E
:105850000546002606E025280BD0DDE90D1290470D
:105860006D1C761C28780028F5D10FB03046BDE8B5
:10587000F08F0024A146A2460122AE4900E0044375
:1058800015F8013F203B02FA03F00842F7D12878CF
:105890002A2810D06FF02F022878A0F130010929B2
:1058A00015D809EB890102EB410144F0020400EB39
:1058B00001096D1CF0E758F8041B5FEA010903D5E4
:1058C00044F40054C9F1000944F002046D1C287826
:1058D0002E2817D115F8010F44F004042A280ED001
:1058E0006FF02F022878A0F1300109290AD80AEBBD
:1058F0008A0102EB410100EB010A6D1CF2E758F846
:1059000004AB6D1C28786C280FD006DC4C2817D00F
:1059100068280DD06A2814D104E0742810D07A28A1
:105920000FD10DE044F400140AE044F4801401E0C7
:1059300044F440146978814202D104F580146D1C4E
:105940006D1C2878692865D006DC00288DD0632876
:1059500027D0642806D15DE06E2808D073282AD0AD
:10596000752877D0DDE90D129047761CE0E0C4F38E
:105970000250022809D003280DD0D8F800100428BE
:105980000DD00E6008F10408D2E0D8F80010F2172C
:10599000C1E90062F6E7D8F800100E80F2E70E7059
:1059A000F0E718F8041B8DF8001000208DF80100B6
:1059B000EB46012003E058F804BB4FF0FF306107CD
:1059C0004FF0000701D40AE07F1C57450DDA8742EB
:1059D000FADB1BF807100029F6D106E07F1C87428E
:1059E000FCDB1BF807100029F8D1DDE90D23A9EB3A
:1059F00007008146214600F0B1F83044C61904E0A2
:105A0000DDE90D121BF8010B90477F1EF8D22146ED
:105A1000484688E058F8040BC4F302514FF00A0BD3
:105A2000032900D100B2042900D140B2002802DAD3
:105A300040422D2102E0210505D52B218DF82410AF
:105A4000012104E006E0E10710D02021F6E708AFCD
:105A5000089113E058F8040BC4F302514FF00A0BFD
:105A6000032900D180B2042900D1C0B20021EEE7A1
:105A70005946FFF78DFE303107F8011D0028F7D198
:105A8000ADEB070000F1200B600702D524F4803451
:105A900001E04FF0010ADA4502DDAAEB0B0000E05D
:105AA0000020824600EB0B0108980144A9EB01009D
:105AB0000A90E00306D4DDE90D2321460A9800F0A0
:105AC0004DF806444FF0000908E009A911F8090053
:105AD000DDE90D12904709F10109761C0899894505
:105AE000F3DBE0030CD5DDE90D2321460A9800F035
:105AF00035F8064404E0DDE90D1230209047761CAD
:105B0000BAF10001AAF1010AF5DC05E0DDE90D12A8
:105B100017F8010B9047761CBBF10001ABF1010BAC
:105B2000F4DC0A982146DDE90D2300F005F806446F
:105B30006D1C97E6092801002DE9F0410446002577
:105B40001E461746880404D405E039462020B04795
:105B50006D1C641EF9D52846BDE8F0812DE9F041A1
:105B6000044600251E469046C80301D5302700E0B4
:105B70002027880404D505E041463846B0476D1C0F
:105B8000641EF9D52846BDE8F0810A68531C0B60F5
:105B900010707047B45B0008000000204000000057
:105BA00028580008F45B0008400000203005000081
:105BB0003858000800AABBCCDDEEFF000000000052
:105BC00000000000000000000000000000000000D5
:105BD0000102030406070809006CDC020000000053
:105BE000010203040102030406070809020406086F
:045BF00000000000B1
:04000005080031B509
:00000001FF
