:020000040800F2
:1000000000000220F905000839060008390600083A
:10001000390600083906000839060008000000000B
:100020000000000000000000000000003906000889
:1000300039060008000000003906000839060008EB
:100040003906000839060008390600083906000894
:100050003906000839060008390600083906000884
:100060003906000839060008390600083906000874
:100070003906000839060008390600083906000864
:10008000390600083906000839060008000000009B
:1000900000000000390600080000000039060008D2
:1000A0003906000839060008390600083906000834
:1000B0003906000839060008390600083906000824
:1000C00000000000390600080000000039060008A2
:1000D0003906000839060008390600083906000804
:1000E00039060008390600083906000839060008F4
:1000F000390600083906000839060008000000002B
:10010000000000003906000839060008390600081A
:1001100039060008390600083906000839060008C3
:1001200039060008390600083906000839060008B3
:100130003906000839060008000000000000000031
:100140003906000800000000000000003906000821
:100150000000000000000000000000003906000858
:10016000000000000000000000000000000000008F
:100170000000000000000000000000003906000838
:10018000390600080000000039060008390600089A
:10019000000000000000000000000000000000005F
:1001A000000000000000000000000000000000004F
:0801B000000000005FF808F1F7
:1001B80010B5054C237833B9044B13B10448AFF399
:1001C80000800123237010BD3404002000000000CB
:1001D800B801000808B5034B1BB103490348AFF346
:1001E800008008BD0000000038040020B8010008A5
:1001F80080B500AF00F074F800F03EF84FF400410D
:100208004FF0904000F084F90346002B06D04FF4DD
:1002180000414FF0904000F0A2F905E04FF4004192
:100228004FF0904000F08DF91021124800F070F95D
:100238000346002B04D010210E4800F090F903E08B
:1002480010210C4800F07DF920210A4800F060F9DF
:100258000346002B04D02021064800F080F903E073
:100268002021044800F06DF94FF47A7000F05EF830
:10027800C4E700BF0004004880B582B000AF012188
:10028800032000F097F94FF40043BB800323BB71B0
:100298001023FB713B1D19464FF0904000F07CF88D
:1002A8003023BB800323BB711023FB713B1D194610
:1002B8000A4800F071F84FF400414FF0904000F008
:1002C80040F91021054800F03CF92021034800F0CE
:1002D80038F900BF0837BD4680BD00BF000400489C
:1002E80080B500AF6FF0040000F048F90B4B1B68B5
:1002F8000B4AA2FB03235B0DDAB20A4B1A70094BB7
:100308001B789BB21A465201D21A92001344DB00A2
:100318009AB2054B1A8000BF80BD00BF00000020C4
:1003280083DE1B43500400205204002080B485B0B3
:1003380000AF0346FB80FB88154A12881146154A10
:1003480001FB03F35360134B00229A60114B1B68A7
:10035800104A43F0010313600E4B1B68FB60FB68F7
:1003680003F00103002B04D0FB6803F48033002B57
:10037800F2D0084B1B68074A23F001031360054BB2
:1003880000229A6000BF1437BD4680BC704700BF8A
:100398005204002010E000E080B489B000AF78601B
:1003A80039600023FB6100233B610023BB6100230C
:1003B800FB6000237B610023BB603B68DB7803F0B4
:1003C8000F03FB613B68DB7803F01003002B05D0BB
:1003D8003B689B781A46FB691343FB613B681B88A3
:1003E800DBB2002B44D07B681B687B610023BB61B8
:1003F80038E00122BB6902FA03F3FB603B681B8803
:100408001A46FB6813403B613A69FB689A4226D159
:10041800BB699B00FB600F22FB6802FA03F3BB6019
:10042800BB68DB437A6913407B61FA69FB6802FAAF
:1004380003F37A6913437B613B68DB78282B05D18A
:100448000122BB699A407B685A6108E03B68DB7807
:10045800482B04D10122BB699A407B681A61BB69A9
:100468000133BB61BB69072BC3D97B687A691A6002
:100478003B681B88FF2B46D97B685B687B61002340
:10048800BB613AE0BB690833012202FA03F3FB605F
:100498003B681B881A46FB6813403B613A69FB6856
:1004A8009A4227D1BB699B00FB600F22FB6802FAC6
:1004B80003F3BB60BB68DB437A6913407B61FA696D
:1004C800FB6802FA03F37A6913437B613B68DB78C4
:1004D800282B05D1BB69083301229A407B685A61F1
:1004E8003B68DB78482B05D1BB69083301229A4069
:1004F8007B681A61BB690133BB61BB69072BC1D932
:100508007B687A695A6000BF2437BD4680BC704753
:1005180080B485B000AF78600B467B800023FB7306
:100528007B68DA687B881340002B02D00123FB73B9
:1005380001E00023FB73FB7B18461437BD4680BCE3
:10054800704780B483B000AF78600B467B807A88B0
:100558007B681A6100BF0C37BD4680BC704780B409
:1005680083B000AF78600B467B807A887B685A61DD
:1005780000BF0C37BD4680BC7047000080B483B014
:1005880000AF78607B68042B06D1094B1B68084ACA
:1005980043F00403136005E0054B1B68044A23F08D
:1005A8000403136000BF0C37BD4680BC704700BF12
:1005B80010E000E080B483B000AF78600B46FB70B9
:1005C800FB78002B06D0094B9A6A08497B681343CD
:1005D8008B6206E0054B9A6A7B68DB43034913404C
:1005E8008B6200BF0C37BD4680BC704700100240CC
:1005F800002103E0094B5B58435004310848094B7C
:1006080042189A42F6D3084A02E0002342F8043B13
:10061800064B9A42F9D3FFF7EBFD704744070008F1
:100628000000002034040020340400207804002056
:10063800FEE70000024B13B1024800F005B870470E
:10064800000000005D060008002301461A4618460F
:1006580000F01AB838B5084B084D5B1B9C1007D042
:10066800043B1D44013C55F804399847002CF9D146
:10067800BDE8384000F056B84407000840070008B5
:10068800704700BF704700BF2DE9F047DFF880A032
:100698000646DAF8000098460F469146FFF7F0FF45
:1006A8001A4B1B68D3F8484124B365681F2D26DC14
:1006B8005EB96B1C0235DAF80000636044F82570F7
:1006C800FFF7E0FF0020BDE8F087012304EB850178
:1006D800C1F88890D4F88821AB401A43022EC4F898
:1006E8008821C1F80881E4D1D4F88C211343C4F8D7
:1006F8008C31DEE703F5A674C3F84841D5E7DAF88C
:100708000000FFF7BFFF4FF0FF30DCE71C070008D1
:100718003004002008000020F8B500BFF8BC08BC71
:100728009E467047F8B500BFF8BC08BC9E467047A7
:080738003D060008DD01000888
:04074000B9010008F3
:1007440000127A000000000000000000F402002003
:100754005C030020C403002000000000000000002F
:100764000000000000000000000000000000000085
:100774000000000000000000000000000000000075
:100784000000000000000000000000000000000065
:100794000000000000000000000000000000000055
:1007A4000000000000000000000000000000000045
:1007B4000000000000000000000000000000000035
:1007C4000000000000000000000000000000000025
:1007D4000000000000000000000000000000000015
:1007E4000000000000000000000000000000000005
:1007F40001000000000000000E33CDAB34126DE6A2
:10080400ECDE05000B00000000000000000000000A
:1008140000000000000000000000000000000000D4
:1008240000000000000000000000000000000000C4
:1008340000000000000000000000000000000000B4
:1008440000000000000000000000000000000000A4
:040B74005404002005
:04000005080005F9F1
:00000001FF
