:020000040800F2
:1000000008040020D500000891030008D902000868
:1000100000000000000000000000000000000000E0
:1000200000000000000000000000000021040008A3
:100030000000000000000000B103000851050008A6
:1000400071060008A1030008F1030008E10100089F
:10005000E1030008B1010008C1010008D101000856
:10006000000000008101000891010008A1010008C2
:100070005101000811060008210600083106000899
:10008000410600080000000000000000E105000833
:1000900000000000F105000801060008E902000860
:1000A00000000000010400081104000851060008C7
:1000B00061060008610100087101000805010008DF
:1000C0000348854600F032F800480047F106000872
:1000D000080400200C4880F308880C480168090EC9
:1000E0000B4A914205D10B480B4901600B480C4962
:1000F00001600C4880470C480047FEE7FEE7FEE73A
:10010000FEE7FEE7FEE70000080400200400000010
:100110001F00000018100240010000000000014014
:100120000000000061050008C1000008064C012520
:10013000064E05E0E36807CC2B430C3C984710348F
:10014000B442F7D3FFF7C0FF2807000848070008AC
:1001500010B502480468A04710BD000080100008D8
:1001600010B502484468A04710BD0000C010000848
:1001700010B502488468A04710BD0000C0100008F8
:1001800010B50248446BA04710BD000040100008A5
:1001900010B50248846BA04710BD00004010000855
:1001A00010B50248C46BA04710BD00004010000805
:1001B00010B50248446AA04710BD00004010000876
:1001C00010B50248846AA04710BD00004010000826
:1001D00010B50248C46AA04710BD000040100008D6
:1001E00010B50248C469A04710BD000040100008C7
:1001F000FCB50246002500260196002000230024BD
:100200000096CE7835072D0FCE7810273E40002E71
:1002100001D08E7835430E78002E27D01468002048
:1002200021E00126864033460E881E400196019E3D
:100230009E4217D183000F269E4000962746009EBF
:10024000B7433C462E469E403443CE78282E03D1F9
:1002500001268640566105E0CE78482E02D101265F
:1002600086401661401C0828DBD314600E88FF2EE0
:100270002CDD5468002026E0064608360127B740EA
:100280003B460E881E400196019E9E421AD1830075
:100290000F269E4000962746009EB7433C462E46BA
:1002A0009E403443CE78282E04D1064608360127D6
:1002B000B7405761CE78482E04D10646083601274C
:1002C000B7401761401C0828D6D35460FCBD41617B
:1002D000704701617047000010B50248C469A0472B
:1002E00010BD00000010000810B50248C46AA04705
:1002F00010BD00008010000808B501210320400453
:1003000000F05EF80121C903684601800321817075
:100310001021C17069460920C006FFF769FF382126
:1003200068460180032181701021C17069460B4825
:10033000FFF75EFF0121C9030920C006FFF7C9FFCF
:1003400008210648FFF7C5FF10210448FFF7C1FF49
:1003500020210248FFF7BDFF08BD0000000400484F
:1003600010B510210348FFF7B4FF20210148FFF723
:10037000B0FF10BD0004004810B510210348FFF77E
:10038000A6FF20210148FFF7A2FF10BD000400488E
:1003900010B502488469A04710BD00000010000895
:1003A00010B502484469A04710BD00004010000885
:1003B00010B502488468A04710BD00004010000836
:1003C000002905D0054A52690243044B5A6104E0F2
:1003D000024A52698243014B5A6170470010024041
:1003E00010B50248046AA04710BD00004010000884
:1003F00010B502488469A04710BD000040100008F5
:1004000010B50248446BA04710BD000080100008E2
:1004100010B50248846BA04710BD00008010000892
:1004200010B50248C46BA04710BD000000100008C2
:1004300010B500F001F810BD0CB50020019000903F
:10044000414800680121090408433F49086000BF92
:100450003D48006801214904084000900198401C73
:1004600001900098002804D10521090201988842D2
:10047000EED135480068012149040840002802D027
:100480000120009001E0002000900098012859D13F
:100490002E480068102108432C490860084600686F
:1004A000C008C000086008460068022108432749C8
:1004B000086025484068244948600846406848600C
:1004C00008464068091508431F49486008464068C7
:1004D0000321090488431C4948600846006800035A
:1004E000000B0860084640680121090408431649CA
:1004F00048600846006805218906084312490860DB
:10050000084600680121090608430F49086000BF3A
:100510000D4800680121490608400028F8D00A4823
:100520004068800880000849486008464068022109
:1005300008430549486000BF034840680C21084053
:100540000828F9D10CBD0000001002400020024034
:1005500010B50248C468A04710BD00004010000854
:1005600010B51A4800680121084318490860084678
:10057000006804210843154908600846406814498A
:1005800008401249486008460068124908400F496F
:100590000860084600680121890488430B49086007
:1005A00008464068C3210904884308494860084652
:1005B00000680949084005490860084680680749FD
:1005C000084002498860FFF733FF10BD0010024069
:1005D0000CC0FFF8FFFFF6FEFFFF8F0062E262FF34
:1005E00010B50248C469A04710BD00008010000883
:1005F00010B50248446AA04710BD000080100008F2
:1006000010B50248846AA04710BD000080100008A1
:1006100010B502484468A04710BD000080100008D3
:1006200010B502488468A04710BD00008010000883
:1006300010B50248C468A04710BD00008010000833
:1006400010B502480469A04710BD000080100008E2
:1006500010B50248C46BA04710BD00008010000810
:1006600010B502480468A04710BD0000C010000883
:1006700010B502480469A04710BD000040100008F2
:1006800002E008C8121F08C1002AFAD1704770475B
:10069000002001E001C1121F002AFBD170470000B9
:1006A000002107E0002201E000BF521C034B9A42E8
:1006B000FAD3491C8142F5D370470000102700008F
:1006C00010B50446FFF718FE002C00D110BD09E05C
:1006D000FFF746FE6420FFF7E3FFFFF74DFE6420BF
:1006E000FFF7DEFF2046641E0028F1D100BFEDE7D2
:1006F0000A20FFF7E5FF09484069094908600846F4
:100700000068084908600549086980F3088800BF47
:1007100004480068804700BFFEE7000000100008A2
:10072000040000200000002048070008000000200E
:10073000080000008006000850070008080000209C
:100740000004000090060008000000000000000007
:04000005080000C12E
:00000001FF
