:020000040800F2
:1000000008040020D500000811020008F1010008D2
:1000100000000000000000000000000000000000E0
:100020000000000000000000000000008102000845
:1000300000000000000000003102000891020008EA
:10004000450400082102000851020008E1010008EF
:1000500041020008B1010008C1010008D1010008F7
:10006000000000008101000891010008A1010008C2
:1000700051010008E5030008F50300080504000825
:10008000150400080000000000000000B50300088F
:1000900000000000C5030008D503000801020008A5
:1000A0000000000061020008710200082504000839
:1000B000350400086101000871010008050100080D
:1000C0000348854600F032F8004800475504000810
:1000D000080400200C4880F308880C480168090EC9
:1000E0000B4A914205D10B480B4901600B480C4962
:1000F00001600C4880470C480047FEE7FEE7FEE73A
:10010000FEE7FEE7FEE70000080400200400000010
:100110001F00000018100240010000000000014014
:1001200000000000A1020008C1000008064C0125E3
:10013000064E05E0E36807CC2B430C3C984710348F
:10014000B442F7D3FFF7C0FFA4040008B4040008CA
:1001500080B502480068804780BDC04670400008F6
:1001600080B502480068804780BDC046B4400008A2
:1001700080B502480068804780BDC046B84000088E
:1001800080B502480068804780BDC04664400008D2
:1001900080B502480068804780BDC04668400008BE
:1001A00080B502480068804780BDC0466C400008AA
:1001B00080B502480068804780BDC04654400008B2
:1001C00080B502480068804780BDC046584000089E
:1001D00080B502480068804780BDC0465C4000088A
:1001E00080B502480068804780BDC0464C4000088A
:1001F00080B502480068804780BDC0460C400008BA
:1002000080B502480068804780BDC0469C40000819
:1002100080B502480068804780BDC046084000089D
:1002200080B502480068804780BDC0464440000851
:1002300080B502480068804780BDC046384000084D
:1002400080B502480068804780BDC0465040000825
:1002500080B502480068804780BDC046484000081D
:1002600080B502480068804780BDC046A4400008B1
:1002700080B502480068804780BDC046A84000089D
:1002800080B502480068804780BDC0462C40000809
:1002900080B502480068804780BDC0463C400008E9
:1002A0007CB53D48026801210A43026002680423CC
:1002B000134303604268394B134043600268384B74
:1002C000134003608A04036893430360C32212044B
:1002D0004368934343600268324B13400360826873
:1002E000314B134083600023019300930A04046898
:1002F000144304604C04056825400095019D6D1C65
:100300000195009D002D04D105252D02019EAE42D0
:10031000F1D10568254201D0009100E00093009BD7
:10032000012B37D1214C236810251D4325602368FC
:100330000725AB432360256802231D4325604468DD
:100340004460446844608C0245682543456003244A
:1003500025044668AE4346600568154E2E4006608B
:1003600045681543456005229206056815430560FA
:10037000090602680A43026001688901FCD54168E8
:10038000A143416041681943416041680C220A4021
:10039000082AFAD17CBDC046001002400CC0FFF80C
:1003A000FFFFF6FEFFFF8F0062E262FF00200240C7
:1003B000FFFF0F0080B502480068804780BDC0463F
:1003C0008C40000880B502480068804780BDC04668
:1003D0009440000880B502480068804780BDC04650
:1003E0009840000880B502480068804780BDC0463C
:1003F0007440000880B502480068804780BDC04650
:100400007840000880B502480068804780BDC0463B
:100410007C40000880B502480068804780BDC04627
:100420008040000880B502480068804780BDC04613
:10043000AC40000880B502480068804780BDC046D7
:10044000B040000880B502480068804780BDC046C3
:100450004040000808480168084A0A40012149074D
:100460008A4208D14168064A11605160006880F3F1
:10047000088850688047FEE7002000080000FE2F33
:100480000000002002E008C8121F08C1002AFAD1AB
:1004900070477047002001E001C1121F002AFBD104
:1004A00070470000B40400080000002008040000A9
:0404B00094040008A8
:04000005080000C12E
:00000001FF
