:020000040800F2
:1030000068050020793900088139000883390008F3
:103010008539000887390008893900080000000058
:103020000000000000000000000000008B390008D4
:103030008D390008000000008F3900089139000820
:103040009339000893390008933900089339000830
:103050009339000893390008933900089339000820
:103060009339000893390008933900089339000810
:103070009339000893390008933900089339000800
:1030800093390008933900089339000800000000C4
:103090000000000093390008000000009339000888
:1030A00093390008933900089339000893390008D0
:1030B00093390008933900089339000893390008C0
:1030C0000000000093390008000000009339000858
:1030D000933900088D3600089339000893390008A9
:1030E0009339000893390008933900089339000890
:1030F0009339000893390008933900080000000054
:103100000000000093390008933900089339000843
:10311000933900089339000893390008933900085F
:10312000933900089339000893390008933900084F
:1031300093390008933900080000000000000000E7
:1031400093390008000000000000000093390008D7
:10315000000000000000000000000000933900089B
:10316000000000000000000000000000000000005F
:10317000000000000000000000000000933900087B
:1031800093390008000000009339000893390008C3
:10319000000000000000000000000000000000002F
:1031A000000000000000000000000000000000001F
:1031B00000000000DFF80CD001F0E8FC00480047F8
:1031C0006B3400086805002010B50424F948007825
:1031D00080B9F9A001F0ECFC00F00CFC342000F008
:1031E00064FEF44800F040FC044600BF042CFDD10E
:1031F00000F006FC10BD0424EE48007888B100F011
:10320000F9FB342000F051FE0021EA4800F0C2FC36
:10321000044600BF042CFDD100F0F2FBEDA001F04C
:10322000C7FCF3A001F0C4FC012080F3138800BFA9
:1032300000BFBFF34F8FF548006800F4E060F44929
:103240000843001DF1490860BFF34F8F00BF00BF66
:10325000FEE700BFEF4A126802F00102002AF9D02F
:10326000C2B2EC4B083B1A6070470146EA4A12882A
:103270004A434FF0E0235A6100229A611A461269CC
:1032800042F001021A6100BF4FF0E022106900F025
:1032900001021AB100F48032002AF5D04FF0E0228A
:1032A000126922F001024FF0E0231A6100229A61B4
:1032B000704710B504462146D648083801F08DFB0A
:1032C00000BF0121D348083801F08EFB0028F8D058
:1032D00010BD70B504460D4603E014F8010BFFF76E
:1032E000E8FF281EA5F101018DB2F6D170BD10B521
:1032F00086B004460121102001F0F4F901210846AE
:1033000001F0E3F925208DF8000003208DF801007D
:103310008DF8020001208DF80300684600F001FFDF
:103320000121102001F0DEF9BA48083801F084FAD2
:1033300001943020ADF808000020ADF80A00ADF887
:103340000C00ADF810001820ADF80E0001A9B1482E
:10335000083801F0E0FA01220221AE48083801F0F5
:103360002AFB0121AB48083801F019FB4FF400702B
:10337000ADF8140003208DF8160018208DF8170002
:1033800005A94FF0904000F0E1FD07220921C80691
:1033900000F09DFE4FF48060ADF8140004208DF81D
:1033A000170005A94FF0904000F0D0FD07220A2138
:1033B0004FF0904000F08BFE06B010BD08B5012123
:1033C000032001F082F94FF40040ADF80000032023
:1033D0008DF8020010208DF8030069464FF09040F0
:1033E00000F0B4FD3020ADF8000003208DF802009D
:1033F00010208DF803006946884800F0A7FD4FF4BF
:1034000000414FF0904000F04EFE1021834800F044
:103410004AFE2021814800F046FE4FF400414FF063
:10342000904000F042FE10217C4800F03EFE20213A
:103430007A4800F03AFE08BD10B56FF0040000F0C5
:10344000C1FE774800687749B0FBF1F07649087013
:103450000846007800EB4001C1EBC0104FF6FF7149
:1034600001EAC0006C49088010BD4FF440514FF094
:10347000006000F08FFE62B6FFF7DEFFFFF79EFFF1
:103480004FF49640FFF733FFFFF79EFE67A001F071
:103490008FFB69A16E4801F09BFB84B221466C480A
:1034A000FFF717FF33E04FF400414FF0904000F07A
:1034B000EDFD30B14FF400414FF0904000F0F5FDCC
:1034C00005E04FF400414FF0904000F0ECFD10217A
:1034D000524800F0DBFD20B11021504800F0E5FD1E
:1034E00003E010214D4800F0DEFD20214B4800F0A4
:1034F000CDFD20B12021494800F0D7FD03E0202177
:10350000464800F0D0FD4FF47A70FFF7AEFECAE7F0
:1035100010B504460DE021783E48083801F05DFA08
:1035200000BF01213B48083801F05EFA0028F8D0BE
:10353000641C20780028EED110BD10B545480078F5
:1035400045490978884229D142484078424949781A
:10355000884223D13F4880783F49897888421DD1ED
:103560003C48C0783C49C978884217D1394800792D
:1035700039490979884211D1364840793649497923
:1035800088420BD135A001F013FB6421314801F0D2
:10359000DCFA002037490880FFF72DFE36A001F045
:1035A00007FB64212B4801F0D0FA00203149088044
:1035B00010BD0000FCFF0108D5FDD4DAC7E5B3FD5E
:1035C000494150C9FDBCB6B1EAD6BE2E2E2E0D0A19
:1035D0000D0A0000C9FDBCB6B1EAD6BECEBBD0B460
:1035E000C8EBB3C9B9A62E2E2E0D0A0D0A00000095
:1035F000BCB4BDABBDF8C8EB494150C9FDBCB6B3C6
:10360000CCD0F22E2E2E0D0A0D0A00000CED00E09B
:103610000000FA05083801400C00002000040048B2
:103620002000002000127A000A0000204D4D3332A5
:103630005F544553540D0A000D0AC4FAB7A2CBCD0E
:10364000B5C4CFFBCFA2CEAA3A74650D0A00000024
:10365000040100203C000020010000206D6D333289
:103660005F6961705F7570646174655F73746172C6
:1036700074000000080000204D4D33325F49415076
:103680005F434D445F6572726F72000010B5022196
:103690002F4801F0B8F9002858D002212C4801F039
:1036A000BBF92B4801F09CF9C4B20D2C17D1294865
:1036B0000088C0F30D00002811DD2648008840F482
:1036C00080402449088008460088C0F30D00224944
:1036D0000C5420480088401C1E49088036E01D48D4
:1036E000008800F48040D8B11A480088C0F30D006B
:1036F000002815DD0A2C05D11648008840F400404A
:103700001449088013480088C0F30D0012490C5476
:1037100010480088401C0F490880FFF70EFF15E095
:103720000C480088C0F30D000B490C540948008870
:10373000401C0849088008460088C0F30D00088036
:1037400008460088C72801DD0020088010BD000061
:1037500000380140080000203C0000202DE9F04323
:10376000054616461F4608464FF0000C002423E08D
:10377000002319E003F1010805FB08F804F1010931
:10378000B8FBF9F28A4202D9A2EB010801E0A1EBF1
:1037900002084246904202D9104633703C7010B97C
:1037A0004FF0010C02E05B1C402BE3D300BFBCF1E7
:1037B000000F00D002E0641C042CD9D300BFBDE888
:1037C000F0833FB500200390012002905F486049DC
:1037D0000860029801287CD15E48006840F0100023
:1037E0005C4908600846006820F0070008605848F7
:1037F0000068401E5849B0FBF1F4072C00D907249B
:10380000544800682043534908605448406853496D
:103810004860084640684860084640684860084676
:10382000406820F4403048604D4C0846406820F421
:10383000803048606B4601AA454801682046FFF782
:103840008DFF46480068C0F31300444908609DF8A6
:10385000040080069DF8001040EA01503F490968C5
:1038600008433E4908600846006B40F080500863FA
:103870003C48006840F480303A49086008460068D7
:1038800040F44040086000BF3648406800F4803093
:103890000028F9D03148006840F080702F49086056
:1038A00000BF2E48006800F000700028F9D000BF6B
:1038B0002C48006840F400302A49086008464068F7
:1038C00000F400300028F3D04FF47A7500BF281EB2
:1038D00000E014E0A5F10105F9D12048406820F08E
:1038E00003001E4948600846406840F002004860F6
:1038F00000BF1A48406800F00C000828F9D13FBD0D
:1039000000B5164840681849084014494860084600
:10391000006816490840114908600846006820F40C
:10392000802008600846406820F4FE004860084691
:103930000068C0F3130008604FF41F008860FFF7B1
:1039400040FF0B480B49086000BD0000006CDC0222
:10395000200000200020024000366E0100100240CE
:10396000001BB700007000400C00FFF8FFFFF6FEE0
:103970000030000808ED00E0064880470648004790
:10398000FEE7FEE7FEE7FEE7FEE7FEE7FEE7FEE70F
:10399000FEE7FEE701390008B531000808B5002050
:1039A0000090FF20009002E00098401E00900098D8
:1039B0000028F9D108BD01460020F84A106800F03F
:1039C0003800084310607047F449096821F0080185
:1039D000F24A116011460968014311607047EF49CE
:1039E000096821F01001ED4A116011460968014390
:1039F00011607047EA48E9494860EA484860704702
:103A0000E648006940F08000E449086170470420FE
:103A1000E249C96801F0010109B101200EE0DF4966
:103A2000C96801F0040109B1022007E0DB49C96857
:103A300001F0100109B1032000E00420704770B5C7
:103A400004460425FFF7E3FF054605E0FFF7A6FF60
:103A5000FFF7DDFF0546641E012D01D1002CF5D1D5
:103A600004B90525284670BD70B50546042440F606
:103A7000FF70FFF7E4FF0446042C19D1C748006922
:103A800040F00200C549086108464561006940F000
:103A90004000086140F6FF70FFF7D1FF0446012C9B
:103AA00006D0BE48006943F6FD710840BB49086175
:103AB000204670BD10B504246006B849486140F640
:103AC000FF70FFF7BCFF0446042C18D1B34800690F
:103AD00040F00400B14908610846006940F0400028
:103AE000086140F6FF70FFF7AAFF0446012C06D0DC
:103AF000AA48006943F6FB710840A84908612046BE
:103B000010BD10B50424A848A44948614014FFF72B
:103B100096FF0446042C3BD1A148A0498860A148E7
:103B200088600846006940F0200008610846006986
:103B300040F04000086140F6FF70FFF780FF044648
:103B4000042C1CD19548006943F6DF710840934965
:103B500008610846006940F010000861A5209249FC
:103B600008800F20FFF76BFF0446012C10D08B4814
:103B7000006943F6EF7108408849086108E0012CAC
:103B800006D08648006943F6EF7108408349086112
:103B9000204610BD70B505460E4604240F20FFF7E1
:103BA0004EFF0446042C25D17C48006940F00100FA
:103BB0007A4908612E800F20FFF741FF0446042C4C
:103BC0000FD1300C68800F20FFF739FF0446012C1D
:103BD00010D07248006943F6FE7108406F490861D1
:103BE00008E0012C06D06D48006943F6FE710840DC
:103BF0006A490861204670BD70B505460E4604242A
:103C00000F20FFF71CFF0446042C13D16348006902
:103C100040F00100614908612E800F20FFF70FFF7F
:103C20000446012C06D05D48006943F6FE71084049
:103C30005A490861204670BD70B505460E460424F9
:103C40000F20FFF7FCFE0446042C17D154485349BB
:103C50008860544888600846006940F01000086198
:103C60002E800F20FFF7EBFE0446012C06D04B48B8
:103C7000006943F6EF71084048490861204670BD6D
:103C80002DE9F04704464FF6FF763746B046B14679
:103C90000425E443E6B2C4F30727C4F307484FEA18
:103CA00014690F20FFF7CBFE0546042D40D13C4898
:103CB0003A4988603B4888600846006940F0100037
:103CC0000861FF2E06D03848083006800F20FFF725
:103CD000B6FE0546042D08D1FF2F06D032480A3023
:103CE00007800F20FFF7ABFE0546042D0AD1B8F17F
:103CF000FF0F07D02C480C30A0F800800F20FFF7F2
:103D00009EFE0546042D0AD1B9F1FF0F07D02648C3
:103D10000E30A0F800900F20FFF791FE0546012D10
:103D200006D01E48006943F6EF7108401B49086140
:103D30002846BDE8F08770B5054604241A4817499F
:103D400048614014FFF77BFE0446042C49D1144817
:103D500012498860134888600846006940F02000D6
:103D600008610846006940F04000086140F6FF70B5
:103D7000FFF765FE0446042C2AD10848006943F683
:103D8000DF710840054908610846006940F01000ED
:103D900008615DB10020044908800AE0002002406B
:103DA00023016745AB89EFCD00F8FF1FA5204049EF
:103DB000088040F6FF70FFF742FE0446012C10D049
:103DC0003C48006943F6EF7108403A49086108E051
:103DD000012C06D03748006943F6DF7108403549A9
:103DE0000861204670BD2DE9F04107460D46164694
:103DF000042431482F498860304888600F20FFF73D
:103E00001EFE0446042C1AD12A48006940F0100016
:103E10002849086147EA0500304340F0F80024498A
:103E2000891C08800F20FFF70AFE0446012C06D0EB
:103E30002048006943F6EF7108401E49086120469A
:103E4000BDE8F0811B48C069800870471948006AC6
:103E5000704700201749096801F0200109B10120CD
:103E600000E00020704729B1124A12690243114B49
:103E70001A6104E00F4A126982430E4B1A617047BF
:103E800001460020012908D10A4AD26902F0010244
:103E90000AB1012008E0002006E0064AD2680A4084
:103EA0000AB1012000E0002070470249C860704755
:103EB00000F8FF1F0020024023016745AB89EFCDCA
:103EC00010B504469249601A8C4220D006DCB4F149
:103ED000904F0AD08F482044A0BB0FE0B0F5806F10
:103EE0001ED0B0F5006F2ED123E00121084600F06E
:103EF000ECFB0021012000F0E8FB25E0012102207D
:103F000000F0E3FB0021022000F0DFFB1CE00121B8
:103F1000042000F0DAFB0021042000F0D6FB13E0BF
:103F20000121082000F0D1FB0021082000F0CDFB8A
:103F30000AE00121102000F0C8FB0021102000F051
:103F4000C4FB01E0FFE700BF00BF10BD2DE9F04159
:103F5000024600250026002000230024002791F8B7
:103F600003C00CF00F0591F803C00CF0100CBCF16D
:103F7000000F03D091F802C04CEA050591F800C08B
:103F8000BCF1000F31D0146800202BE04FF0010C81
:103F90000CFA00F3B1F800C00CEA03069E4220D1EF
:103FA00083004FF00F0C0CFA03F7BC4305FA03FC37
:103FB0004CEA040491F803C0BCF1280F06D14FF07D
:103FC000010C0CFA00FCC2F814C00AE091F803C01E
:103FD000BCF1480F05D14FF0010C0CFA00FCC2F8FF
:103FE00010C0401C0828D1D31460B1F800C0BCF147
:103FF000FF0F34DD546800202EE000F1080C4FF074
:10400000010808FA0CF3B1F800C00CEA03069E425E
:1040100021D183004FF00F0C0CFA03F7BC4305FAD3
:1040200003FC4CEA040491F803C0BCF1280F05D14D
:1040300000F1080C08FA0CF8C2F8148091F803C0DB
:10404000BCF1480F07D100F1080C4FF0010808FA45
:104050000CF8C2F81080401C0828CED35460BDE88C
:10406000F0814FF6FF710180022181700421C1703F
:1040700070470246002093680B400BB1012000E01E
:10408000002070470146886880B2704702460020D1
:10409000D3680B400BB1012000E0002070470146BF
:1040A000C86880B2704701617047416170470AB1CA
:1040B000016100E041617047C16070474FF4803298
:1040C0000A43826181618261826982697047F0B5C9
:1040D000002300244D07ED0E02FA05F3CD105DB963
:1040E000056A4E07F70E0F26BE40B5430562056A06
:1040F00045EA030404620AE0456A4E07F70E0F26FC
:10410000BE40B5434562456A45EA03044462F0BDDA
:104110000008004800FCFFB734490143344A1160ED
:10412000704770B5002100230F22C47804B3304CCF
:10413000246804F4E064C4F5E064210AC1F10403D6
:10414000CA40447804FA03F18478144021430901F9
:10415000284C0678A155047804F01F050124AC40D2
:1041600005786D11AD0005F1E025C5F8004109E0C5
:10417000047804F01F050124AC401F4D0678761129
:1041800045F8264004786411A40004F1E024D4F832
:10419000003170BD194A0A400243154B1B1F1A60BB
:1041A000704739B1124A121D12680243104B1B1D91
:1041B0001A6006E00E4A121D126882430C4B1B1D4A
:1041C0001A607047042808D14FF0E021096941F0D6
:1041D00004014FF0E022116107E04FF0E02109698E
:1041E00021F004014FF0E022116170470000FA0550
:1041F0000CED00E000E400E080E100E080FFFF1F44
:10420000FE48006840F00100FC490860084640682C
:10421000FB490840F949486008460068F9490840E8
:10422000F64908600846006820F4802008600846C7
:10423000406820F4FE004860002088607047EF4925
:10424000096821F48031ED4A11601146096821F4B2
:1042500080211160B0F5803F03D0B0F5802F0ED1E2
:1042600006E0E649096841F48031E44A116007E05C
:10427000E249096841F4A021E04A116000E000BF72
:1042800000BF704710B501460022002300204A11EC
:10429000012A02D1D94C236806E0022A02D1D74C68
:1042A000636B01E0D54CA36B01F01F020124944025
:1042B0001C400CB1012000E0002010BD38B50020EA
:1042C00000900024002500BF3120FFF7DBFF0546EA
:1042D0000098401C00901DB90098B0F5A06FF3D174
:1042E0003120FFF7CFFF08B1012400E00024204671
:1042F00038BD01460020C14A106820F0F80040EAAD
:10430000C10010607047012806D1BC49096841F01E
:104310000101BA4A116005E0B849096821F00101BC
:10432000B64A1160704710B503460020B34C2068B0
:10433000B54C20408C0644EA02542043AF4C206028
:1043400010BD70B506460C460025AC48456825F4FE
:104350007C153543456024B9032207213046FFF719
:10436000E2FFB4F5802F04D1012205213046FFF78A
:10437000DAFFB4F5002F04D1012207213046FFF700
:10438000D2FFB4F5402F04D1012209213046FFF7B6
:10439000CAFFB4F5801F04D101220B213046FFF77C
:1043A000C2FFB4F5A01F04D101220D213046FFF752
:1043B000BAFFB4F5C01F04D101220F213046FFF728
:1043C000B2FFB4F5E01F04D1012211213046FFF7FE
:1043D000AAFFB4F5001F04D1012213213046FFF7D4
:1043E000A2FFB4F5101F04D1012215213046FFF7BA
:1043F0009AFFB4F5201F04D1012217213046FFF7A0
:1044000092FFB4F5301F04D1012219213046FFF785
:104410008AFFB4F5401F04D101221B213046FFF76B
:1044200082FFB4F5501F04D101221D213046FFF751
:104430007AFFB4F5601F04D101221F213046FFF737
:1044400072FFB4F5681F04D1012208213046FFF73E
:104450006AFFB4F5741F04D1022203213046FFF72E
:1044600062FF70BD30B16549096841F08071634AEF
:10447000116005E06149096821F080715F4A1160AF
:104480007047014600205D4A506820F00300084351
:10449000506070475948406800F00C007047014672
:1044A0000020564A506820F0F000084350607047E2
:1044B00001460020514A506820F4E06008435060F3
:1044C0007047014600204D4A506820F4605040EA91
:1044D000C1005060704731B1484A926842EA0022F8
:1044E000464B9A6005E0454A926822EA0022434B17
:1044F0009A607047414949680143404A516070479A
:104500003E49C96B01433D4AD163704701460020D3
:104510003A4A506820F44040084350607047374999
:10452000496B21F00101354A51631146496B21F075
:1045300001015163012802D004280ED106E02F4961
:10454000496B41F001012D4A516307E02B49496B4A
:1045500041F00501294A516300E000BF00BF7047E8
:1045600030B12649896B41F00101244A916305E08D
:104570002249896B21F00101204A916370471F494C
:10458000496B01431D4A5163704730B11B49496B68
:1045900041F40041194A516305E01849496B21F47F
:1045A0000041164A51637047F0B5002100240023F2
:1045B00000250022114E766806F00C0121B1042975
:1045C00005D0082939D105E0104E066038E00F4EBD
:1045D000066035E0094E3668012707EB9664074E02
:1045E0003668C6F30256731C044E766806F48035AE
:1045F00095B9074E6643B6FBF3F60BE00010024098
:104600000000FFF8FFFFF6FEFFFF8F0300127A00A5
:10461000001BB70006600FE0824E766806F4003695
:104620002EB1814E6643B6FBF3F6066004E07F4E82
:104630006643B6FBF3F6066002E07C4E066000BF00
:1046400000BF784E766806F0F0010909784E725C7A
:104650000668D6404660734E766806F4E061090A43
:10466000734E725C4668D64086606E4E766806F47D
:104670006051C90A6E4E725C4668D640C660694E8B
:10468000766806F44041890B6A4E725CC668B6FBD8
:10469000F2F60661F0BD29B1624A126A0243614B2B
:1046A0001A6204E05F4A126A82435E4B1A627047E4
:1046B00029B15C4A526A02435A4B5A6204E0594A91
:1046C000526A8243574B5A62704729B1554A926ADF
:1046D0000243544B9A6204E0524A926A8243514B1D
:1046E0009A62704729B14F4AD26A02434D4BDA624F
:1046F00004E04C4AD26A82434A4BDA62704729B1DD
:10470000484A126B0243474B1A6304E0454A126B56
:104710008243444B1A63704729B1424AD26802432C
:10472000404BDA6004E03F4AD26882433D4BDA6096
:10473000704729B13B4A126902433A4B1A6104E0BF
:10474000384A12698243374B1A61704729B1354A9A
:1047500052690243334B5A6104E0324A5269824340
:10476000304B5A61704729B12E4A926902432D4B52
:104770009A6104E02B4A926982432A4B9A617047FE
:1047800029B1284AD2690243264BDA6104E0254A5E
:10479000D2698243234BDA617047012806D121494F
:1047A000496B41F480311F4A516305E01D49496B53
:1047B00021F480311B4A51637047012806D1194901
:1047C000096841F40021174A116005E0154909689C
:1047D00021F40021134A116070471249496821F001
:1047E000E061104A51601146496841EA0061516038
:1047F00070470C48806B40F080700A4988637047AE
:1048000001460020074A92680A400AB1012000E0F0
:10481000002070470349896841EA0041014A9160DC
:10482000704700000010024000093D0000127A00AD
:10483000240000203400002010B50446BC49601A52
:104840008C4251D00CDCBB482044E0B1B0F5806F05
:1048500023D0B0F5006F2AD0B0F5406F58D130E0CA
:10486000B0F5806F4AD0B0F5404F03D0B0F5444F5B
:104870004ED130E001211020FFF775FF00211020FC
:10488000FFF771FF45E001214804FFF779FF0021A0
:104890004FF40030FFF774FF3BE001218804FFF77D
:1048A0006FFF00214FF48020FFF76AFF31E0012104
:1048B000C804FFF765FF00214FF40020FFF760FFF9
:1048C00027E001210805FFF75BFF00214FF480106E
:1048D000FFF756FF1DE001212020FFF744FF0021D4
:1048E0002020FFF740FF14E001218807FFF748FF71
:1048F00000214FF08040FFF743FF0AE00121C80785
:10490000FFF73EFF00214FF00040FFF739FF00E0C6
:1049100000BF00BF10BD2DE9F04385B004460D4631
:104920000026B046B14600272746E66940F2CF1080
:104930008643A888E9880843298908430643E66135
:10494000A66926F01F06A889698908430643A6615F
:104950006846FFF729FE7848874202D1DDF80C80CF
:1049600001E0DDF808802868B8FBF0F00609286847
:10497000B8FBF0F000F00F092662C4F8249005B0EF
:10498000BDE8F0834FF41651016030218180002191
:10499000C18001811821418100218181704721B1AD
:1049A000826942F00102826104E082694FF6FE737F
:1049B0001A40826170471AB103690B43036102E038
:1049C00003698B43036170471AB183690B438361A9
:1049D00002E083698B4383617047CAB2026070470B
:1049E00001464868C0B270470246002093680B40F9
:1049F0000BB1012000E0002070478268CB439BB2DE
:104A00001A408260704702460020D3680B400BB109
:104A1000012000E00020704741617047C2694DF6F7
:104A2000FF731A40C261C2690A43C261704721B173
:104A3000C26942F48052C26104E0C2694EF6FF735B
:104A40001A40C2617047826A02F47F428262826ABF
:104A50000A4382627047C26A02F47F42C262C26A3B
:104A60000A43C262704721B1C26942F40062C26166
:104A700004E0C2694FF2FF731A40C261704721B16E
:104A8000C26942F48072C26104E0C2694FF6FF63FA
:104A90001A40C2617047B1F5007F04D1C26942F487
:104AA0000072C26104E0C2694FF6FF531A40C2614E
:104AB000704721B1C26942F48062C26104E0C269F8
:104AC0004FF6FF331A40C261704721B1026B42F4C6
:104AD0008052026304E0026B4EF6FF731A400263D9
:104AE0007047026B4FF20F031A400263026B42EAF7
:104AF00001120263704721B1026B42F001020263AE
:104B000004E0026B4FF6FE731A400263704721B156
:104B1000026B42F00202026304E0026B4FF6FD7387
:104B20001A4002637047C16941F00801C1617047D2
:104B30000078004000BCFFBF00380140D2B201E065
:104B400000F8012B491EFBD270470022F6E710B592
:104B500013460A4604461946FFF7F0FF204610BDEB
:104B600030B50B46014600202022012409E021FA3D
:104B700002F59D4205D303FA02F5491B04FA02F53A
:104B80002844151EA2F10102F1DC30BD064C074D90
:104B900006E0E06840F0010394E80700984710340D
:104BA000AC42F6D3FEF70AFB644F0008844F0008BE
:104BB0000FB4054B10B503A9044A029800F02CF875
:104BC00010BC5DF814FB00005332000838000020D0
:104BD0000FB4084B10B504A902AA039800F01CF802
:104BE000044602A9002000F0B8F9204610BC5DF888
:104BF00014FB00005B4F000802E008C8121F08C148
:104C0000002AFAD170477047002001E001C1121F4D
:104C1000002AFBD1704700002DE9FF4F8BB088467A
:104C20000546002606E025280BD0DDE90D12904749
:104C30006D1C761C28780028F5D10FB03046BDE8F1
:104C4000F08F0024A146A2460122AE4900E00443B1
:104C500015F8013F203B02FA03F00842F7D128780B
:104C60002A2810D06FF02F022878A0F130010929EE
:104C700015D809EB890102EB410144F0020400EB75
:104C800001096D1CF0E758F8041B5FEA010903D520
:104C900044F40054C9F1000944F002046D1C287862
:104CA0002E2817D115F8010F44F004042A280ED03D
:104CB0006FF02F022878A0F1300109290AD80AEBF9
:104CC0008A0102EB410100EB010A6D1CF2E758F882
:104CD00004AB6D1C28786C280FD006DC4C2817D04C
:104CE00068280DD06A2814D104E0742810D07A28DE
:104CF0000FD10DE044F400140AE044F4801401E004
:104D000044F440146978814202D104F580146D1C8A
:104D10006D1C2878692865D006DC00288DD06328B2
:104D200027D0642806D15DE06E2808D073282AD0E9
:104D3000752877D0DDE90D129047761CE0E0C4F3CA
:104D40000250022809D003280DD0D8F800100428FA
:104D50000DD00E6008F10408D2E0D8F80010F21768
:104D6000C1E90062F6E7D8F800100E80F2E70E7095
:104D7000F0E718F8041B8DF8001000208DF80100F2
:104D8000EB46012003E058F804BB4FF0FF30610709
:104D90004FF0000701D40AE07F1C57450DDA874227
:104DA000FADB1BF807100029F6D106E07F1C8742CA
:104DB000FCDB1BF807100029F8D1DDE90D23A9EB76
:104DC00007008146214600F0B1F83044C61904E0DE
:104DD000DDE90D121BF8010B90477F1EF8D221462A
:104DE000484688E058F8040BC4F302514FF00A0B10
:104DF000032900D100B2042900D140B2002802DA10
:104E000040422D2102E0210505D52B218DF82410EB
:104E1000012104E006E0E10710D02021F6E708AF09
:104E2000089113E058F8040BC4F302514FF00A0B39
:104E3000032900D180B2042900D1C0B20021EEE7DD
:104E40005946FFF78DFE303107F8011D0028F7D1D4
:104E5000ADEB070000F1200B600702D524F480348D
:104E600001E04FF0010ADA4502DDAAEB0B0000E099
:104E70000020824600EB0B0108980144A9EB0100D9
:104E80000A90E00306D4DDE90D2321460A9800F0DC
:104E90004DF806444FF0000908E009A911F809008F
:104EA000DDE90D12904709F10109761C0899894541
:104EB000F3DBE0030CD5DDE90D2321460A9800F071
:104EC00035F8064404E0DDE90D1230209047761CE9
:104ED000BAF10001AAF1010AF5DC05E0DDE90D12E5
:104EE00017F8010B9047761CBBF10001ABF1010BE9
:104EF000F4DC0A982146DDE90D2300F005F80644AC
:104F00006D1C97E6092801002DE9F04104460025B3
:104F10001E461746880404D405E039462020B047D1
:104F20006D1C641EF9D52846BDE8F0812DE9F041DD
:104F3000044600251E469046C80301D5302700E0F0
:104F40002027880404D505E041463846B0476D1C4B
:104F5000641EF9D52846BDE8F0810A68531C0B6031
:104F600010707047844F0008000000203C000000D3
:104F7000F84B0008C04F00083C0000202C05000042
:104F8000084C000800AABBCCDDEEFF0000000000CA
:104F90000000000000000000000000000102030407
:104FA00006070809006CDC0200000000010203048F
:104FB00001020304060708090204060800000000B5
:04000005080031B509
:00000001FF
